:020000040800F2
:100000000807002089010008A91A0008290900082A
:1000100079140008B90500086D25000800000000EB
:100020000000000000000000000000005B2000084D
:10003000F106000800000000151E000879230008E2
:10004000A3010008A3010008A3010008A301000800
:10005000A3010008A3010008A30100082D07000860
:10006000A3010008A3010008A3010008A3010008E0
:10007000A3010008A3010008A3010008A3010008D0
:10008000A3010008A3010008A3010008A3010008C0
:10009000A3010008A3010008A3010008A3010008B0
:1000A000A3010008A3010008A3010008A3010008A0
:1000B000A3010008D923000800000000A3010008E4
:1000C000A30100080000000000000000A3010008D8
:1000D00000000000A3010008A301000800000000C8
:1000E000A3010008A3010008A301000800F002F822
:1000F00000F03AF80AA090E8000C82448344AAF188
:100100000107DA4501D100F02FF8AFF2090EBAE885
:100110000F0013F0010F18BFFB1A43F0010318473B
:100120005488000074880000103A24BF78C878C151
:10013000FAD8520724BF30C830C144BF04680C60ED
:10014000704700000023002400250026103A28BF35
:1001500078C1FBD8520728BF30C148BF0B60704739
:100160001FB51FBD10B510BD00F031F81146FFF7E7
:10017000F7FF02F033FA00F04FF803B4FFF7F2FF95
:1001800003BC00F057F800000948804709480047C1
:10019000FEE7FEE7FEE7FEE7FEE7FEE7FEE7FEE737
:1001A000FEE7FEE704480549054A064B7047000094
:1001B0007D230008ED00000808010020080700204A
:1001C00008030020080300207047704770477546F9
:1001D00000F02CF8AE4605006946534620F00700B3
:1001E000854618B020B5FFF7DDFFBDE820404FF091
:1001F00000064FF000074FF000084FF0000B21F011
:100200000701AC46ACE8C009ACE8C009ACE8C009DD
:10021000ACE8C0098D46704710B50446AFF30080C6
:100220002046BDE81040FFF7A8BF00000048704717
:10023000A400002001491820ABBEFEE72600020002
:100240007047000070B5124E304600F047F90024A8
:100250004FF47A75304600F0DCF838B1AC4201D189
:10026000012070BD641CA4B2AC42F3D3304600F050
:1002700046F90024304600F0C5F838B1AC4201D14F
:10028000012070BD641CA4B2AC42F3D3002070BD49
:100290000024014010B586B000F09EF8012148020C
:1002A00001F0E0FD4FF4004001F0B6FD1B4C0623C9
:1002B00001220021204600F0D7F806230222012166
:1002C000204600F0D1F8062303220221204600F048
:1002D000CBF8062304220321204600F0C5F80623AC
:1002E00005220421204600F0BFF8002101914FF4BF
:1002F00060220392049101218DF809108DF80810F5
:1003000005218DF8141001A9204600F089F801217B
:10031000204600F017F806B010BD00000024014090
:1003200010B500F059F8FFF7B5FF00F017F8BDE879
:100330001040FFF787BF00000121014800F0D3B84B
:1003400000240140002904D0816841F0010181604E
:100350007047816821F001018160704710B58CB051
:100360000121084601F062FD1248019080150790B6
:1003700000200590104902914FF48061089180217E
:1003800006910390322104910B9020200990C00126
:100390000A900A4C01A9204600F087F9054801217E
:1003A0004C3800F00DF80121204600F071F90CB036
:1003B00010BD00004C240140100000200800024045
:1003C000002904D0816841F48071816070478168A0
:1003D00021F480718160704708B50121042001F08B
:1003E00041FD00208DF803001F20ADF80000032020
:1003F0008DF802006946024800F01CFA08BD0000B2
:1004000000080140014600208968490700D5012005
:100410007047014600208968090700D50120704710
:1004200010B542680E4B1A400C790B6842EA042260
:100430001343436082680B4B1A40D1E902432343C4
:100440004C7942EA440213438360C26A22F4700288
:10045000097C491EC9B242EA0151C16210BD0000C7
:10046000FFFEF0FFFDF7F1FF70B5072609290AD955
:10047000C568A1F10A0404EB4404A640B543A340B7
:100480001D43C56007E0056901EB4104A640B54383
:10049000A3401D4305611F23072A09D2446B521E46
:1004A00002EB820293409C4391400C43446370BD35
:1004B0000D2A09D2046BD21F02EB820293409C43A7
:1004C00091400C43046370BDC46A0D3A02EB820292
:1004D00093409C4391400C43C46270BD816841F0DD
:1004E000080181607047002904D0816841F4A001AF
:1004F00081607047816821F4A00181607047816844
:1005000041F004018160704710B500F0F7F9064929
:10051000012802D00020087510BD01200875BDE833
:10052000104001F033B800007E00002070B500F0EC
:10053000F5F9164C012802D02078012804D10020BA
:100540006070012001F09CFC00F0E8F9104D38B912
:100550002889142804D801206070002001F090FC44
:100560006078012803D000200A49488270BD28899C
:1005700002F008FD6FF00B0102F095FE064902F053
:1005800015FD02F0DFFC80B2EEE700000200002063
:10059000740000207E00002000007A4410B504485A
:1005A00000244470012001F06BFC0248448210BD1D
:1005B000020000207E000020FEE7000070B5144E0F
:1005C000052233460A21134801F0D1FF114C64344F
:1005D0002080104D334605220A21A81C01F0C7FFD8
:1005E0006080334605220A21281D01F0C0FFA0804B
:1005F000334605220A21A81D01F0B9FFE0803346E9
:1006000005220A21A4F15C0001F0B1FF208170BD38
:100610006666663F1000002010B5FFF7CFFF01F0BF
:10062000D5FE0F49087010B1012815D10AE000F07D
:1006300025FFFFF77BFF002000F00EFF012000F0F8
:10064000FBFE09E001F01EFEFFF7A8FF012000F00D
:1006500003FF002000F0F0FEBDE81040FFF754BF9C
:100660000200002008B50121082001F0FBFB482012
:100670008DF803004FF49270ADF8000003208DF860
:1006800002006946014800F0D5F808BD000C0140A1
:10069000002904D0016841F0010101607047016840
:1006A0004FF6FE7211400160704730B5026847F6A0
:1006B000F0739A430C6A8B682343D1E904452C43B9
:1006C00023438C692343CC6923434C6A23438C6ABC
:1006D000234313430360CA6842600A688260496822
:1006E000C16030BD4FF47A71884200D3084670472C
:1006F000704700B502464FF47A7302E0184600F0E6
:1007000004F8521E501CF9D100BD00EBC000C1001E
:100710004FF0E02041610021816105210161016903
:10072000C903FCD5042101617047000070B50220A7
:1007300000F02CF801F084FA04462146272001F04D
:10074000EDFA1149FF2C06D02CB1600605D5012524
:100750000120087008E0002506E0A00601D502256A
:1007600002E0E00600D503253DB1022D08D0032D9F
:1007700005D1BDE8704001F099BA0820087070BD3D
:10078000BDE8704001F0AEBA0000002001490860E9
:10079000704700001404014030B51B4A837901689A
:1007A000002B2AD013688B431360111D0B6804685B
:1007B000A3430B60017911440B68046823430B6069
:1007C000114C08342168036899432160231D19687E
:1007D0000568A94319604179102905D011440A68B8
:1007E000006802430A6030BD21680268114321603D
:1007F000196800680143196030BD0079104402682F
:100800008A43026030BD00000004014010B58A0731
:10081000120F0F23934021F00304054921448C68F3
:100820009C438C608B68904003438B6010BD00003C
:10083000000001402DE9F0410022CC7804F00F03C4
:10084000E40601D58C7823430C784FF00F0714F0A1
:10085000FF0F4FF0010C1CD005680CFA02F40E8853
:100860002640A64211D1960007FA06F825EA0805A7
:1008700003FA06F848EA0505CE78282E02D0482E5D
:1008800002D002E0446100E00461521C082AE4D373
:1008900005600A88FF2A1ED94568002202F1080671
:1008A0000CFA06F40E882640A64210D1960007FAEC
:1008B00006F825EA080503FA06F848EA0505CE78A1
:1008C000282E00D14461CE78482E00D10461521CFC
:1008D000082AE3D34560BDE8F08102460020926813
:1008E0000A4200D0012070474161704701617047A2
:1008F000002A01D0016170474161704700B500F0E6
:1009000023F80549012802D1C878401CC870C8786E
:1009100000F00100C87000BD0C000020202101483B
:10092000FFF7DBBF000C0140FEE710B54FF4A060FD
:1009300001F066FA0121084601F042F90121BDE803
:100940001040002001F0F4BD0249087800220A702E
:10095000704700000C00002010B5064C6078A070B5
:1009600000F00AF86070A178002902D0002800D1B8
:10097000217010BD0C00002010B500244FF48071D0
:100980000348FFF7AAFF00B90124204610BD00006C
:10099000000C01402DE9F04105460F4614461E4665
:1009A0002A2000F01DFD6D1CA8B200F00DFD641C96
:1009B000A0B200F009FD2B2000F012FDBF1CB8B260
:1009C00000F002FDB61CB0B200F0FEFCBDE8F04144
:1009D0002C2000F005BD08B54FF6FF7000210090F7
:1009E0008023A022084600F00CF808BD10B514467C
:1009F0000B460246FFF7CEFF2046BDE8104000F050
:100A0000E3BC2DE9F0478046DDF820900D46164600
:100A10001F46781E83B2701E82B229464046FFF7F9
:100A2000B9FF0AE0444604E0484600F0CDFC641CEF
:100A3000A4B2B442F8D36D1CADB2BD42F2D3BDE84E
:100A4000F0870000F8B50121042001F00BFA012124
:100A5000082001F007FA4FF4C054ADF80040102010
:100A60008DF8030003208DF802000B4E69463046D6
:100A7000FFF7E0FEF514ADF80050084F6946384620
:100A8000FFF7D8FE21463046FFF730FF29463846AB
:100A9000FFF72CFFF8BD000000080140000C0140EA
:100AA00070B5FFF7CFFF7B4D4FF400640022214665
:100AB0002846FFF71DFF6420FFF71BFE0122214699
:100AC0002846FFF715FF6420FFF713FE112000F002
:100AD00087FC7820FFF70DFEB12000F081FC052097
:100AE00000F07CFC3C2000F079FC3C2000F076FC1F
:100AF000B22000F075FC052000F070FC3C2000F0F6
:100B00006DFC3C2000F06AFCB32000F069FC05207D
:100B100000F064FC3C2000F061FC3C2000F05EFC36
:100B2000052000F05BFC3C2000F058FC3C2000F06D
:100B300055FCB42000F054FC032000F04FFCC02012
:100B400000F04EFC282000F049FC082000F046FC94
:100B5000042000F043FCC12000F042FCC02000F063
:100B60003DFCC22000F03CFC0D2000F037FC0020D2
:100B700000F034FCC32000F033FC8D2000F02EFC8C
:100B80002A2000F02BFCC42000F02AFC8D2000F06D
:100B900025FCEE2000F022FCC52000F021FC1A20EC
:100BA00000F01CFC362000F01BFCA02000F016FC1E
:100BB000E02000F015FC042000F010FC222000F0E2
:100BC0000DFC072000F00AFC0A2000F007FC2E2094
:100BD00000F004FC302000F001FC252000F0FEFBBA
:100BE0002A2000F0FBFB282000F0F8FB262000F074
:100BF000F5FB2E2000F0F2FB3A2000F0EFFB002086
:100C000000F0ECFB012000F0E9FB032000F0E6FB24
:100C1000132000F0E3FBE12000F0E2FB042000F0F1
:100C2000DDFB162000F0DAFB062000F0D7FB0D20DC
:100C300000F0D4FB2D2000F0D1FB262000F0CEFBED
:100C4000232000F0CBFB272000F0C8FB272000F07A
:100C5000C5FB252000F0C2FB2D2000F0BFFB3B2090
:100C600000F0BCFB002000F0B9FB012000F0B6FB57
:100C7000042000F0B3FB132000F0B0FB3A2000F09A
:100C8000AFFB052000F0AAFBBDE87040292000F072
:100C9000A7BB0000000801402DE9FF4F83B00746C5
:100CA000DDF844904FF0000801974FEA590A5FEAD7
:100CB0004A7001D0012000E0002000EBDA0000FBC8
:100CC00009F00290203A02F0FF0B0498049948447E
:100CD000401E83B207EB0A00401E82B23846FFF77F
:100CE00059FE002554E0B9F10C0F24D0B9F1100FD2
:100CF00028D0B9F1180F2AD0B9F1200F4BD12948CB
:100D000000EB8B10465D0024129838B30120A04000
:100D1000304204D03846069A0499FFF767FE7F1CDC
:100D2000BFB20198381A50452CD1019F0498401C3D
:100D300080B204902AE01C490BEB4B0001EB8000D1
:100D4000465DE0E7194800EB0B10465DDBE718490C
:100D50000BEB4B0001EB0010465DD4E70120A040F7
:100D6000304203D0069800F02FFB02E0109800F00C
:100D70002BFB08F1010808F0FF08B8FBFAF00AFBAA
:100D8000108058B1641CE4B2082CBDD36D1CADB208
:100D900002988542A7D307B0BDE8F08F4FF0000856
:100DA000F4E70000606F00082C530008A05700080B
:100DB000905D00082DE9FF4F83B08146DDE911A663
:100DC0001D4600274FEA56080024A34622E0281BB0
:100DD000401EC1B20A2001F06BFC0599B1FBF0F096
:100DE0000A21B0FBF1F201FB120027B9691E8C4207
:100DF00001DAA0B10127CDE9016B3030C2B204FBAA
:100E0000089080B2CDF800A0109B0499FFF744FF32
:100E1000641CE4B2AC42DAD307B0BDE8F08FCDE990
:100E2000016B04FB089080B2CDF800A02022109B3B
:100E30000499FFF731FFEBE72DE9F0479146089F52
:100E40009846002401EB0802521E93B200EB0902FF
:100E5000521E92B2FFF79EFD002611E000250BE026
:100E600017F8140000F0BAFA07EB4400407800F0DD
:100E7000B5FA641C6D1CADB24545F1D3761CB6B213
:100E80004E45EBD3BDE8F0872DE9FE4F0546DDE981
:100E90000D68894614469A460C9F0BE0CDE901681F
:100EA0005346494628460097FFF7F6FE05EB5600E5
:100EB00085B2641C2278002AF0D1BDE8FE8F0000C4
:100EC0003EB50E4800224FF6FF71047D0C2040F223
:100ED000CF13012C08D0CDE90102009108A23721DF
:100EE0005F20FFF7D1FF3EBDCDE90102009107A2CF
:100EF00037215F20FFF7C8FF3EBD00007E000020C5
:100F000042756D705F4F46460000000042756D707F
:100F10005F4F4E20000000002DE9FE4F00260C25FB
:100F20004FF6FF748DE870003346AAA21E215F20A1
:100F3000FFF7AAFF012002900023A8A22821CDE9F3
:100F400000455F20FFF7A0FF10258DE8700000230B
:100F5000A4A208210620FFF797FF8DE87000002368
:100F6000A2A220210620FFF78FFF8DE8700000234A
:100F7000A0A238210620FFF787FF8DE8700000232C
:100F80009EA250210620FFF77FFF8DE870004BF6F0
:100F900040439CA266210620FFF776FFDFF86CB283
:100FA00040F2FF784FF4487ABBF802204FF01F0957
:100FB0004FF47847B2F5C87F08D8CDE90084042300
:100FC000082132200295FFF7F5FE12E0524508D3C2
:100FD000CDE900740423082132200295FFF7EAFED0
:100FE00007E0CDE900940423082132200295FFF7A1
:100FF000E1FEBBF80420B2F5C87F08D8CDE9008433
:101000000423202132200295FFF7D4FE12E052453E
:1010100008D3CDE900740423202132200295FFF784
:10102000C9FE07E0CDE90094042320213220029577
:10103000FFF7C0FEBBF80620B2F5C87F08D8CDE99F
:1010400000840423382132200295FFF7B3FE12E01A
:10105000524508D3CDE9007404233821322002958B
:10106000FFF7A8FE07E0CDE90094042338213220E1
:101070000295FFF79FFEBBF80820B2F5C87F08D89D
:10108000CDE900840423502132200295FFF792FE1F
:1010900012E0524508D3CDE90074042350213220D8
:1010A0000295FFF787FE07E0CDE900940423502165
:1010B00032200295FFF77EFEBBF81220B2F5C87F02
:1010C00008D8CDE90084042366213A200295FFF771
:1010D00071FE12E0524508D3CDE900740423662165
:1010E0003A200295FFF766FE07E0CDE9009404235D
:1010F00066213A200295FFF75DFE9BF801004FF64E
:101100000748C00708D08DE87000434642220821F6
:101110002820FFF7C1FD07E08DE87000434641221B
:1011200008212820FFF7B8FD9BF80100800708D5AB
:101130008DE870004346422220212820FFF7ACFDB5
:1011400007E08DE870004346412220212820FFF768
:10115000A3FD9BF80100400708D58DE870004346C9
:10116000422238212820FFF797FD07E08DE8700024
:101170004346412238212820FFF78EFD9BF80100CD
:10118000000708D58DE870004346422250212820F0
:10119000FFF782FD07E08DE87000434641225021B1
:1011A0002820FFF779FDBBF8120050B18DE87000E0
:1011B0004FF4FC6316A266212820FFF765FEBDE808
:1011C000FE8F8DE870003B4612A266212820FFF7B3
:1011D0005BFEF4E74D6F746F72000000436F6E7436
:1011E000726F6C004D5F313A000000004D5F323A83
:1011F000000000004D5F333A000000004D5F343ABC
:1012000000000000425F4D3A000000007E00002018
:101210004F4E00004F460000FEB500260C254FF64D
:10122000FF748DE8700033462FA21E215F20FFF768
:101230002BFE0120029000232DA22821CDE900459C
:101240005F20FFF721FE10258DE8700000232AA201
:1012500008210620FFF718FE8DE87000002328A261
:1012600020210620FFF710FE8DE87000002326A243
:1012700038210620FFF708FE8DE87000002324A225
:1012800050210620FFF700FE8DE87000234622A2C1
:1012900066210220FFF7F8FD1F26224FCDE90064EA
:1012A00002957A89042308213220FFF783FDCDE9D6
:1012B00000640295BA89042320213220FFF77AFDC9
:1012C000CDE900640295FA89042338213220FFF722
:1012D00071FDCDE9006402953A8A04235021322041
:1012E000FFF768FDFEBD0000536572766F000000D9
:1012F000436F6E74726F6C00535F313A00000000F0
:10130000535F323A00000000535F333A00000000A0
:10131000535F343A000000002020202020202020AD
:10132000202020007E0000202DE9FE434FF6FF74B0
:1013300048F23041CDE9001418201C4E02900123E0
:10134000327802218C20FFF735FD307800270C25FC
:101350004FF00108062811D18DE830014FF4FC69E7
:101360004B4613A206215F20FFF78EFD8DE8B000EB
:101370004B4611A210215F20FFF786FD3078072829
:1013800011D18DE830014FF47846334608A206218A
:101390005F20FFF779FD8DE8B000334608A21021E9
:1013A0005F20FFF771FDBDE8FE8300000000002014
:1013B000536C6176655F0000436F6E6E6563740009
:1013C0004C6F73732020200010B50446200A00F0F3
:1013D0001DF8E0B2BDE8104000F018B800F016B8F3
:1013E00070B50646084D4FF4805400222146284629
:1013F000FFF77EFA304600F009F821462846BDE89E
:1014000070400122FFF774BA0008014070B506462B
:10141000084D4FF40064002221462846FFF768FA81
:10142000304600F0CDFD21462846BDE8704001223F
:10143000FFF75EBA000C0140064B4FF40041002854
:1014400003D001221846FFF753BA00221846FFF7CF
:101450004FBA0000000C0140064B4FF480410028B9
:1014600003D001221846FFF743BA00221846FFF7BF
:101470003FBA0000000C0140FEE7000070B5404C90
:10148000002525704FF46170608100F0D9F800F0FC
:1014900013FA00F099FA3B4880780D2817D2DFE85C
:1014A00000F007171C22282E363E464E565E660078
:1014B0003548808800F05EFA00203249091D89888D
:1014C00004EB40025180401CC0B20428F8D370BD28
:1014D0006570BDE8704000F0BBBA06206070BDE8E2
:1014E000704000F089BA0F206070BDE8704000F0D5
:1014F000AFBA09206070BDE8704000F07DBA0120ED
:1015000000F04EF8BDE87040012000F00FB9022055
:1015100000F046F8BDE87040022000F007B9032053
:1015200000F03EF8BDE87040032000F0FFB8042052
:1015300000F036F8BDE87040042000F0F7B8052050
:1015400000F02EF8BDE87040052000F0EFB806204E
:1015500000F026F8BDE87040062000F0E7B807204C
:1015600000F01EF8BDE87040072000F0DFB808204A
:1015700000F016F8BDE87040082000F0D7B8000071
:101580007E0000200200002074000020034800219B
:1015900041808180C1800181704700007E00002071
:1015A00030B5254C254D01286388228817D00428A2
:1015B00015D0052813D0082811D002282DD00628D0
:1015C0002BD06A801946104600F0ACF8A8806188DC
:1015D000208800F0A7F8E8802088288130BD012805
:1015E00010D005280ED0042801D00828F6D11946BD
:1015F000104600F097F868806188208800F092F823
:10160000288130BD1146184600F08CF8688021888A
:10161000608800F087F8288130BD6B80114618463D
:1016200000F080F8A8802188608800F07BF8E880CE
:101630006088288130BD0000060000207E00002068
:1016400070B536484FF4FA76354A01884088A1F5DE
:10165000E1634FF4E16540F6FC04B34206D8A842CA
:1016600004D3A04202D80020907070BDB34204D8C9
:10167000A04202D30120907070BDB34204D8A842AA
:1016800002D80320907070BDA14206D3A84204D3B3
:10169000A04202D80220907070BDA94206D8A8428C
:1016A00004D3A04202D80420907070BDA14209D397
:1016B000A04207D3814202D80620907070BD072057
:1016C000907070BDA94209D8A84207D8814202D8BB
:1016D0000B20907070BD0A20907070BDA9420DD88B
:1016E000A0420BD3C1F5E161A0F6FC00814202DC0F
:1016F0000520907070BD0C20907070BDA142FCD38D
:10170000A842FAD8A1F6FC01C0F5E160814202DBF3
:101710000820907070BD0920907070BD740000208A
:1017200002000020401A80B27047000070B5604986
:10173000604C0D1DCE782A88A9886B88012E10D0A8
:10174000022E5AD001286FD002286DD005286BD008
:10175000062869D0042868D0082866D062802281D3
:1017600070BD012813D0022811D005280FD00628FB
:101770000DD003282DD0042831D0072836D00828D2
:10178000EED1A280104600F005F9E08070BD01287E
:101790000CD0022810D0052814D00628F6D11846FF
:1017A00000F0F8F860806888208170BDA38018463A
:1017B00000F0F0F8E08070BD6380184600F0EAF8B1
:1017C000208170BD184600F0E5F8A0806888E080B0
:1017D00070BD6280104600F0DDF8208170BD1046BB
:1017E00000F0D8F8A0802888E08070BD104600F096
:1017F000D1F860802888208170BD012816D0022889
:1018000014D0052812D0062810D0032830D0042880
:1018100035D0072839D00828EED1104600F0BAF8A4
:10182000A0802888E08070BD35E03EE001280BD024
:10183000022810D0052815D00628F4D16380184658
:1018400000F0A8F82081EEE7184600F0A3F8A08089
:101850006888E080E7E7184600F09CF860806888B8
:101860002081E0E7A380184600F094F8E080DAE7F2
:10187000104600F08FF8608028882081D3E7A2808E
:10188000104600F087F8E080CDE76280104600F057
:1018900081F82081C7E7012804D0052802D06380A1
:1018A0002381C0E7A380E380BDE7A280E280BAE79E
:1018B000020000207E0000202DE9F0470024294F7F
:1018C000DFF8A490DFF8A4A0294D40F6FC0800261C
:1018D00037F8140025F81400404514D3A0F6FC0096
:1018E00080B201F04FFB494601F04EFA514601F03B
:1018F0005DFB01F027FB80B225F81400FEF7F2FE35
:1019000025F8140028E0B0F5E16F23D8A0F5967013
:1019100080B225F8140042F21071884201D325F8F4
:10192000146035F8140001F02DFB494601F02CFA43
:1019300001464FF07E5001F00FFC514601F036FB9E
:1019400001F000FB80B225F81400FEF7CBFE25F86D
:10195000140001E025F81460641CE4B2032CB7D332
:10196000BDE8F087740000200080BB4400007A448A
:101970000600002040F6FC020549904202D30C20EC
:1019800048707047B0F5E16FFBD80320487070478E
:101990007E00002070B50546084601F0F3FA0949BB
:1019A00001F0F2F90446284601F0ECFA054621461A
:1019B00001F0FCFA0146284601F0CEFB01F0C2FA24
:1019C00080B270BD00007A44094840F6FC02094923
:1019D0008088904202D30120C8707047B0F5E16F53
:1019E00002D80220C87070470020C87070470000FD
:1019F000740000200200002070B51348134C051D30
:101A0000C2782888A988012A06D0022A10D06080CE
:101A1000A080E080208170BDFFF7BCFF6080288837
:101A2000A080A988FFF7B6FFE0802888208170BDDC
:101A30006080FFF7AFFFA0802888E080A988FFF7CB
:101A4000A9FF208170BD0000020000207E00002060
:101A500070B51348134C051DC278A9886888012AFF
:101A600006D0022A0FD06080A080E080208170BD67
:101A70006080A080FFF78EFFE080A9886888FFF76C
:101A800089FF208170BDFFF785FF6080A988688885
:101A9000FFF780FFA0806888E080208170BD000093
:101AA000020000207E00002070470000F8B50121F0
:101AB000042000F0D7F90121082000F0D3F9102507
:101AC0008DF803502C01ADF8004003208DF8020082
:101AD000114E69463046FEF7ADFE48228DF80320D0
:101AE0000222ADF800200D4F69463846FEF7A2FEEF
:101AF0008DF803500122ADF8002069463846FEF704
:101B000099FE012221463046FEF7F2FE01221146DF
:101B10003846FEF7EDFEF8BD00080140000C01401C
:101B200010B5FFF7C3FF00F08BF80146272000F047
:101B3000F5F8214C002201212046FEF7D9FE0021B4
:101B4000252000F0EBF805221C49302000F002F9B6
:101B50001A490522491D2A2000F0FCF80F212020F7
:101B600000F0DCF80121212000F0D8F820213120FC
:101B700000F0D4F80121222000F0D0F81A2124200E
:101B800000F0CCF80721262000F0C8F8FF21E22061
:101B900000F0C4F8FF21E12000F0C0F80122114656
:101BA0002046FEF7A5FE052000F030F808B1012020
:101BB00010BD002010BD0000000C014022530008A1
:101BC000FEB504460D460121084600F04BF90121FF
:101BD0000846FEF71BFE0222019201268DF80A60DC
:101BE00000228DF808200C228DF8092001A8FEF7AC
:101BF000D3FD07228DF800208DF803608DF8014099
:101C00008DF80250684600F0C9F8FEBD70B5064672
:101C10000A4D4FF48074002221462846FEF768FEE4
:101C2000304600F0CDF9FF2000F0CAF90646012247
:101C300021462846FEF75CFE304670BD0008014094
:101C400070B5094D4FF48074002221462846FEF7F6
:101C50004FFEFF2000F0B4F9064601222146284637
:101C6000FEF746FE304670BD0008014070B50D4CD1
:101C70000422227001462022A02000F06BF80A4DB9
:101C8000002201212846FEF733FE0E21202000F01D
:101C900045F8012211462846FEF72AFE052020704D
:101CA00070BD000000000020000C014010B5FF21B5
:101CB000E12000F033F8094C002201212046FEF714
:101CC00017FE0F21202000F029F80122114620469E
:101CD000FEF70EFE02490720087010BD000C0140FF
:101CE0000000002010B5FF21E12000F017F8094C9A
:101CF000002201212046FEF7FBFD0F21202000F0ED
:101D00000DF8012211462046FEF7F2FD0249062099
:101D1000087010BD000C0140000000202DE9F041CA
:101D200007460E460A4D4FF480740022214628468D
:101D3000FEF7DEFD384600F043F9304600F040F98A
:101D400021462846BDE8F0410122FEF7D1BD000042
:101D5000000801402DE9F04104460D461646DFF823
:101D600038804FF48077002239464046FEF7C0FDA8
:101D7000204600F025F9002404E0285D00F020F959
:101D8000641CE4B2B442F8D339464046BDE8F041A1
:101D90000122FEF7ADBD00000008014070B50F2321
:101DA000C27801260178002A1ED0144A126802F473
:101DB000E062C2F5E062120AC2F10404D340457841
:101DC000A54082781A402A43120101F1E02181F8EE
:101DD0000024007800F01F018E404009800000F1CF
:101DE000E020C0F8006170BD01F01F008640480986
:101DF000800000F1E020C0F8806170BD0CED00E0D3
:101E00000249084302490860704700000000FA05D3
:101E10000CED00E070470000034A516821F4404196
:101E2000014351607047000000100240054A00293C
:101E300003D0516901435161704751698143516138
:101E40007047000000100240054A002903D0D16904
:101E50000143D1617047D1698143D161704700006E
:101E600000100240054A002903D0916901439161A5
:101E700070479169814391617047000000100240F2
:101E8000064B4FF48051002803D001221846FEF77C
:101E90002FBD00221846FEF72BBD0000000C0140AC
:101EA000F8B501211020FFF7DDFF01210820FFF721
:101EB000D9FF10248DF803406602ADF800600325B9
:101EC0008DF802500D4F69463846FEF7B3FC8DF889
:101ED00003404FF45044ADF800408DF80250084DD7
:101EE00069462846FEF7A6FC31463846FEF7FCFC5C
:101EF00021462846FEF7FAFCF8BD0000001001401C
:101F0000000C0140064B4FF40051002803D0002282
:101F10001846FEF7EDBC01221846FEF7E9BC0000AA
:101F20000010014038B501210420FFF79BFF182065
:101F30008DF80300A020ADF8000003208DF802000A
:101F4000074C69462046FEF775FC04218DF8031006
:101F50004021ADF8001069462046FEF76BFC38BD05
:101F60000008014010B586B0FFF7DCFF012108032F
:101F7000FFF778FF4FF48270ADF806000020ADF84F
:101F80000400ADF80800ADF812000821ADF81010FB
:101F9000ADF80A00ADF80C008801ADF80E0007207E
:101FA000ADF81400054C01A9204600F03AF80121D3
:101FB000204600F01FF806B010BD000000300140C0
:101FC00070B505460A4C0221204600F01FF8012892
:101FD000F9D12946204600F022F80121204600F0E0
:101FE00015F80128F9D1204600F017F8C0B270BDED
:101FF00000300140002904D0018841F040010180F7
:102000007047018821F0400101807047024600209E
:1020100012890A4200D0012070478089704781816F
:10202000704730B5028802F441530A884C88CD8845
:1020300022438C882C4322430C8922434C8922431F
:102040008C892243CC8922431A430280828B22F45A
:1020500000628283098A018230BD704770B540F604
:10206000FC01184E184D194C884211D3A0F6FC0003
:1020700080B200F087FF314600F086FE294600F06E
:1020800095FF214601F05EF800F05CFF80B270BD64
:10209000B0F5E16F13D800F075FF314600F074FE23
:1020A00001464FF07E5001F057F8294600F07EFFC0
:1020B000214600F001FE00F045FF80B270BD4FF4F4
:1020C000617070BD0000E1440000164300006144EF
:1020D00070B5002140F6FC021E4E1F4D4FF4E16426
:1020E000904212D3A0F6FC0080B200F04BFF3146C4
:1020F00000F04AFE294600F059FF0146002000F09A
:10210000DBFD00F003FF41B215E0A04213D800F060
:1021100039FF314600F038FE01464FF07E5001F0A5
:102120001BF8294600F042FF0146002001F014F898
:1021300000F0ECFE41B2094A9089084480B29081D7
:10214000642801D8642090819089A04200D39481B2
:1021500070BD00000000E144000048427E00002005
:1021600070B5002140F6FC021E4E1F4D4FF4E16495
:10217000904212D3A0F6FC0080B200F003FF31467B
:1021800000F002FE294600F011FF0146002000F099
:10219000E3FF00F0BBFE41B215E0A04213D800F00F
:1021A000F1FE314600F0F0FD01464FF07E5000F0A8
:1021B000D3FF294600F0FAFE0146002000F07CFD26
:1021C00000F0A4FE41B2094AD089084480B2D0810F
:1021D0004FF4C871884200D8D181D089A04200D381
:1021E000D48170BD0000E144000048427E00002020
:1021F00070B5002140F6FC021F4D204C904212D3D6
:10220000A0F6FC0080B200F0BDFE294600F0BCFD47
:10221000214600F0CBFE0146002000F04DFD00F00D
:1022200075FE41B216E0B0F5E16F13D800F0AAFEDA
:10223000294600F0A9FD01464FF07E5000F08CFFCA
:10224000214600F0B3FE0146002000F085FF00F0BB
:102250005DFE41B20A4A108A084480B2108242F2FE
:102260001071884201D300201082118A4FF49670B9
:10227000814200D3108270BD0000E144000048425A
:102280007E00002010B5074C0120207000206080E7
:10229000A080E0802081608203480088FFF7DEFE96
:1022A000608110BD7E0000207400002004484FF4BF
:1022B000617141818181C181C82101827047000023
:1022C0007E000020AFF300800CB500220192009246
:1022D0002748016841F4803101604FF4A063016830
:1022E00001F4003100910199491C0191009911B943
:1022F00001999942F3D10168890302D50121009126
:1023000000E000920099012930D11A490A6842F090
:1023100010020A600A6822F003020A600A6842F0AA
:1023200002020A604168416041684160416841F4CD
:1023300080614160416821F47C114160416841F451
:10234000E8114160016841F0807101600168890114
:10235000FCD5416821F003014160416841F0020170
:1023600041604168C1F381010229FAD10CBD00002E
:1023700000100240002002407047000010B50F48D6
:10238000016841F00101016041680D4A114041605E
:1023900001680C4A11400160016821F4802101604C
:1023A000416821F4FE0141604FF41F018160FFF795
:1023B00089FF05494FF00060086010BD0010024021
:1023C0000000FFF8FFFFF6FE08ED00E004210148E1
:1023D000FEF783BA000C014010B501210A4800F055
:1023E00019F8FEF7B9FA0948007801280BD1084C12
:1023F0006088FFF76DFEE088FFF7B2FEA088BDE8B9
:102400001040FFF7F5BE10BD0004004002000020A0
:1024100074000020C94301827047002904D001885C
:1024200041F0010101807047018821F00101018024
:102430007047002A03D082890A43828170478289CB
:102440008A4382817047018921F007010181704729
:1024500030B502881B4C1C4DA0420DD0A8420BD0B9
:10246000B0F1804F08D0194B984205D0184B9842D4
:1024700002D0184B984203D122F070034A881A43C5
:10248000154B984206D0154B984203D022F4407366
:10249000CA881A4302808A8882850A880285A042F7
:1024A0000AD0A84208D00E4A904205D00D4A904268
:1024B00002D00D4A904201D1097A01860121818220
:1024C00030BD0000002C01400034014000040040F9
:1024D00000080040000C00400010004000140040C4
:1024E0000040014000440140004801403EB5012148
:1024F0000220FFF7A9FC0D4C2046FFF7A4FF0021A6
:10250000ADF80610ADF80210C722ADF8042041F670
:102510001F42ADF800208DF8081069462046FFF7ED
:1025200097FF01212046FFF778FF3EBD00040040E1
:10253000F8B504460D460C4E01213046FFF76AFF00
:10254000012211463046FFF774FF1D208DF8000070
:1025500001208DF803008DF801408DF80250684687
:10256000FFF71CFCF8BD000000040040FEE72DE969
:10257000F0478046894617469A46781E38F810007C
:1025800000F073F904460D4601261EE051464FF057
:102590007E5000F0E1FD00F063FB22462B4600F088
:1025A00077F9044606FB07F00D4638F8100000F0F6
:1025B000E9FC514600F0FAFC00F052FB22462B46A3
:1025C00000F07EF804460D46761C4E45DEDB2046C4
:1025D000294600F01DF980B2BDE8F0870EB5FFF77F
:1025E0005FFC0020FFF78EFCFEF73CF8FFF77EFF54
:1025F000FDF796FEFDF7A0FEFFF7B4FCFEF750FADC
:10260000FEF7E9F9FFF78CFA78B1002414254FF6AC
:10261000FF764FF47847CDE900650A213B461DA2BD
:1026200008460294FEF730FCF5E7FEF77EF9FFF767
:102630003DFE1C48402300901A4619465A20FEF7DA
:10264000FBFB194C194D02E00120FEF75EF82078E3
:102650000528F9D0287810B1012803D004E0FEF74E
:102660005BFC01E0FEF7D8FDFEF75EFEFEF728FCFE
:10267000FDF7D2FF207828B1032803D0062801D027
:10268000072802D10948FFF7F1FA687D401C6875F8
:10269000DDE700004E524632344C30315F457272F5
:1026A0006F72000022330008000000207E0000202E
:1026B0000346012000E05843491EC9B2FBD27047CF
:1026C00010B591EA030F48BF83F0004300F1E681A3
:1026D000841A71EB030C05D2121943EB0C03001B97
:1026E00061EB0C01DFF824E14FEA1154A4EB135C19
:1026F0001EEA430F18BF9EEA445F73D023EA0E031D
:10270000DCF1200E21EA045143F4801332D322FA83
:102710000CFE10EB0E0023FA0CFE41EB0E01CCF187
:10272000200E03FA0EFE10EB0E0051F10001B1F580
:10273000801FCCF1200E32D201EB045112FA0EF2BE
:10274000BDE8104058BF7047401C38BF5FEA4202E6
:1027500018BF7047002814BF20F0010041F10001AC
:102760004FEA410313F5001F38BF7047A1F1C04184
:1027700000F086B9012A43EB0302ACF1200CDCF136
:102780001F0E32BF4FF0000E23FA0CF310EB0300C4
:1027900041EB0451B4EB115FD0D0A1EB045101F532
:1027A000801149085FEA300001EB04510ED350F16B
:1027B000000038BF12FA0EFE08D1BDE81040C9E78C
:1027C000401C38BF5FEA4202CAD1C3E7BDE81040EF
:1027D0004FEA410313F5001F38BF7047A1F1C04114
:1027E00000F04EB99EEA445F08D011EA5E0FBDE8E2
:1027F000104004BF01F0004100207047BDE81040C8
:1028000070B500F0EFF800BF64FBBE3E0000E0FFD3
:102810004FEA1153A3F58063D3F11E03A8BFD3F190
:10282000200C08DB4FF0004242EAC12252EA50522B
:1028300032FA03F0704709420BD4102BC4BF0020BA
:10284000704703F5787CBCF1FF3F05D04FF0FF30B7
:1028500070474FF00000704770B500F0C3F800BF3C
:102860004992248000207047F0E7B0FA80F310FA14
:1028700003F10AD0C3F11D0303F580634FEA415011
:102880004FEA035202EBD12170474FF0000070472E
:10289000DFF848C170B51CEA111E1EBF1CEA1315F3
:1028A0009EEA0C0F95EA0C0F00F06F8081EA03049A
:1028B00023EA4C134EEAD47E21EA4C1141F48011F4
:1028C00043F48013AE44A1FB024CA0FB0365AEF1C0
:1028D0007F7E361955EB0C05A1FB034C4CF1000330
:1028E000A0FB021C16EB0C06654153F100030942E4
:1028F00018BF46F0010613F4007F0BD14FEA0331F5
:102900004FEA0530340341EA155140EA16506FF0A2
:1029100003020AE04FEAC3214FEAC520F40241EA6C
:10292000555140EA56506FF0020202EB2E4201EB85
:10293000025585EACE710AD05FEA440C18BF24F034
:10294000004450F1000041F1000120EAD47040F24F
:10295000FE7C624500D270BDA84214BF4FF0804497
:102960004FF04044002E08BF0024BEF1806FA8BF86
:10297000A1F1C041BDE8704080F282804FF00000BC
:1029800001F1C04101F0004170479EEA0C0F0CEAD2
:10299000131518BF95EA0C0F06D04FF0000081EA1E
:1029A000030E0EF0004170BD00F01CF88900013EDE
:1029B00000F007B800F009B84FEA430C5FEA5C5C2E
:1029C00008D081EA030100F05BB84FEA410C5FEAEE
:1029D0005C5CF6D14FF00000014970470000FF0732
:1029E0000000F87F0EF1020E2EF0030E5EF8046B6D
:1029F000364205D4012A43EB030515F5001F12D812
:102A0000012841EB010C1CF5001F0CD80ED14FEA38
:102A1000D17C15F5001F0CEB4C0C0CF1020C08BF1F
:102A20004CEBD37C04E04FF0080C01E04FEAD37C80
:102A30000CEB4C0526FA05F606F00706B6F1040C79
:102A400006D20EEB860CBDE870404CF0010C6047DE
:102A5000DFE80CF0090B02024FF000414FF00000DC
:102A6000A1F5002170BD19461046012851EB010463
:102A700018BFD4F5001484BF002001F0004170BDE0
:102A80000808A0F500114FEA3101704710B591EA2E
:102A9000030F48BF83F000433FF51AAE841A71EB71
:102AA000030C07D212198CF0004C43EB0C03001BF3
:102AB00061EB0C01DFF8A4E14FEA1154A4EB135CC5
:102AC0001EEA430F18BF9EEA445F00F0B08023EA7D
:102AD0006E03524221EA0451C3EB6E0338BF5B1E02
:102AE000DCF1200E25D322FA0CFE10EB0E0043FA87
:102AF0000CFE41EB0E01CCF1200E03FA0EFE10EBA2
:102B00000E0051F10001CCF1200E29D412FA0EF280
:102B100001EB0451BDE8104058BF7047401C1CBF7A
:102B2000B2F1004F704700280CBF491C20F0010093
:102B3000704712EB020E43EB030218BF4FF0010E79
:102B40004EEA4202ACF1200CDCF11E0E54D943FADD
:102B50000CFE10EB0E0051F1FF31CCF11E0ED5D55D
:102B60000EF1010E12FA0EFE404141EB010101EBA4
:102B7000445C5FEA5C5C10D910EBDE7001EB045141
:102B800038BFBEF1004FBDE8104018BF70470028A5
:102B90000CBF491C20F00100704730D24FEAD42C02
:102BA00011F5001124F400641BD0B1FA81F20B3A44
:102BB000A41AA41ED2F12003914030FA03F3194362
:102BC000904001EBCC71002C01EB0451BDE81040AA
:102BD000A8BF704701F1C0414FF0000001F0004173
:102BE0007047B0FA80F310FA03F100D110BDE41A77
:102BF000173C4805C90AE4E701EB045110BD491030
:102C000001EB0451BDE810404FEA300002E04FF004
:102C1000000170474A0008BF0042F8D0B2F5001F1B
:102C200028BF704701F000414FF0000070479EEA56
:102C3000445F07D011EA5E0FBDE8104004BF0021D9
:102C400000207047BDE8104070B5FFF7CBFE00BF15
:102C500040DFF63E83F00041104670470000E0FF81
:102C600043004FEAD30C4FEA3C0C43401FBF4007E0
:102C70000CF1605113F0FE4F70471CF0006F03D150
:102C800000200CF0004170470CF0004343EA507004
:102C900010B540EACC0000F00AFA00BF0000009234
:102CA0004FEA0001FFF7ECBE4FF000414FF000008B
:102CB000A1F500217047000090EA010F48BF81F0A4
:102CC000004100F15082421A3CBF801A89184FEA35
:102CD000D0524FF07F4C1CEA410FA2EBD15318BFEA
:102CE0009CEA026F00F03B804FF0004C4CEA002061
:102CF0004CEA012121FA03FC10EB0C0C1ED202F16C
:102D0000FF325FEA1C2040EBC25038BF70471CF016
:102D10007F0F4FEA400C18BFBCF17F4F38BF7047A0
:102D2000C3F12003994008BF20F00100BCF17F4FA0
:102D300038BF7047A0F1C04000F0FFB94FEA3C0037
:102D4000000A40EBC25028BF1CF0FF0F4FEA400CB6
:102D5000E6D018BFBCF17F4F38BF7047EAE79CEA66
:102D6000026F05D010EA5C0F08BF00F0004070470A
:102D700010B500F09CF900BF64FBBE3E014800F0B6
:102D800060BA00BF0000C07F4FF47F0C1CEAD01275
:102D90001EBF1CEAD11392EA0C0F93EA0C0F00F04D
:102DA000858090EA010F48BF42F4807240F4000C25
:102DB00041F400002CF07F4120F07F4000B58142BB
:102DC000A2EB03020FF2081CACEB504EC0F1000066
:102DD0009EF800E04FEA4E0E00FB0EFC38BF4900A3
:102DE0004FEA2C1C02F5FA020CFB0EF34FEACE1E42
:102DF0004FEA112C4FEAC1210EEB635E42EB2242F7
:102E00000EFB0CFC4FEA1C5300FB03114FEA112C84
:102E10004FEA01310EFB0CFC4FEADC4C00FB0C11BD
:102E2000C14228BF09184CEB03335DF804EB10EBEB
:102E3000410143EBC250B2F57C0F38BF704729D532
:102E400012F0F00F1CBF00F1C04000F000407047CE
:102E5000008182838485868788898B8C8D8E8F9173
:102E60009293959697999A9C9D9FA0A2A3A5A7A897
:102E7000AAACAEB0B2B3B5B7B9BCBEC0C2C5C7C9C3
:102E8000CCCED1D4D7D9DCDFE2E6E9ECF0F3F7FA27
:102E9000FE0000004FEA400C0CF1807CBCF17E4F3C
:102EA00028BF7047B0F1C04000F047B990EA010F69
:102EB0000CEAD11348BF42F48072624538BF6345C3
:102EC00007D213F47F0F16D080EA010000F0004013
:102ED000704710B500F0EBF8097EFC3E00F005B835
:102EE00080EA010000F00040704780EA010000F035
:102EF000004000F022B912F47F0F04BF024870476F
:102F000080EA010000F019B90000C07F41000B0EFB
:102F1000D3F19E0208D950F400034FEA032323FAA9
:102F200002F048BF4042704710B500F0C0F800BF43
:102F300049922480002070476FF0004282EA20000E
:102F400070470000C10DD1F19E0206DB4FEA00235D
:102F500043F0004323FA02F07047004207D54FEADE
:102F60004001B1F1FE4F02D24FF00000704710B5A2
:102F700000F09DF849922480002070476FEA2000FD
:102F800070470000B0FA80F310FA03F2C3F19D031A
:102F90000AD0D90501EB1220530638BF704700F163
:102FA000010008BF20F00100704700004FF47F0CC3
:102FB0001CEAD0121EBF1CEAD11392EA0C0F93EA4E
:102FC0000C0F00F0478090EA010F48BF42F4807276
:102FD0004FF0004C4CEA00204CEA012102EB0302C6
:102FE000A0FB0113A2F50002002918BF43F0010362
:102FF0005B0028BF4FEA330342EB22425FEA132C07
:103000004CEBC2502EBFBCEB436FB2F57C0F704748
:103010004FEA036CBCF1004F08BF20F00100B2F58D
:103020007C0F38BF70470BD582F0FF0212F5803F4E
:10303000C8BF704700F1C040D8BF00F000407047E3
:1030400000F5000C5FEA4C0C48BF7047B0F1C0407F
:1030500000F073B890EA010F0CEAD11348BF42F4B4
:103060008072624538BF634504D280EA010000F0F7
:103070000040704710B500F01AF800BF8900013E0B
:1030800000F007B800F009B85FEA410C5FEA1C6C79
:1030900008D080EA010000F050B85FEA400C5FEA17
:1030A0001C6CF6D14FF00040A0F5800070470EF187
:1030B000020E2EF0030E5EF8044B244204D44FEAB5
:1030C0004102B2F17F4F11D84FEA4003B3F17F4F75
:1030D0000CD80ED14FEAD07CB2F17F4F0CEB4C0CE8
:1030E0000CF1020C08BF4CEBD17C04E04FF0080C53
:1030F00001E04FEAD17C0CEB4C0324FA03F404F01A
:103100000704B4F1040C06D20EEB840CBDE81040A9
:103110004CF0010C6047DFE80CF0070802024FF0AA
:103120000040A0F5800010BD0846420018BFD2F153
:10313000807288BF00F0004010BDFF2141EAD050EE
:10314000C005704780F0004090EA010F7FF5BBADED
:1031500081F0004100F007B890EA010F48BF81F00C
:1031600000413FF5B0AD421A04D882F00042A0EB16
:10317000020011444FEAD0524FF07F4C1CEA410F3D
:10318000A2EBD15318BF9CEA026F4AD04FF0004C1B
:103190004CEA00204CEA012121FA03FCB0EB0C0CB4
:1031A0000FD412F0FE0F36D05FEA4C001DD500128E
:1031B00040EBC25038BF70471CF03F0F18BF70473C
:1031C0000BE0A2F101025FEA1C2040EBC25038BFC5
:1031D00070471CF07F0F18BF7047C3F12003994060
:1031E00014BF401E20F00100704780084FEA1223F0
:1031F00008BF7047B0FA80FCA2EB0C02CCF1280C9F
:1032000060FA0CF093EA122F04BF00EBC250704733
:103210004FEAC3707047130A5FEADC1008BF7047BB
:10322000F6E79CEA026F04D010EA5C0F08BF0020AA
:10323000704710B5FFF73BFF40DFF63E81F00040DE
:1032400070470CF00F03092B08BF082000F05180D5
:103250000A2B0BD0082B18BF704708BF1CF0400F7B
:103260000AD04FF000004FF0000170471CF0400FF3
:1032700018BF4FF0004070471CF0100F08D020F02E
:10328000704300F07F4242EAD3014FEA4370704737
:1032900000F0604021F07F4242EA000201F07F40EE
:1032A00040EA727070474FF0FF0212EAD0521CBF22
:1032B00092F0FF038B42C2BFD14200EBC150704776
:1032C000002A0AD0002B0BD0002900F00040A4BF38
:1032D00040F0FE4040F40000704700F000407047AE
:1032E00043024FF00B0C18BF4CF0806C7FF446ADDE
:1032F00070471CF4801F11D01CF4E02F03D06FEA3C
:10330000CC31490070474FF04050EFF3008222F07B
:10331000704242EA000282F3008870474FF00000DA
:103320007047DDF9E639DE1AD5FAFFDFFFFFEE9BC5
:10333000EE5AFF5EFF5EEE5BCCF6D5B8E71CEF5EA3
:103340007371522B5A6C5A6C9BD15A6C626C5A4BEB
:10335000ACD4CD578B4F624BA3AFC4945A4B628C05
:10336000628C628C626C628C628C628C628D62ADEB
:1033700062CE630E6B3063507BB1E73CFFFFFFFF13
:10338000FFFFFFFFEF5DEF7DFFFFFFFFFFFFFFFF91
:10339000FFFFFFFFFFFFFFFFFFFFFFFFFFFFFFFF3D
:1033A000FFFFC517C517CDB9D5FAFFDFFFDFFF9EB9
:1033B000EE7BF6FCEF1CD63BD5B9CCF7DE9BF79E37
:1033C00094754A0B5A6C522B7B0E6ACD4A0AC5D7AC
:1033D000C5D8628D5A4B5A6C7AEDC4B4628C626B5C
:1033E000626B626B5A6C5A6C5A6C5A8C5A8C5A8D3E
:1033F0005AAD62EE630F6B70428E9CF4FFFFFFFFCD
:10340000FFFFEF5DDEDCFFFFFFFFFFFFFFFFFFFFC2
:10341000FFFFFFFFFFFFFFFFFFFFFFFFFFFFFFFFBC
:10342000FFFFE65AD598C4D7BCD6F75DFFBFF6FCC0
:10343000F73DF71CE6DCACF8BD59E65BDE5BDE9CD5
:10344000AD584A0B524C522C6AAD93F1AD159CD538
:1034500051EA5A4B626C5A4B7AEDC4B4626C5A6BA7
:103460005A6B5A4B5A4B5A6B5A6C5A6C5A8C5A8D2F
:103470005AAD5ACE630F635052EF5B4FF79DFFFF7B
:10348000F79EE71CFFFFFFFFFFFFFFFFFFFFFFFFB0
:10349000FFFFFFFFFFFFFFFFFFFFFFFFFFFFFFFF3C
:1034A000FFFFF77EEF1CF71DEEDCF77EFFBEDDD8D9
:1034B000EE7AEEFCDE9BB539ACB7E6BCE63BC579EF
:1034C000B5B94A4C522B522C522BCE39947349CA5F
:1034D0005A4B5A4B5A4B522B7ACDBC945A4C5A4B9E
:1034E0005A4B5A4B524B524B524B524C526C526CA1
:1034F000528D5AAE5AEE5B305B0F426DC639FFFFFC
:10350000DF1CFFDFFFFFFFFFFFFFFFFFFFFFFFFFEE
:10351000FFFFFFFFFFFFFFFFFFFFFFFFFFFFFFFFBB
:10352000FFFFFFBEF7BEFFDFFFDFFFFFF75DDDD967
:10353000EE7BE67BDE3ABD9AA497D65BF73DE65B71
:10354000C63A526D4A0B41EB6B0EC5F841EB522B5C
:10355000522B522B522B4A0B7AEDBCF5524B524B4D
:10356000524B522B522B522B522B522B524C524C11
:10357000526D528D52AE5AEF52EF3A6D8C93EF9DD1
:10358000EF9DFFFFFFFFFFFFFFFFFFFFFFFFFFFFBD
:10359000FFFFFFFFFFFFFFFFFFFFFFFFFFFFFFFF3B
:1035A000FFFFE63AF6FCFF7EFF3DFF7EFFDFFFFFF9
:1035B000F73DDDB9D5B9CE1AA476C5BAFFBFCD990E
:1035C000C5D95AEF41CA39AA9C93AD36630F49CA8F
:1035D000522B39A941CA49CA83AFC5B849EA522B0F
:1035E000522B522B4A0B4A0B4A0B4A0B4A2B4A2CA2
:1035F0004A4C4A6D424C4A8D52EF3A4D6B70E73C53
:10360000E75DF79EFFFFFFFFFFFFFFFFFFFFFFFFED
:10361000FFFFFFFFFFFFFFFFFFFFFFFFFFFFFFFFBA
:10362000FFFFDE1AF6FCFF3DE63AD5B9CD96EF1A5C
:10363000FFDFFF3EF75EC5DAA4B8ACD8FFBEDE5CA4
:10364000BD796B303169524C8C5362EE94B4398938
:103650004A0B3168398939899C72B5974189522B57
:103660004A0A4A0A49EA49EA4A0B420B420B4A0C07
:103670004A4C422C31CA4A6C4AAF52AD8C738475A5
:10368000B5FAD6DCFFFFFFFFFFFFFFFFFFFFFFFFE5
:10369000FFFFFFFFFFFFFFFFFFFFFFFFFFFFFFFF3A
:1036A000FFFFFFFFF79EEEBCBCF7A476A349A3681B
:1036B000DDD6F73DCD979C3494129C72F75CFF7E6B
:1036C000FFBF9D1720E85AAD73B12928AD354A2CAC
:1036D00041CA316931483968B55594B439894A0AC3
:1036E0004A0A4A0A49EA41EA41EA39CA39AA41EB97
:1036F000422C31CA31A94AAE4A8E7BB17C534B1061
:103700005B929D16FFFFFFFFFFFFFFFFFFFFFFFF25
:10371000FFFFFFFFFFFFFFFFFFFFFFFFFFFFFFFFB9
:10372000FFFFE65AFFDFD5F9ACD79B6EAAA5A2E74B
:10373000A368A34992C78AC893ABACB0FFDEFFBFB2
:10374000FF7EDEFD298A41EA8C731086732E83B0DA
:10375000294839AA29273168C596739039A941EAC1
:1037600039A931683168398941CA39AA3169318941
:1037700039EB298931CA426D6B2F73D242AF533076
:1037800042CF5B71EF7DFFFFFFFFFFFFFFFFFFFFFA
:10379000FFFFFFFFFFFFFFFFFFFFFFFFFFFFFFFF39
:1037A000FFFFB475E67ACDBA83B4B388D489C4492F
:1037B000B326A2C5A3A79AE79B48CD93FFFFFFFFBF
:1037C000FF5EF77E6330108683F04A6C18859BD0CD
:1037D00041CA294829273147C4B35A6C31482907BF
:1037E00018C618C518A5210739AA39CA3169294848
:1037F0002969212719073A0B84334ACF428D531088
:103800004B104AEFCE9AFFFFFFFFFFFFFFFFFFFFC6
:10381000FFFFFFFFFFFFFFFFFFFFFFFFF7DFF7DF08
:10382000F7DFBCD6C4D5BD37C5B3F70FFF6FFECCED
:10383000EE4BDDEAB3459A64BC4CFFDEF7BFE6FC15
:10384000E69BE65B943418C731489CB32989394715
:1038500093B018E620E73947B47339CA18A518C5DC
:1038600018C520C618C5188520E73169296931A90E
:103870004A4C4A6C422B6B6F73F23A0C320B42AEDD
:103880005B514B10B5B7FFFFFFFFFFFFFFFFF7DFF7
:10389000EFBEEFBFE7BFE79EE79FDF9FDF9FDF9FA2
:1038A000DFBFDDF6E674FF10FF4DFF6FFF4FFECC6C
:1038B000FFCEF6AACBC7AAA3D571FFBFCD98D598E6
:1038C000F73DE67BD63B420B086541C9AD5531CA91
:1038D00051C972EE08653947AC32210718A518C6E0
:1038E0001085002318C5526B8C52AD36B597B5972D
:1038F000A5158C7394B39D1483F193F28C124AAE88
:103900004AEF42F094D5FFFFF7DFF7DFEFDFE79EE6
:10391000E7BFE7DFE7DFE7DFDFBFDFBFD79FD79E88
:10392000D7BFDE14D5B2D58FFEABFF0CF6CCFE8B25
:10393000F62CE570EE12C383D54FF75EE65BF73DDC
:10394000F75DFFFFE6BC62CF10A510853188A4B3F8
:10395000522B624B49CA1084A3F0294810850843B2
:1039600031678C51CE38C6189CD4630E39EA39CAF7
:1039700018C64A2A8C7252EE2989738FDDD95B10E2
:10398000320C5B50A598EFBFE7BFD77ECF5ECF5E0E
:10399000D77EDF7EE79EE79FDF9EDF9EDF7ED77EBE
:1039A000DF9EEEFCDE9CDE33FF0CFF2DE4E8DBE760
:1039B000D3EEEE17F671E507CC08F75CE65BE67B25
:1039C000CD57E6BAEF3DBD58296918A61085188471
:1039D0007AEC8B6F726B61A9CC105A6B10649431C6
:1039E000CE799CF5528D2928108610A621282969A8
:1039F00010858C10E75CCE5AE75DE6BBB4D673D277
:103A0000ADD8E7BFE79FD73DCF1DBEDCBEDCA67BB0
:103A1000D71DFFFFFFFFFFFFFFFFFFFFFFFFFFFFC0
:103A2000FFFFDE7BCD96EE6FFF4CF64BDCC7ED4C17
:103A3000C38E61A7BCCDFE8CD446DD70F79FE65BDC
:103A4000BC11A328DE77FFDF7C12084418C618A536
:103A5000084441888ACDC36FDC73CCF4A4108C5227
:103A600031A918C6290729692928210721282949A8
:103A700010857BAFF7BEFFFFEF3DC517C63ADF9F4E
:103A8000C6DD8D176BF2E71CFFFFFFFFFFFFEFBFE7
:103A9000B6BBBEDCE79EFFFFFFFFFFFFFFFFFFFFA0
:103AA000FFFFBCD5CD54F68CFF0BEE2AF6CCF5AA61
:103AB000DE3839059BCAF64EED69DCA8DD71DD7490
:103AC000BB87B3A6AB67EEDADEDC3189106418C5BC
:103AD00018A510651084928CDC53BC123147086421
:103AE00018C518C520E62948292820E621072128DD
:103AF0002927C5F7FFFFE71CCD56B5989E1B957A81
:103B00008CD629EB42ADE73CFFFFFFFFFFFFFFFF35
:103B1000F7DFBEDCCF3DE79EEF9EF7DFFFFFFFFF45
:103B2000FFFFBD37C531FECAE64EF6CCF669FE8C06
:103B3000C5D87142AB69EE73DC68FEF0CBC6DC66BB
:103B4000EDA9EE2CDDD2C4F1FF1C8C33084418C55E
:103B500018A5108551A931268A8BB30E5A0A1084F4
:103B6000084420E62927292820E718C6212818E735
:103B70005AAC83F0DEDBC4F6DE7AFFDF9DFA6457D1
:103B8000D69B9536322CD6BAFFFFFFFFFFFFFFFF13
:103B9000FFFFFFFFDF7EDF9EEFDFDF9ED75DDF7E73
:103BA000EFBFD617E60EF6EDFF52F6ABF6EAFF349E
:103BB000EE9AC3C59A42D551E52DF64FEDF2EE329D
:103BC000F716FFBDFFFFD5B3C44CD5FA420B106406
:103BD00010A5310659EA086430E6BBB0B4119390E1
:103BE00041C9108518C618E618C6210718E731889C
:103BF00052AC5AEDC536B4F6B5B8C5F9ADB87D3896
:103C0000ADDAFFFF9D36DEDBFFFFFFFFFFFFFFFFAB
:103C1000FFFFFFFFFFFFDF7EDF9EE79ED77DDF7E9A
:103C2000D77EF6CBEE89F74BFF6BF70BFFCEFF1776
:103C3000F679FF0CED83C3EBEDB0F650FF7CF6B8E0
:103C4000F6D9FF5AFF5AF695E568D50EA49418E701
:103C50001064624B210618A5108449C8C4B38B4F69
:103C6000938FA411734F39C9210618A5084462EC3B
:103C7000528CAC93C577B5B9AD78949563705B4FB2
:103C80009537F79EFFFFFFFFFFFFFFFFFFFFFFFFDF
:103C9000FFFFFFFFFFFFFFDFCEFCD75DEFFEDFBEC4
:103CA000E7DEF669F70BEEABFFCDF76DE62DFF3BD8
:103CB000F699F653F732FF39F6B8EE33F6B7FF3B15
:103CC000E4D0DD93FF3AFF3CF6B0E5A9C42A734E79
:103CD0003147522A108518C520E608446A4ABC724A
:103CE0006ACD49E993F0C5F7BDD7A47393D0A45228
:103CF000BC32C516AD57AD3794B57BF35AEF31CA18
:103D000031EAAD76FFFFFFFFFFFFFFFFFFFFFFFF81
:103D1000FFFFFFFFFFFFDF3DF79EF7DFE7BEE7DEB8
:103D2000B71CE589B38ACD2CFFADD489DC6DFF9D2E
:103D3000FF7CFF5DFF7EFF5BFF9DF6FAF6B8FEF9A4
:103D4000C47140E482EAEE79FF39F68CC406AC0D0A
:103D500093F220E618A518C518C618C628E6620A08
:103D60008B8F9C933188084321263968736E834E6C
:103D7000A3F1630E84127BD26B5052AE3A0B29AA88
:103D8000298929A9AD76FFFFFFFFFFFFFFFFFFFF96
:103D9000FFFFFFFFDF3DE75DFFFFFFFFEFBEE79D9A
:103DA000E7DEBA44C366F70BD407CB06F694FF7D73
:103DB000FFBEFF7DFED9FEF9FF7CFF5CF6DAFFDF78
:103DC000B51481A28A258248E595FF15DD48B3C95F
:103DD000CDB84A2C086420E618C620E618A559E993
:103DE0003168528CB4D49BF141C939A7B4D3A43201
:103DF000212710A5318939EB39EA31A92989298987
:103E000031AA29A93A0AE6FBFFFFFFFFFFFFFFFFE8
:103E1000FFFFE75DDF1CFFFFFFFFFFFFFFFFDF7D11
:103E2000D75DB224DCE7F628C2E6D4CCEE94FFBE20
:103E3000FF5CFE78FED9FEF9FF5CFFBDFF5CF7BFBB
:103E4000E5EFDC83A24458C150C3F5B4F64FCC89EA
:103E5000CD13B5164A8D106420E6210621072906E8
:103E60006B0D10C621076AACB452C4F49BF2212832
:103E700010C6212718E718E721272148216829685B
:103E8000298929CA218994D3FFFFFFFFFFFFFFFF84
:103E9000F7BED6DBFFDFFFFFFFFFFFFFFFFFFFFFE8
:103EA000F7BFBBEBE547F608B3CDE60EF6B2FF9ED3
:103EB000FF5CFEB9FED9FF1AFF7CFFBDFFBEFF7E8F
:103EC000FF53FF47E4E581E48A69ED33EDB1E58C0A
:103ED000CCADB40CE6BA6B9110852927292718C7F9
:103EE000524A52AC10A618C662CD39CA18C621284B
:103EF000212818E718E619061927212821482968DA
:103F0000298921693A0A9DF7B6BAF79EFFFFFFFF9C
:103F1000DEFBF79EFFFFFFFFFFFFFFFFFFFFFFFF3F
:103F2000FFFFEF19DDADF6ADF6CFFECBF62EFF7D30
:103F3000FF9DFF7CFF3BFF5CFF9DFFBDFFBDFF9D25
:103F4000F6B9F6B3EE70E5F5FED9FEB9EE30EE0B3C
:103F5000DDB0BBE8ABAADE577BF218E62927314873
:103F600020E65AED422B734E420B18C72128210739
:103F700018E618C618E618E61907212721482989E6
:103F8000216929888D14BEBABEFBC6FBF79EEF5D82
:103F9000DF1CDEDBE6DAFFFFFFFFFFFFFFFFFFFFB7
:103FA000FFFFE6F8CDEFF710FEABFE4AF6CEF73A8C
:103FB000F6BAFF5CFFBEFF9DFF9DFF9DFF9DFFBD0D
:103FC000FF7DFEFBFEDBFEB9EE78F6B7F690F68BD2
:103FD000EE6FC4AFA349B470C5998371398918C60F
:103FE0003168630D9472318918C62928210718E7B2
:103FF00018E618C618E618E61907212721481907F8
:1040000031A8A555BF1CCEDBDF5DEFFFDF5DCE998C
:10401000E73CCDF7F699E6BAFFFFFFFFFFFFFFFF92
:10402000FFFFF7BEEED1F5E6F5C7FF2EFFF4F71858
:10403000F71CFF9DFF5CFF7DFFBEFFBEFF9EFF9D47
:10404000FF9DFF9DFF1BF678EE78F6D4F6B1EE0DDE
:10405000DD49C3A7BC6DBCD2C556D557C5159472F2
:104060006B4E318839685A4B20E7210718E718E66C
:1040700018C618C618C618E6210718E610C6630D3C
:10408000DEDAD75DB6BBF79EE75DDF7DE77ED73C26
:10409000CE9ADDF6FEFAE5D5F79DFFFFFFFFFFFFA5
:1040A000FFFFFFDCEDECEDADE634DDF4D614CD9290
:1040B000F73BFFDFFFFFFF7DF6DAF6FAFFBEFF9D5D
:1040C000FF9DFF9DFF7DFF5CF73BEE77EE2FED89B7
:1040D000D426E485D528AAC5BBEBD533EE79FFFFFE
:1040E000D6DC73B02927522A4A8C18A6210718E774
:1040F00018E618C618C610A510C6420A9492F7BE54
:10410000F7DFC6FBBEBAFFFFFFFFC69ACEBAEFFFCE
:10411000BE18EE58FED9E5D5EF5CFFFFFFFFFFFFAD
:10412000FFFFE6B6E615DE3ACD78C4F6C557D5D121
:10413000EEB8FF9EFFBEFFDEEE99EDD5FFBEFF9D00
:10414000FF9DF73CFF9DFF5CF71BEE73EDEAF6A9C0
:10415000DC46E4E6FEE9D446C3A4B326B3CAB3EC16
:10416000CD11EEBBC5986AAD8BB0424B108518A639
:1041700010A618C62927524B9C73E6BBF7BEFFFF5B
:10418000EF7DBEDBDF1CFFFFFFFFDEBB9DB6B6FA97
:10419000C617FE98FEB8E5B5C678F7DEFFFFFFFF4D
:1041A000FFFFC4D4BCB5BC748B50832CDD6BF62BE5
:1041B000C552FFBEFF7DFF9DFF7DFF9EFF9EFF9EC0
:1041C000FFBEF6DBF71BFF7DFF7AEDCDF62AFF2C55
:1041D000DCA7EDC7FEE8E56AEDE9EDC6E485D4A409
:1041E000B388C558CD78C537C516CDB8B556B5B75F
:1041F000C618C5D8AC94CD78D63AF79EFFFFFFFF1E
:10420000E77DBEBBEF3CFFFFEF1DD618F7DEBE9982
:10421000D637FE98FE98DD94A615BEF8CEFAE77D57
:10422000EF5DE65ADDF872EE9C4CF6ABEE69628803
:104230003128C595FF7DFF9EFFFFFFFFFFDEFF7D5D
:10424000FF7DF77AE632F714F6CFDCA8E569EDA832
:10425000D487F688FF49F68ADD6CF727B406F5E7C0
:10426000E588BCB1C537C578BCF7DE19E6DBF71DBC
:10427000DE5BB518C558DE7ADE79FFFFFFFFFFDF92
:10428000C6FBC6BAFF1CFFFFCDB7EF5CFFFFE73CE4
:10429000EE99FE98FE98D574DF1BDF7CD73BD6FAEB
:1042A000E6DAFF7E8C544208F710FF2C5AC7002430
:1042B0000864108441C862CC734F734F836FCCF392
:1042C000E633E5CDF64CFEEEF68CE5CBE506E504EF
:1042D000DCE9EEB5F6CBFEC7E5C8E62739A57307DE
:1042E000DD46CC459AC68AAAC48E834C5209838E79
:1042F000A4F6A579CDB9ED57F67AFF9EFFFFEF9EA4
:10430000BEFBC6BBFFFFD659DE59FFFFFFFFD679C4
:10431000F6DAFE98FE77D595FFFFFFFFFFFFFF7DE2
:10432000FEFAB4F539AA522D8388D62B10A618C5EB
:10433000292639A818E6108610A608457B2FCD57E8
:10434000BCF59B11CC30EDD4E54FEDE9EDE7EDE6A2
:10435000E4E7E5F8DDF8DE0CC5268366210620C615
:1043600062E78327EDA79B46BC29BCEC5A483986F7
:1043700062EBC5F7DD16ECB6F6DBF77DFFFFE75D18
:104380009E5A9DF9EE9BD5B7FFFFFFFFF7BEDE7982
:10439000FEFAFE98EE16DE58FFFFFFDFF75CFF3CEB
:1043A000FE3662ED39A941EB316762E8294841E9FF
:1043B0004A0929482929318A318B41EBBCB5CD788E
:1043C000DE1AD5DACC93E617EE9ADC87F648F68843
:1043D000DD0BBC745A6B20C572E54A2739893168F8
:1043E000316718C65A2683866A8693CB730A522A87
:1043F000522D5A6D9B10D3F3FF3DF77DEF1CDF1C50
:104400008D777CD6B494F77DFFFFFFFFE6FBE6DAFD
:10441000FEB9FEB8DD94E6FBFFFFEF1BFF3CFE7824
:10442000FE157BD141EB210721282107316839A9ED
:104430003169318A39AA31AB31AB318A7330D6391F
:10444000FFFFFFFFE618EE79F75EDDB5CC07EDA5BF
:10445000E5496A693104312620C541A839C939A91D
:104460003989318918C641CA5A8E2928292639A87E
:10447000522C527062B1AB92E67AD69AE6FBEF3DCF
:10448000D6BBB556C6BACEDAF79EFFFFDE99FF1B44
:10449000FE57FE98CD54FFDEE6FBF6FBFE98FE16B7
:1044A000FE78ACD66B1018C629272928316931AAA5
:1044B00039AA39AA31AA31AA31AB318A2109318905
:1044C000DEBAFFFFCD97E699D5FADDF6F60BDD04EF
:1044D000F5859B255249CE17BD1539A939A939A9AA
:1044E000398929278BF1CE3A6B31210808650844B8
:1044F000084410A529485A6DC5D7EF9DCDD9BCF603
:10450000E71CD6DAC5F9B495C5F8CE99E6BAFEDA55
:10451000FE77F616C574E75DE699FEFAFE36FE787C
:10452000FDD5AD18318A108420E6294831AA31AA78
:1045300031AA31AA31AA31AA31AB318A2949086599
:1045400062ACFFBEFFFFFFFFCD79AC33BC28ED6549
:10455000F5C6A2E4A451FFFFE65A49CA318839A939
:104560002948732FD63B4A6D10A62928520B72EEAC
:1045700083916AAE39893147E6FAF79EAC55C53763
:10458000D679E6FBCDB9A3B3C578BDB6F73CFE78C6
:10459000FE98E5B4E6FBCE38F71BFE78FE57FE37F3
:1045A000F5B4A4F818C620E5316939AA39AA31AAA8
:1045B00031AA31AA31AA31AA31AA31AB296A18E746
:1045C00008444A0AB556BDB862CE086549A7B2E6A6
:1045D000E5B2CD76BBD1E659FFBEACB431693169E5
:1045E0003989BD98631010865A8DB4D5DE7AF73DAF
:1045F000FFDFEF3DBD17A3D2EF5DE71DBD37D5F956
:10460000DEDBFFDED63AB4B5C577EEFBFF1BFE5707
:10461000FE98EE17D659E6BAFF1BFE36FE57FE1679
:10462000FE576B5020E639A939CA39AA39AA39AAE6
:1046300031AA31AA31AA31AA31AA31AA31AB318AC1
:10464000318A19081085106400035A6ADE9BB4553C
:10465000BC54EEDBAB8ED556EEFCDDF95A4C21078F
:104660002948420B2928A4D4F77EFFDFE73CEF7DE1
:10467000F7DFD65ACDD9D619EF1CEF7EC578DE7A92
:10468000E73DD63AC598BD37DE7AFF7CFE57FE98E7
:10469000FE57B451D5F7FF5CFE36FE57FE37FE37A6
:1046A000FE786310316841CB39CA39CA39AA39AAB0
:1046B00031AA31AA31AA318A31AA31AA31AB318A61
:1046C000294918E710A5212818C793D0FF9EE6DCDA
:1046D000C4D6DCCABBE341486A2C622C292873701B
:1046E00052AE1065ACF4FFFFF7BEEF7DEF3CEF7DFF
:1046F000DE9BBCF6BD16EF5DDEDCBCF6BCD5B4536C
:10470000B452BCB3BC94BC32EEBAFEB9FE36FED98C
:10471000DD12CD54FF7CFE37FE57FE57FE57FE9844
:10472000F6165ACE39AA39CA39CA39CA39AA39AAA3
:1047300039AA318A318A318B31AB318A214821073C
:10474000210818E71064210721082907A3F1FF5D5C
:10475000ACD5B325E44559C510A720E741EAC5D932
:10476000420D6AEDFFBEF79EF77EEF5DEF3CF7BEB0
:10477000C598BD16AC75A3B1D535E5D7F678F678F2
:10478000F699F678ED94EE57FED9FDF5FE98FE57B2
:10479000EE58FF3BFE57FE78FE78FE77FE98FE3619
:1047A000E57439A939CA39CA41EB39CB39CA39CA92
:1047B00039CA31AA294929292128210718C62108DF
:1047C0002128210718A62108210818E73127BC94C1
:1047D0005A6DABE8F547DD485207084583717BB356
:1047E0003989EEDBF7BEF79EEF3DEEFCE6BBF7BE88
:1047F000DEDCA3F3BCB2EDF6FF5CFFBDFF9EFFDE87
:10480000FF5CF5F5EE58FEFAFE15FE36FE77F6155E
:10481000FEB9FE77FE57F5B5FE57FE77FDD5E533B9
:10482000F69820E52906292720E6210729282928A6
:10483000210829484A6CB5976B91106520E721083B
:104840002969296918E721072107210718E7418904
:1048500021089BE9F588F68BF68DA48C7B932108C3
:10486000ACD3FFBFF79EEF3CEF7DF77DEEFCDE9A09
:10487000E71CA3F1E574FF7CFF7DFF7DFF7DFF7DDD
:10488000FE98FEFAFFBEFE78FDF5FDD4FD73FDF542
:10489000FDF5FDB4ED11ECF1F5D4FDF4F5B4FE57E2
:1048A000FEB97B6EB576B5979CD47BD06B2E6B4FE3
:1048B0008C52CE59F79DFFDFBE3918E720E73169EA
:1048C00039CA31AA210721072107210720E718E665
:1048D00018A641E7A409CD6CDD8DFE4EACAC29478E
:1048E000EEFBF79EEF7DEF5DF7DEF7BEF79EF79EDE
:1048F000D659CC70FE98FF3CFF7DFF7DFF7DFF5CAD
:10490000FF5CFF9DFF1BFE16FE15FE15FDF5FE3636
:10491000F594F532F5F5FE56FE36FE57FE98ED534A
:10492000CC91FFFFFFFFFFFFFFFFFFFFFFFFFFFF38
:10493000FFFFFFFFFFFFFFFFDEFC39EB210839CB54
:1049400039CB318A210720E718C618A518C520E6FB
:1049500020E618C629472967522862068B476AABAA
:10496000EF1CF7BEEF7DF7BEE6DCB4D6BCF6BD1794
:10497000C472F593F678FF5CFF7DFF7DFF7DFF7DC0
:10498000FF7DFF7DFEB9FE16FE16FE36FE77FE5752
:10499000FE57FE98FEB9FE78FED9FEFAAC10830DE4
:1049A000D576FFFFFFFFFFFFFFFFFFFFFFFFFFFFCA
:1049B000FFFFFFFFFFFFFFFFFFFF6B91294939CB8F
:1049C00039CB318920E718C61084108420E62907E6
:1049D00020E620E618C618A518C6108518A472ABE4
:1049E000D619EF5DEF7DF7BEDEBBB4B6BCF6B4966C
:1049F000ABD1E511FE78FF5CFF5CFF7CFF7CFF7CA8
:104A0000FF7CFF5CFE57FE15FE36FE98FEB9FE9950
:104A1000FE98FE99FEB9FED9F637830C290641C9E6
:104A20008BAFFFFFFFFFFFFFFFFFFFFFFFFFFFFF5A
:104A3000FFFFFFFFFFFFFFFFFFDF7BF231AA39CB54
:104A400039CB296818C610841084210729482948C1
:104A5000210720E618C5316862B018C6106451EA13
:104A6000BCD6CDF9EF5DEF7DF7BEF79EF79EC598FA
:104A70008AEFCC50FE98FEDAFF3BFF7CFF5CFF5CC8
:104A8000FF7DFEFAFE36FE77FE78FE37FDF5FDF57A
:104A9000FDF5FDF5E574A3CF49C818C639A941E96C
:104AA00041C8FFFFFFFFFFFFFFFFFFFFFFFFFFFF0B
:104AB000FFFFFFFFFFFFFFFFFFDF843339AA39CB82
:104AC00039CB294810A5106420E6316829482948C7
:104AD000210720C620C572D0522E18A5108541A8E6
:104AE000A3F3BCD6E6FBF79EF7BEF7BEE6DCC577C0
:104AF000C578B432FE57FEB9FF5CFF5CFF5CFF7CFB
:104B0000FF3CFE77FE77FE57FE15FDD4FDF4FDD485
:104B1000ED73E533834F2948210729473147314653
:104B20003987FFFFFFFFFFFFFFFFFFFFFFFFFFFFD3
:104B3000FFFFFFFFFFFFFFFFFFDF8CB539CB39CA57
:104B400039CA2107108410A429272948292829288F
:104B5000210718A5624D6AD118A518A520E639C904
:104B600062ADA3F2E6BBEF7DF77DEF3DDEDBEF1C30
:104B7000D63AB431FE77FF1BFF5CFF5CFF7CFF3B46
:104B8000FE98FE57DD54DD54DCF3ED94D4F3DDD50F
:104B9000D597CCD55A6C294820E6210629063988B4
:104BA0004A0AFFFFFFFFFFFFFFFFFFFFFFFFFFFFBF
:104BB000FFFFFFFFFFFFFFFFFFFFB5B941EB39CB61
:104BC00039CA18C6108418E6210729272927294839
:104BD00018C649A98352212718A518A5316841CACA
:104BE00039A9628DC577EF3CE6FBEF5DEF5DCDB88F
:104BF000B4B6D4F3FF1AFF5CFF5CFF3BFE99FE786E
:104C0000FE78BC72AC13BD179B92D5D9B516DE18D1
:104C1000DD57AC113168210620C52906398841C904
:104C200049C9FFFFFFFFFFFFFFFFFFFFFFFFFFFF80
:104C3000FFFFFFFFFFFFFFFFFFFFC65A4A4D39CBC3
:104C40003189108420E621062106294729272107DA
:104C500018C5520B41CB10A418C5210639CA39C951
:104C600039AA39CA7B0FCD77E6FCF7BED63AA3F452
:104C7000B453F678FF7DFF3CFEDAFE98FEB8F65797
:104C8000BC72A3D2AC14B4B4C577C536D618DDB7A0
:104C9000DCF5628C18E62106290631673968398807
:104CA00041A8FFFFFFFFFFFFFFFFFFFFFFFFFFFF29
:104CB000FFFFFFFFFFFFFFFFFFFFE73D630F31AA8D
:104CC00021072106294820E62106292720E641EA76
:104CD000290720E618C518C518C539A839CA39A941
:104CE00039AA318939A98B70BCB5E6DCD65BA3F251
:104CF000E5F7FF9DFF1BFEB9FE77EDF6CCF4A3B000
:104D0000AC33BCD6A3F3C536FF7DF6FCF6DBDD562F
:104D1000BC3339A92948210629273127314739676A
:104D20003988FFFFFFFFFFFFFFFFFFFFFFFFFFFFD0
:104D3000FFFFFFFFFFFFFFFFFFFFFFFF94943148DE
:104D4000526C3189210720E618C631478370A4755B
:104D5000292718C518C518C5316739C939A939A90E
:104D600039A93169210739A98350BD15E69AEE7931
:104D7000FF7CFEFAFE78DD75B432AC12A413AC34BD
:104D8000CD77DE5BA454D5B7F6FCF6DBEE7ADCF625
:104D90007AEE2127290721062907292731273147BC
:104DA0003968FFFFFFFFFFFFFFFFFFFFFFFFFFFF70
:104DB000FFFFFFFFFFFFFFFFFFFFFFFFB5B7BDB81E
:104DC0007BD22107292718C5520AAC95941339AA1A
:104DD00020E620E618C5314739C939A939A939A9CA
:104DE000316921282927210810A593CFFF1BFF1B1C
:104DF000FEB9F637DD96C578AC34C516AC54C55748
:104E0000EEDCD5F9CD97F69AEE9AEEBBEE19BC33EF
:104E10003169210721062106210629062927312784
:104E20003147FFFFFFFFFFFFFFFFFFFFFFFFFFFF18
:104E3000FFFFFFFFFFFFFFFFFFFFEF5DEF5CFFDF07
:104E40009C7693F3526D10846AAD5AAD20E620E64D
:104E500020E620E5316741A9398939A939A9318985
:104E60002928210720E7316893F0FED9FEB9FE9882
:104E7000F637B432B4B5B4B5B3D3C454DDD8E659BB
:104E8000E65AEE5AEE7AEE5AEE5AEE7AEDF972AE34
:104E900010C6210620E621062106292729272927D1
:104EA0003127FFFFFFFFFFFFFFFFFFFFFFFFFFFFB8
:104EB000FFFFFFFFFFFFFFFFF79EEF5EFFFFA4F680
:104EC000526D5A8D318920E6210620E629262906D1
:104ED0002926398839A9398939893989318929486F
:104EE000210721072927CD95FF5BFEB8FED9F6578C
:104EF000AB90928F9AF1AB31B393BBF3DDB8E63A46
:104F0000E619E619E619E619E639EE5ACCD5418AD2
:104F100018E620E620E618C618C518A520C52927DA
:104F20003967FFFFFFFFFFDFE71CE73CE73CFFFFC0
:104F3000FFFFFFFFFFFFEF7DE6FCF77EDEDD526C3B
:104F4000108418C620E62927292729272926316811
:104F500039893989398839893989318931682927E5
:104F6000210721062927730D9BCF9BCE8B8D8AAC01
:104F7000CBD3C3D3C3B3C434CCB6D557DDF8DDF936
:104F8000DDF9E5F9E5F9DD97DD77D516AAF141AB55
:104F9000196910E6108520E549C8730D9BF0BCD354
:104FA000D576FFFFFFFFCE59DEFBEF7DF79EFFFFBB
:104FB000FFFFFFFFFFFFDEDBEF3CEF7DE73DCE7A3B
:104FC000A5145ACC41E9292720E5316739A939A927
:104FD0003988398831883188318831682927210713
:104FE000210620E6212718C6000300230044188468
:104FF000AB10CBF4CBF4CC34D4D6D578DDB8DDD837
:10500000DDB8DD98D557D517C454A2B09A4F71ECCE
:10501000418A6ACDA431D556EE18F639F639EE1824
:10502000E5F8FFFFFFFFF79EFFFFFFFFFFFFFFFF1A
:10503000FFFFFFFFFFFFFFFFFFFFFFFFFFFFFFFF80
:10504000FFFFFFFFB5B741C9108420E5292731884C
:1050500039A931883188318831682947210620E60D
:1050600020E620E6292818E60863214731AA0864CB
:105070004107BB31C3D3C3D3C434CCD6D557D577BE
:10508000D537CCB6CC75CC34CC14AAF09A2DA24E20
:10509000CC54EE18EE19E5F8E5D8DDB7DDB7DDB78D
:1050A000EE18FFFFFFFFFFFFFFFFFFFFFFFFFFFF08
:1050B000FFFFFFFFFFFFFFFFFFFFFFFFFFFFFFFF00
:1050C000FFFFFFFFEF9E9CB3316818A418A418A43B
:1050D00021063168316831682948210720E620E639
:1050E00020E620E62928108410843A0C298A18E743
:1050F00008645969B331C3D3C414CC95CD17CD1707
:10510000CC95CC55C414C3F4CBF3BB52920CBBB2B8
:10511000E5D8DD97DD97DD97DD97DDB7DD97EDD835
:10512000B4B4FFFFFFFFFFFFFFFFFFFFFFFFFFFF25
:10513000FFFFFFFFFFFFFFFFEF3DDEDBEF5DFFDF68
:10514000FFFFF7BEDEBAE71D528C108420E520E693
:1051500018A418C529473168292720E620E620E64B
:1051600018C6210720E70843210729CB2149212818
:1051700018C61065698AAB31C3F4CC95CCF6CCB6B1
:10518000C455C414C3F4C3B3C3B3B352922DB331E3
:10519000CC75DD77DD77DD97DD97DD97E5B7AC5230
:1051A0004A4AFFFFFFFFFFFFFFDFFFDFFFFFFFFFB9
:1051B000FFFFFFFFD67A9C737B6F6AED7B6FA4B411
:1051C000CE39CE3A83F24A4B2906292618A418A4D0
:1051D00020E618C520C529272948210720E620E612
:1051E00020E62928108510632107190719072108CF
:1051F000212818E720C6698B9AD0BBF3C475C47503
:10520000C434C3F4BBB3C3B3C3B3AAF0922DAB1180
:10521000BBB3D536DD77DD77DD77DD77DD77AC5372
:105220008BF1FFFFFFDFEF5DF75DEF1CEEFCF77D1D
:10523000E6DBB5148B8F8B6F834F730E628C4A0A3B
:1052400062AC62CD398929062927292620E51084F8
:1052500020C518C51084188420E62927292721068F
:10526000210720E70843108418C6106418A52128D8
:10527000210821281928310869AC9290A312AB5259
:10528000B372BBB3BB93BB72AAF1922E9A4EAB1210
:10529000BBD3D556D577D557DD77DD77DD77E5B844
:1052A000CD16FFDFEF5DFFDFFFDFFF9EEE9BCDB88A
:1052B000A4529BD09BD08BB0836F7B0E6AAD522AD9
:1052C00039883988398829062947296829472106D4
:1052D00020E620E620C56ACA294618A520E618A5BA
:1052E00018A510A5086318C518C610641064210815
:1052F0002108210821082108310869CD8A7092B05F
:1053000092909AB09AB0926F8A2E8A0DA2D1AB1267
:10531000C475D557D557D557D557D577DD77D557D8
:10532000DD97F0F0F0F0F0F0F0F0F0F000000000A9
:105330000000000000000000000004040404040059
:105340000004000014140A00000000000000000027
:1053500000000A0A1F0A0A1F0A0A000000040E15AC
:1053600005060C14150E0400000012150D152E2C48
:105370002A1200000000040A0A361515291600003A
:1053800002020100000000000000000010080804F4
:1053900004040404080810000204040808080808AB
:1053A0000404020000000004150E0E1504000000A5
:1053B00000000008083E080800000000000000008F
:1053C000000000000202010000000000003F000099
:1053D00000000000000000000000000000020000CB
:1053E00000201010080804040202010000000E1141
:1053F00011111111110E0000000004060404040430
:10540000040E000000000E1111080402011F00002C
:1054100000000E11100C1010110E00000000080CFE
:105420000C0A091F081C000000001F01010F1110C9
:10543000110E000000000C12010D1311110E0000DE
:1054400000001E10080804040404000000000E11EF
:10545000110E1111110E000000000E11111916107D
:105460000906000000000000040000000004000025
:105470000000000000040000000404000000100808
:105480000402020408100000000000003F003F007A
:1054900000000000000002040810100804020000D0
:1054A00000000E11110804040004000000001C227A
:1054B000292D2D1D221C0000000004040C0A0A1EC8
:1054C0001233000000000F12120E1212120F000011
:1054D00000001E1101010101110E000000000F1259
:1054E00012121212120F000000001F120A0E0A02FE
:1054F000121F000000001F120A0E0A02020700001D
:1055000000001C1201013911120C000000003312BE
:10551000121E12121233000000001F0404040404BF
:10552000041F000000003E080808080808080907D2
:10553000000037120A060A121237000000000702A4
:1055400002020202223F000000003B1B1B1B15153C
:105550001535000000003B1216161A1A121700002B
:1055600000000E1111111111110E000000000F1298
:10557000120E02020207000000000E111111111795
:10558000190E180000000F12120E0A121237000036
:1055900000001E1101060810110F000000001F1569
:1055A00004040404040E000000003312121212124C
:1055B000120C000000003312120A0A0C040400004E
:1055C0000000151515150E0A0A0A000000001B0A36
:1055D0000A04040A0A1B000000001B0A0A0A040449
:1055E000040E000000001F0908040402121F00003E
:1055F0001C0404040404040404041C000002020447
:1056000004040808081010000E0808080808080814
:1056100008080E00040A000000000000000000005E
:1056200000000000000000000000003F0204000035
:10563000000000000000000000000000000C121C30
:10564000123C000000030202020E1212120E0000B1
:1056500000000000001C1202120C000000181010C4
:10566000101C1212123C000000000000000C121E60
:10567000021C000000182404041E0404041E000080
:1056800000000000003C120C021C221C000302025D
:10569000020E121212370000000404000006040477
:1056A000040E000000080800000C0808080808079D
:1056B00000030202021A0A060A130000000704048B
:1056C00004040404041F000000000000000F15156E
:1056D0001515000000000000000F12121237000024
:1056E00000000000000C1212120C0000000000006C
:1056F000000F1212120E020700000000001C12120E
:10570000121C103800000000001B060202070000F7
:1057100000000000001E020C101E0000000000042B
:10572000041E0404041C000000000000001B1212F0
:10573000123C000000000000001B0A0A04040000E4
:10574000000000000015150E0A0A0000000000000D
:10575000001B0A040A1B00000000000000331212A4
:105760000C08040300000000001E0804041E0000D2
:1057700018080808080C080808081800080808088D
:1057800008080808080808080604040404080404B3
:1057900004040600160900000000000000000000DC
:1057A00000000000000000000000000000000000F9
:1057B0000000000808080808080800001818000081
:1057C00000486C24120000000000000000000000EF
:1057D0000000002424247F1212127F1212120000F3
:1057E0000000081C2A2A0A0C1828282A2A1C080843
:1057F00000000022251515152A5854545422000083
:105800000000000C1212120A76252911916E000078
:105810000006060403000000000000000000000075
:105820000040201010080808080808101020400048
:1058300000020408081010101010100808040200DC
:105840000000000008086B1C1C6B0808000000002A
:1058500000000000080808087F0808080800000089
:105860000000000000000000000000000606040325
:105870000000000000000000FE000000000000002A
:10588000000000000000000000000000060600000C
:10589000000080404020201010080804040202008C
:1058A00000000018244242424242424224180000B2
:1058B000000000080E08080808080808083E000054
:1058C0000000003C4242422020100804427E0000BA
:1058D0000000003C4242201820404042221C0000B0
:1058E000000000203028242422227E20207800007E
:1058F0000000007E0202021A26404042221C0000E4
:10590000000000382402021A2642424224180000F5
:105910000000007E22221010080808080808000075
:105920000000003C4242422418244242423C000013
:10593000000000182442424264584040241C0000E9
:1059400000000000000018180000000018180000F7
:10595000000000000000000800000000000808042B
:10596000000000402010080402040810204000003D
:105970000000000000007F0000007F000000000029
:10598000000000020408102040201008040200005B
:105990000000003C42424640201010001818000051
:1059A0000000001C225A555555552D42221C00005E
:1059B0000000000808181414243C224242E70000AA
:1059C0000000001F2222221E22424242221F00000B
:1059D0000000007C4242010101010142221C000042
:1059E0000000001F2242424242424242221F000067
:1059F0000000003F4212121E12120242423F0000FB
:105A00000000003F4212121E1212020202070000A2
:105A10000000003C2222010101712122221C000011
:105A2000000000E7424242427E42424242E700001A
:105A30000000003E0808080808080808083E0000A2
:105A40000000007C10101010101010101010110F1A
:105A50000000007722120A0E0A121222227700009A
:105A6000000000070202020202020202427F00005E
:105A700000000077363636362A2A2A2A2A6B00009A
:105A8000000000E346464A4A525252626247000012
:105A90000000001C2241414141414141221C0000C3
:105AA0000000003F424242423E0202020207000062
:105AB0000000001C2241414141414D53321C600015
:105AC0000000003F4242423E1212222242C7000022
:105AD0000000007C4242020418204042423E000086
