:020000040800F2
:10000000E006002089010008450A0008B907000839
:10001000D9070008FD040008A91600080000000028
:100020000000000000000000000000009B1100081C
:10003000A5050008000000005B0F0008B9140008C7
:10004000A3010008A3010008A3010008A301000800
:10005000A3010008A3010008A3010008C9050008C6
:10006000A3010008A3010008A3010008A3010008E0
:10007000A3010008A3010008A3010008A3010008D0
:10008000A3010008A3010008A3010008A3010008C0
:10009000A3010008A3010008A3010008A3010008B0
:1000A000A3010008A3010008A3010008A3010008A0
:1000B000A30100081915000800000000A3010008B2
:1000C000A30100080000000000000000A3010008D8
:1000D00000000000A3010008A301000800000000C8
:1000E000A3010008A3010008A301000800F002F822
:1000F00000F03AF80AA090E8000C82448344AAF188
:100100000107DA4501D100F02FF8AFF2090EBAE885
:100110000F0013F0010F18BFFB1A43F0010318473B
:100120003828000058280000103A24BF78C878C149
:10013000FAD8520724BF30C830C144BF04680C60ED
:10014000704700000023002400250026103A28BF35
:1001500078C1FBD8520728BF30C148BF0B60704739
:100160001FB51FBD10B510BD00F031F81146FFF7E7
:10017000F7FF01F0D1FA00F04FF803B4FFF7F2FFF8
:1001800003BC00F057F800000948804709480047C1
:10019000FEE7FEE7FEE7FEE7FEE7FEE7FEE7FEE737
:1001A000FEE7FEE704480549054A064B7047000094
:1001B000BD140008ED000008E0000020E00600206B
:1001C000E0020020E002002070477047704775464B
:1001D00000F02CF8AE4605006946534620F00700B3
:1001E000854618B020B5FFF7DDFFBDE820404FF091
:1001F00000064FF000074FF000084FF0000B21F011
:100200000701AC46ACE8C009ACE8C009ACE8C009DD
:10021000ACE8C0098D46704710B50446AFF30080C6
:100220002046BDE81040FFF7A8BF00000048704717
:100230008000002001491820ABBEFEE72600020026
:100240007047000070B5124E304600F041F90024AE
:100250004FF47A75304600F0D6F838B1AC4201D18F
:10026000012070BD641CA4B2AC42F3D3304600F050
:1002700040F90024304600F0BFF838B1AC4201D15B
:10028000012070BD641CA4B2AC42F3D3002070BD49
:100290000024014010B586B000F098F80121480212
:1002A00000F082FE4FF4004000F058FE184C062388
:1002B00001220021204600F0D1F80623022201216C
:1002C000204600F0CBF8062303220221204600F04E
:1002D000C5F8062304220321204600F0BFF80021C0
:1002E00001914FF460220392049101218DF80910CD
:1002F0008DF8081004218DF8141001A9204600F093
:1003000089F80121204600F017F806B010BD000062
:100310000024014010B500F059F8FFF7BBFF00F0D2
:1003200017F8BDE81040FFF78DBF0000012101481C
:1003300000F0D3B800240140002904D0816841F0C6
:10034000010181607047816821F00101816070477F
:1003500010B58CB00121084600F00AFE1248019049
:100360008015079000200590104902914FF480619C
:100370000891802106910390282104910B90202060
:100380000990C0010A900A4C01A9204600F0EDF83E
:10039000054801214C3800F00DF80121204600F0FD
:1003A000D7F80CB010BD00004C2401400C00002018
:1003B00008000240002904D0816841F48071816006
:1003C0007047816821F480718160704708B5012110
:1003D000042000F0E9FD00208DF803000F20ADF8A7
:1003E000000003208DF802006946024800F080F901
:1003F00008BD000000080140014600208968490747
:1004000000D501207047014600208968090700D502
:100410000120704710B542680E4B1A400C790B68EA
:1004200042EA04221343436082680B4B1A40D1E92D
:10043000024323434C7942EA440213438360C26A75
:1004400022F47002097C491EC9B242EA0151C1621C
:1004500010BD0000FFFEF0FFFDF7F1FF70B50726AD
:1004600009290AD9C568A1F10A0404EB4404A6408D
:10047000B543A3401D43C56007E0056901EB410496
:10048000A640B543A3401D4305611F23072A09D297
:10049000446B521E02EB820293409C4391400C43FA
:1004A000446370BD0D2A09D2046BD21F02EB820295
:1004B00093409C4391400C43046370BDC46A0D3A61
:1004C00002EB820293409C4391400C43C46270BD96
:1004D000816841F0080181607047002904D081687B
:1004E00041F4A00181607047816821F4A00181601E
:1004F0007047816841F0040181607047FEE70000A9
:1005000070B5104E042233460A210F4801F0CDF891
:100510000E4C20800C4D334604220A21A81C01F009
:10052000C4F86080334604220A21281D01F0BDF87A
:10053000A080334604220A21A81D01F0B6F8E0800D
:1005400070BD00006666663F0C00002002000020BF
:10055000002904D0016841F0010101607047016881
:100560004FF6FE7211400160704730B5026847F6E1
:10057000F0739A430C6A8B682343D1E904452C43FA
:1005800023438C692343CC6923434C6A23438C6AFD
:10059000234313430360CA6842600A688260496863
:1005A000C16030BD704700EBC000C1004FF0E020DB
:1005B000416100218161052101610169C903FCD507
:1005C000042101617047000070B5022000F02CF892
:1005D00000F004FB04462146272000F06DFB114982
:1005E000FF2C06D02CB1600605D50125012008702E
:1005F00008E0002506E0A00601D5022502E0E0069D
:1006000000D503253DB1022D08D0032D05D1BDE84D
:10061000704000F019BB0820087070BDBDE8704044
:1006200000F02EBB0A00002001490860704700005E
:100630001404014030B51B4A83790168002B2AD08D
:1006400013688B431360111D0B680468A3430B6090
:10065000017911440B68046823430B60114C083482
:100660002168036899432160231D19680568A9431F
:1006700019604179102905D011440A6800680243C5
:100680000A6030BD21680268114321601968006862
:100690000143196030BD0079104402688A4302604A
:1006A00030BD000000040140064B4FF4004100281B
:1006B00003D00122184600F079B80022184600F055
:1006C00075B80000000C014010B58A07120F0F2307
:1006D000934021F00304054921448C689C438C60BD
:1006E0008B68904003438B6010BD00000000014008
:1006F0002DE9F0410022CC7804F00F03E40601D587
:100700008C7823430C784FF00F0714F0FF0F4FF055
:10071000010C1CD005680CFA02F40E882640A64293
:1007200011D1960007FA06F825EA080503FA06F83B
:1007300048EA0505CE78282E02D0482E02D002E0E5
:10074000446100E00461521C082AE4D305600A8871
:10075000FF2A1ED94568002202F108060CFA06F4A9
:100760000E882640A64210D1960007FA06F825EA20
:10077000080503FA06F848EA0505CE78282E00D1C8
:100780004461CE78482E00D10461521C082AE3D37C
:100790004560BDE8F0810246002092680A4200D020
:1007A000012070474161704701617047002A01D004
:1007B0000161704741617047FEE710B54FF4A060DA
:1007C00000F0ECFA0121084600F0C8F90121BDE86B
:1007D0001040002000F04ABFFEE7000070B5244E34
:1007E000002030704FF46171718122494D888C88EE
:1007F00040F6FC018D4203D24FF4E16295421BD8D2
:10080000284600F00FF901222146284600F034F86E
:10081000708001222146284600F02EF8B080022286
:100820002146284600F028F8F0800222214628467A
:1008300000F022F8308170BD7080B080F08030818F
:100840008C4201D29442F6D8204600F0D9F82046D6
:1008500000F0A6F87080204600F0A2F8B080204694
:1008600000F09EF8F080204600F09AF8308170BDCC
:100870005C000020020000202DE9F041044640F613
:10088000FC03994201D3012305E0B1F5E16F01D8E2
:10089000022300E000234FF47A756BB1234F244EFE
:1008A000012B0FD0022B3ED1012A2BD02946204606
:1008B000BDE8F04100F03EB829462046BDE8F041D1
:1008C00000F038B8012A17D0A1F5166188B201F0FE
:1008D000E7FB394601F0E6FA01464FF07E5001F0A1
:1008E000C9FC314601F0F0FB01F0BAFB81B22046B1
:1008F000BDE8F04100F01EB829462046BDE8F041B1
:1009000000F018B8084601F0CBFB394601F0CAFAEE
:10091000314601F0D9FB01F0A3FB81B22046BDE8CE
:10092000F04100F007B8BDE8F08100000000E144AC
:1009300000007A4470B50D4640F6FC01174C884221
:1009400012D3A0F6FC0080B201F0AAFB214601F010
:10095000A9FA0446284601F0A3FB214601F0B4FBA6
:1009600001F07EFB80B270BDB0F5E16F14D801F0EC
:1009700097FB214601F096FA01464FF07E5001F0B8
:1009800079FC0446284601F08BFB214601F09CFBD4
:1009900001F066FB80B270BD002070BD0000E14434
:1009A00070B540F6FC01144D144C88420ED3A0F6ED
:1009B000FC0080B201F074FB294601F073FA214675
:1009C00001F082FB01F04CFB80B270BDB0F5E16F2D
:1009D00010D801F065FB294601F064FA01464FF09A
:1009E0007E5001F047FC214601F06EFB01F038FB20
:1009F00080B270BD002070BD0000E14400007A4468
:100A000040F6C4120649904202D30C204870704749
:100A100040F2DC529042FAD8032048707047000040
:100A20005C00002040F6FC020549904202D3002001
:100A300048707047B0F5E16FFBD80F2048707047E1
:100A40005C00002070470000F8B50121042000F090
:100A5000ABFA0121082000F0A7FA10258DF8035009
:100A60002C01ADF8004003208DF80200114E6946BC
:100A70003046FFF73DFE48228DF803200222ADF8F4
:100A800000200D4F69463846FFF732FE8DF80350BF
:100A90000122ADF8002069463846FFF729FE012201
:100AA00021463046FFF782FE012211463846FFF705
:100AB0007DFEF8BD00080140000C014010B5FFF7B5
:100AC000C3FF00F08BF80146272000F0F5F8214C19
:100AD000002201212046FFF769FE0021252000F0B9
:100AE000EBF805221C49302000F002F91A490522D2
:100AF000491D2A2000F0FCF80F21202000F0DCF82E
:100B00000121212000F0D8F82021312000F0D4F874
:100B10000121222000F0D0F81A21242000F0CCF886
:100B20000721262000F0C8F8FF21E22000F0C4F8D9
:100B3000FF21E12000F0C0F8012211462046FFF716
:100B400035FE052000F030F808B1012010BD00206E
:100B500010BD0000000C01404E290008FEB50446FF
:100B60000D460121084600F01FFA01210846FFF753
:100B7000ABFD0222019201268DF80A6000228DF859
:100B800008200C228DF8092001A8FFF753FD072249
:100B90008DF800208DF803608DF801408DF802502B
:100BA000684600F0C9F8FEBD70B506460A4D4FF420
:100BB0008074002221462846FFF7F8FD304600F0F9
:100BC0009FFAFF2000F09CFA0646012221462846A3
:100BD000FFF7ECFD304670BD0008014070B5094DCF
:100BE0004FF48074002221462846FFF7DFFDFF20E6
:100BF00000F086FA0646012221462846FFF7D6FD78
:100C0000304670BD0008014070B50D4C04222270C2
:100C100001462022A02000F06BF80A4D002201219D
:100C20002846FFF7C3FD0E21202000F045F80122E1
:100C300011462846FFF7BAFD0520207070BD000060
:100C40000A000020000C014010B5FF21E12000F057
:100C500033F8094C002201212046FFF7A7FD0F21A0
:100C6000202000F029F8012211462046FFF79EFDC2
:100C700002490720087010BD000C01400A00002046
:100C800010B5FF21E12000F017F8094C00220121E6
:100C90002046FFF78BFD0F21202000F00DF80122E8
:100CA00011462046FFF782FD02490620087010BD5C
:100CB000000C01400A0000202DE9F04107460E46D5
:100CC0000A4D4FF48074002221462846FFF76EFD3E
:100CD000384600F015FA304600F012FA2146284650
:100CE000BDE8F0410122FFF761BD000000080140AE
:100CF0002DE9F04104460D461646DFF838804FF4E2
:100D00008077002239464046FFF750FD204600F02C
:100D1000F7F9002404E0285D00F0F2F9641CE4B265
:100D2000B442F8D339464046BDE8F0410122FFF70E
:100D30003DBD00000008014070B50F23C2780126B8
:100D40000178002A1ED0144A126802F4E062C2F54B
:100D5000E062120AC2F10404D3404578A5408278CB
:100D60001A402A43120101F1E02181F800240078A1
:100D700000F01F018E404009800000F1E020C0F823
:100D8000006170BD01F01F0086404809800000F13D
:100D9000E020C0F8806170BD0CED00E0024908431E
:100DA00002490860704700000000FA050CED00E001
:100DB0002DE9F04707460024134D4FF080094FF40A
:100DC0000078AE1529FA04F23A4041462846FFF76A
:100DD000EDFC012231462846FFF7E8FC00223146AF
:100DE0002846FFF7E3FC641CE4B2082CEAD3012296
:100DF00031462846FFF7DAFC31462846BDE8F04781
:100E00000022FFF7D3BC0000000C014070B50122A6
:100E10000B4D540221462846FFF7C8FC012216025A
:100E200031462846FFF7C2FC002221462846FFF73C
:100E3000BDFC31462846BDE870400022FFF7B6BC35
:100E4000000C014070B50A4D4FF400740022214699
:100E50002846FFF7ABFC012211022846FFF7A6FC4B
:100E600021462846BDE870400122FFF79FBC0000E4
:100E7000000C014010B50C4640F0B00000F04BF8FB
:100E8000102040EA141000F046F804F00F00BDE80E
:100E9000104000F040B800002DE9F0411546491E11
:100EA000461ECF007006F9B2000EFFF7E3FF0024E4
:100EB0000E48203D00EB0515285D00F03DF8641C50
:100EC000E4B2082CF8D3012000EB4600F9B2C0B21E
:100ED000FFF7D0FF00242819007A00F02DF8641CD9
:100EE000E4B2082CF7D3BDE8F08100005E230008CF
:100EF0002DE9F04107460D461646002406E0281964
:100F0000C1B23846FFF7C8FF641CE4B2325D002A64
:100F1000F5D1BDE8F08110B50446FFF777FF7820E2
:100F2000FFF746FF0020FFF743FF2046FFF740FF93
:100F3000BDE81040FFF786BF10B50446FFF766FF17
:100F40007820FFF735FF4020FFF732FF2046FFF7FC
:100F50002FFFBDE81040FFF775BF7047034A516887
:100F600021F44041014351607047000000100240ED
:100F7000054A002903D05169014351617047516905
:100F8000814351617047000000100240054A00296A
:100F900003D0D1690143D1617047D1698143D161E7
:100FA0007047000000100240054A002903D09169F3
:100FB00001439161704791698143916170470000DD
:100FC00000100240064B4FF48041002803D001225C
:100FD0001846FFF7EBBB00221846FFF7E7BB0000FF
:100FE000000C0140F8B501211020FFF7DDFF0121C1
:100FF0000820FFF7D9FF10248DF803406602ADF8F2
:10100000006003258DF802500C4F69463846FFF703
:101010006FFB8DF80340AC03ADF800408DF8025033
:10102000074D69462846FFF763FB31463846FFF710
:10103000B9FB21462846FFF7B7FBF8BD0010014079
:10104000000C0140064B4FF40051002803D0002251
:101050001846FFF7ABBB01221846FFF7A7BB0000FD
:101060000010014038B501210420FFF79DFF182032
:101070008DF80300A020ADF8000003208DF80200D9
:10108000074C69462046FFF733FB04218DF8031017
:101090004021ADF8001069462046FFF729FB38BD16
:1010A0000008014010B586B0FFF7DCFF01210803FE
:1010B000FFF77AFF4FF48270ADF806000020ADF81C
:1010C0000400ADF80800ADF812002821ADF81010AA
:1010D000ADF80A00ADF80C004FF40070ADF80E004A
:1010E0000720ADF81400054C01A9204600F039F89E
:1010F0000121204600F01EF806B010BD003001406E
:1011000070B505460A4C0221204600F01FF8012860
:10111000F9D12946204600F022F80121204600F0AE
:1011200015F80128F9D1204600F017F8C0B270BDBB
:1011300000300140002904D0018841F040010180C5
:101140007047018821F0400101807047024600206D
:1011500012890A4200D0012070478089704781813E
:10116000704730B5028802F441530A884C88CD8814
:1011700022438C882C4322430C8922434C892243EE
:101180008C892243CC8922431A430280828B22F429
:1011900000628283098A018230BD704770B540F6D3
:1011A000FC01184E184D194C884211D3A0F6FC00D2
:1011B00080B200F075FF314600F074FE294600F061
:1011C00083FF214601F04CF800F04AFF80B270BD69
:1011D000B0F5E16F13D800F063FF314600F062FE16
:1011E00001464FF07E5001F045F8294600F06CFFB3
:1011F000214600F0F5FD00F033FF80B270BD4FF4E2
:10120000617070BD0000E1440000164300006144BD
:1012100070B5002140F6FC021E4E1F4D4FF4E164F4
:10122000904212D3A0F6FC0080B200F039FF3146A4
:1012300000F038FE294600F047FF0146002000F08C
:10124000CFFD00F0F1FE41B215E0A04213D800F04E
:1012500027FF314600F026FE01464FF07E5001F098
:1012600009F8294600F030FF0146002001F002F89D
:1012700000F0DAFE41B2094A9089084480B29081B8
:10128000642801D8642090819089A04200D3948181
:1012900070BD00000000E144000048425C000020F6
:1012A00070B5002140F6FC021E4E1F4D4FF4E16464
:1012B000904212D3A0F6FC0080B200F0F1FE31465D
:1012C00000F0F0FD294600F0FFFE0146002000F08E
:1012D000D1FF00F0A9FE41B215E0A04213D800F002
:1012E000DFFE314600F0DEFD01464FF07E5000F09B
:1012F000C1FF294600F0E8FE0146002000F070FD25
:1013000000F092FE41B2094AD089084480B2D081EF
:101310004FF4C871884200D8D181D089A04200D34F
:10132000D48170BD0000E144000048425C00002010
:1013300070B5002140F6FC021F4D204C904212D3A4
:10134000A0F6FC0080B200F0ABFE294600F0AAFD3A
:10135000214600F0B9FE0146002000F041FD00F0FA
:1013600063FE41B216E0B0F5E16F13D800F098FECD
:10137000294600F097FD01464FF07E5000F07AFFBD
:10138000214600F0A1FE0146002000F073FF00F0AE
:101390004BFE41B20A4A108A084480B2108242F2DF
:1013A0001071884201D300201082118A4FF4967088
:1013B000814200D3108270BD0000E1440000484229
:1013C0005C00002010B5074C0120207000206080D8
:1013D000A080E0802081608203480088FFF7DEFE65
:1013E000608110BD5C0000200200002004484FF422
:1013F000617141818181C181C821018270470000F2
:101400005C000020AFF300800CB500220192009236
:101410002748016841F4803101604FF4A0630168FE
:1014200001F4003100910199491C0191009911B911
:1014300001999942F3D10168890302D501210091F4
:1014400000E000920099012930D11A490A6842F05F
:1014500010020A600A6822F003020A600A6842F079
:1014600002020A604168416041684160416841F49C
:1014700080614160416821F47C114160416841F420
:10148000E8114160016841F08071016001688901E3
:10149000FCD5416821F003014160416841F002013F
:1014A00041604168C1F381010229FAD10CBD0000FD
:1014B00000100240002002407047000010B50F48A5
:1014C000016841F00101016041680D4A114041602D
:1014D00001680C4A11400160016821F4802101601B
:1014E000416821F4FE0141604FF41F018160FFF764
:1014F00089FF05494FF00060086010BD00100240F0
:101500000000FFF8FFFFF6FE08ED00E004210148AF
:10151000FFF741B9000C014010B50121094800F066
:1015200017F80948007801280BD1084C6088FFF7AC
:101530006FFEE088FFF7B4FEA088BDE81040FFF71B
:10154000F7BE10BD00040040000000200200002093
:10155000C94301827047002904D0018841F001018C
:1015600001807047018821F0010101807047002A45
:1015700003D082890A438281704782898A438281AB
:101580007047018921F007010181704730B5028859
:101590001B4C1C4DA0420DD0A8420BD0B0F1804F87
:1015A00008D0194B984205D0184B984202D0184BDE
:1015B000984203D122F070034A881A43154B98428F
:1015C00006D0154B984203D022F44073CA881A43C0
:1015D00002808A8882850A880285A0420AD0A842B1
:1015E00008D00E4A904205D00D4A904202D00D4AD2
:1015F000904201D1097A01860121818230BD00002B
:10160000002C01400034014000040040000800406C
:10161000000C004000100040001400400040014059
:1016200000440140004801403EB501210220FFF77F
:10163000ADFC0D4C2046FFF7A4FF0021ADF80610CD
:10164000ADF80210C722ADF8042041F61F42ADF8F4
:1016500000208DF8081069462046FFF797FF01210A
:101660002046FFF778FF3EBD00040040F8B5044671
:101670000D460C4E01213046FFF76AFF012211464C
:101680003046FFF774FF1D208DF8000001208DF813
:1016900003008DF801408DF802506846FFF74CFBBF
:1016A000F8BD000000040040FEE72DE9F047804649
:1016B000894617469A46781E38F8100000F069F9F6
:1016C00004460D4601261EE051464FF07E5000F0C4
:1016D000D1FD00F059FB22462B4600F06DF904467F
:1016E00006FB07F00D4638F8100000F0D9FC514613
:1016F00000F0EAFC00F048FB22462B4600F074F8AC
:1017000004460D46761C4E45DEDB2046294600F099
:1017100013F980B2BDE8F087FFF764FC0020FFF703
:1017200091FCFFF781FFFEF7F5FD28B1012124A20E
:101730000846FFF7DDFBF9E7FEF7F8FDFFF7B2FC1F
:10174000FFF7BCF928B1012120A20846FFF7D0FB22
:10175000F9E7FFF732F8FFF749FE204CFEF7D0FE1D
:1017600002E00120FEF71FFF20780528F9D0FFF7DF
:10177000CDFE1B49087010B1012811D108E0FFF718
:101780002DF80020FFF71EFC0120FEF78DFF07E07B
:10179000FFF718FE0120FFF715FC0020FEF784FF7D
:1017A000207828B1032803D0062801D0072802D1C9
:1017B0000C48FFF729FA0B49087D401C0875CDE756
:1017C0004144435F4572726F720000004E524632D0
:1017D000344C30315F4572726F7200000A00002095
:1017E000000000205C00002010B591EA030F48BF04
:1017F00083F0004300F1E681841A71EB030C05D2FB
:10180000121943EB0C03001B61EB0C01DFF824E120
:101810004FEA1154A4EB135C1EEA430F18BF9EEA73
:10182000445F73D023EA0E03DCF1200E21EA045159
:1018300043F4801332D322FA0CFE10EB0E0023FA8D
:101840000CFE41EB0E01CCF1200E03FA0EFE10EB64
:101850000E0051F10001B1F5801FCCF1200E32D203
:1018600001EB045112FA0EF2BDE8104058BF704768
:10187000401C38BF5FEA420218BF7047002814BFFF
:1018800020F0010041F100014FEA410313F5001F70
:1018900038BF7047A1F1C04100F086B9012A43EB7F
:1018A0000302ACF1200CDCF11F0E32BF4FF0000E32
:1018B00023FA0CF310EB030041EB0451B4EB115F7E
:1018C000D0D0A1EB045101F5801149085FEA300046
:1018D00001EB04510ED350F1000038BF12FA0EFE96
:1018E00008D1BDE81040C9E7401C38BF5FEA42029A
:1018F000CAD1C3E7BDE810404FEA410313F5001F0A
:1019000038BF7047A1F1C04100F04EB99EEA445F74
:1019100008D011EA5E0FBDE8104004BF01F000419D
:1019200000207047BDE8104070B500F0EFF800BF30
:1019300064FBBE3E0000E0FF4FEA1153A3F5806355
:10194000D3F11E03A8BFD3F1200C08DB4FF00042F7
:1019500042EAC12252EA505232FA03F07047094279
:101960000BD4102BC4BF0020704703F5787CBCF16A
:10197000FF3F05D04FF0FF3070474FF00000704739
:1019800070B500F0C3F800BF499224800020704772
:10199000F0E7B0FA80F310FA03F10AD0C3F11D03A7
:1019A00003F580634FEA41504FEA035202EBD12125
:1019B00070474FF000007047DFF848C170B51CEA6F
:1019C000111E1EBF1CEA13159EEA0C0F95EA0C0FA0
:1019D00000F06F8081EA030423EA4C134EEAD47EC0
:1019E00021EA4C1141F4801143F48013AE44A1FB71
:1019F000024CA0FB0365AEF17F7E361955EB0C055A
:101A0000A1FB034C4CF10003A0FB021C16EB0C06DF
:101A1000654153F10003094218BF46F0010613F473
:101A2000007F0BD14FEA03314FEA0530340341EA1E
:101A3000155140EA16506FF003020AE04FEAC32145
:101A40004FEAC520F40241EA555140EA56506FF082
:101A5000020202EB2E4201EB025585EACE710AD05A
:101A60005FEA440C18BF24F0004450F1000041F13B
:101A7000000120EAD47040F2FE7C624500D270BDC5
:101A8000A84214BF4FF080444FF04044002E08BFDE
:101A90000024BEF1806FA8BFA1F1C041BDE8704035
:101AA00080F282804FF0000001F1C04101F000415E
:101AB00070479EEA0C0F0CEA131518BF95EA0C0F3D
:101AC00006D04FF0000081EA030E0EF0004170BD19
:101AD00000F01CF88900013E00F007B800F009B8DA
:101AE0004FEA430C5FEA5C5C08D081EA030100F036
:101AF0005BB84FEA410C5FEA5C5CF6D14FF0000046
:101B0000014970470000FF070000F87F0EF1020E48
:101B10002EF0030E5EF8046B364205D4012A43EB27
:101B2000030515F5001F12D8012841EB010C1CF527
:101B3000001F0CD80ED14FEAD17C15F5001F0CEB1D
:101B40004C0C0CF1020C08BF4CEBD37C04E04FF0C2
:101B5000080C01E04FEAD37C0CEB4C0526FA05F6A5
:101B600006F00706B6F1040C06D20EEB860CBDE8B3
:101B700070404CF0010C6047DFE80CF0090B0202EA
:101B80004FF000414FF00000A1F5002170BD194653
:101B90001046012851EB010418BFD4F5001484BF8E
:101BA000002001F0004170BD0808A0F500114FEAC7
:101BB0003101704710B591EA030F48BF83F000432D
:101BC0003FF51AAE841A71EB030C07D212198CF090
:101BD000004C43EB0C03001B61EB0C01DFF8A4E1AC
:101BE0004FEA1154A4EB135C1EEA430F18BF9EEAA0
:101BF000445F00F0B08023EA6E03524221EA0451B0
:101C0000C3EB6E0338BF5B1EDCF1200E25D322FA36
:101C10000CFE10EB0E0043FA0CFE41EB0E01CCF172
:101C2000200E03FA0EFE10EB0E0051F10001CCF174
:101C3000200E29D412FA0EF201EB0451BDE8104037
:101C400058BF7047401C1CBFB2F1004F70470028BE
:101C50000CBF491C20F00100704712EB020E43EB51
:101C6000030218BF4FF0010E4EEA4202ACF1200C05
:101C7000DCF11E0E54D943FA0CFE10EB0E0051F1AC
:101C8000FF31CCF11E0ED5D50EF1010E12FA0EFE6B
:101C9000404141EB010101EB445C5FEA5C5C10D91F
:101CA00010EBDE7001EB045138BFBEF1004FBDE810
:101CB000104018BF704700280CBF491C20F00100DD
:101CC000704730D24FEAD42C11F5001124F400648F
:101CD0001BD0B1FA81F20B3AA41AA41ED2F1200350
:101CE000914030FA03F31943904001EBCC71002C82
:101CF00001EB0451BDE81040A8BF704701F1C0419D
:101D00004FF0000001F000417047B0FA80F310FA84
:101D100003F100D110BDE41A173C4805C90AE4E7F5
:101D200001EB045110BD491001EB0451BDE8104016
:101D30004FEA300002E04FF0000170474A0008BF50
:101D40000042F8D0B2F5001F28BF704701F00041F3
:101D50004FF0000070479EEA445F07D011EA5E0F23
:101D6000BDE8104004BF002100207047BDE81040CE
:101D700070B5FFF7CBFE00BF40DFF63E83F00041B9
:101D8000104670470000E0FF43004FEAD30C4FEAD3
:101D90003C0C43401FBF40070CF1605113F0FE4F55
:101DA00070471CF0006F03D100200CF00041704719
:101DB0000CF0004343EA507010B540EACC0000F04C
:101DC00004FA00BF000000924FEA0001FFF7ECBEEA
:101DD0004FF000414FF00000A1F5002170470000D6
:101DE00090EA010F48BF81F0004100F14A82421A97
:101DF0003CBF801A89184FEAD0524FF07F4C1CEA42
:101E0000410FA2EBD15318BF9CEA026F00F03B8058
:101E10004FF0004C4CEA00204CEA012121FA03FC6F
:101E200010EB0C0C1ED202F1FF325FEA1C2040EBDB
:101E3000C25038BF70471CF07F0F4FEA400C18BFEC
:101E4000BCF17F4F38BF7047C3F12003994008BFF2
:101E500020F00100BCF17F4F38BF7047A0F1C040B7
:101E600000F0F9B94FEA3C00000A40EBC25028BF2D
:101E70001CF0FF0F4FEA400CE6D018BFBCF17F4FBB
:101E800038BF7047EAE79CEA026F05D010EA5C0FA2
:101E900008BF00F00040704710B500F096F900BF91
:101EA00064FBBE3E4FF47F0C1CEAD0121EBF1CEA3E
:101EB000D11392EA0C0F93EA0C0F00F0858090EAA0
:101EC000010F48BF42F4807240F4000C41F400005E
:101ED0002CF07F4120F07F4000B58142A2EB03024D
:101EE0000FF2081CACEB504EC0F100009EF800E071
:101EF0004FEA4E0E00FB0EFC38BF49004FEA2C1C87
:101F000002F5FA020CFB0EF34FEACE1E4FEA112C3B
:101F10004FEAC1210EEB635E42EB22420EFB0CFC4A
:101F20004FEA1C5300FB03114FEA112C4FEA013119
:101F30000EFB0CFC4FEADC4C00FB0C11C14228BF2D
:101F400009184CEB03335DF804EB10EB410143EB54
:101F5000C250B2F57C0F38BF704729D512F0F00F90
:101F60001CBF00F1C04000F0004070470081828338
:101F70008485868788898B8C8D8E8F919293959698
:101F800097999A9C9D9FA0A2A3A5A7A8AAACAEB022
:101F9000B2B3B5B7B9BCBEC0C2C5C7C9CCCED1D427
:101FA000D7D9DCDFE2E6E9ECF0F3F7FAFE00000057
:101FB0004FEA400C0CF1807CBCF17E4F28BF70478B
:101FC000B0F1C04000F047B990EA010F0CEAD1131C
:101FD00048BF42F48072624538BF634507D213F4AC
:101FE0007F0F16D080EA010000F00040704710B566
:101FF00000F0EBF8097EFC3E00F005B880EA010035
:1020000000F00040704780EA010000F0004000F05E
:1020100022B912F47F0F04BF0248704780EA010022
:1020200000F019B90000C07F41000B0ED3F19E02F1
:1020300008D950F400034FEA032323FA02F048BF03
:102040004042704710B500F0C0F800BF49922480AC
:10205000002070476FF0004282EA200070470000C5
:10206000C10DD1F19E0206DB4FEA002343F000438D
:1020700023FA02F07047004207D54FEA4001B1F160
:10208000FE4F02D24FF00000704710B500F09DF8EF
:1020900049922480002070476FEA200070470000BA
:1020A000B0FA80F310FA03F2C3F19D030AD0D90508
:1020B00001EB1220530638BF704700F1010008BF42
:1020C00020F00100704700004FF47F0C1CEAD01292
:1020D0001EBF1CEAD11392EA0C0F93EA0C0F00F01A
:1020E000478090EA010F48BF42F480724FF0004CE5
:1020F0004CEA00204CEA012102EB0302A0FB011391
:10210000A2F50002002918BF43F001035B0028BFBD
:102110004FEA330342EB22425FEA132C4CEBC250EE
:102120002EBFBCEB436FB2F57C0F70474FEA036CD8
:10213000BCF1004F08BF20F00100B2F57C0F38BFA2
:1021400070470BD582F0FF0212F5803FC8BF704781
:1021500000F1C040D8BF00F00040704700F5000C0F
:102160005FEA4C0C48BF7047B0F1C04000F073B854
:1021700090EA010F0CEAD11348BF42F48072624525
:1021800038BF634504D280EA010000F00040704788
:1021900010B500F01AF800BF8900013E00F007B842
:1021A00000F009B85FEA410C5FEA1C6C08D080EAD5
:1021B000010000F050B85FEA400C5FEA1C6CF6D1F9
:1021C0004FF00040A0F5800070470EF1020E2EF097
:1021D000030E5EF8044B244204D44FEA4102B2F1EC
:1021E0007F4F11D84FEA4003B3F17F4F0CD80ED187
:1021F0004FEAD07CB2F17F4F0CEB4C0C0CF1020C8F
:1022000008BF4CEBD17C04E04FF0080C01E04FEA32
:10221000D17C0CEB4C0324FA03F404F00704B4F172
:10222000040C06D20EEB840CBDE810404CF0010CFF
:102230006047DFE80CF0070802024FF00040A0F50D
:10224000800010BD0846420018BFD2F1807288BFDE
:1022500000F0004010BDFF2141EAD050C00570479A
:1022600080F0004090EA010F7FF5C1AD81F00041A0
:1022700000F007B890EA010F48BF81F000413FF538
:10228000B6AD421A04D882F00042A0EB020011441D
:102290004FEAD0524FF07F4C1CEA410FA2EBD153D2
:1022A00018BF9CEA026F4AD04FF0004C4CEA002065
:1022B0004CEA012121FA03FCB0EB0C0C0FD412F014
:1022C000FE0F36D05FEA4C001DD5001240EBC25025
:1022D00038BF70471CF03F0F18BF70470BE0A2F1EA
:1022E00001025FEA1C2040EBC25038BF70471CF06F
:1022F0007F0F18BF7047C3F12003994014BF401EE1
:1023000020F00100704780084FEA122308BF704791
:10231000B0FA80FCA2EB0C02CCF1280C60FA0CF0B5
:1023200093EA122F04BF00EBC25070474FEAC3700C
:102330007047130A5FEADC1008BF7047F6E79CEAB3
:10234000026F04D010EA5C0F08BF0020704710B580
:10235000FFF73BFF40DFF63E81F000407047000092
:10236000000000000000000000000000000000006D
:1023700000F80000000000000033300000000010F2
:102380000C06100C0600000000000000000040C019
:102390007840C0784000043F04043F04040000700B
:1023A00088FC08300000001820FF211E0000F00803
:1023B000F000E018000000211C031E211E0000F0A8
:1023C0000888700000001E212324192721101016F0
:1023D0000E000000000000000000000000000000EF
:1023E00000E018040200000000071820400000026E
:1023F0000418E000000000402018070000004040E2
:1024000080F0804040000202010F01020200000043
:1024100000F0000000000101011F010101000000A7
:1024200000000000000080B070000000000000000C
:102430000000000000000001010101010101000095
:10244000000000000000003030000000000000002C
:10245000000080601804006018060100000000E021
:1024600010080810E000000F102020100F000010CE
:1024700010F8000000000020203F20200000007025
:10248000080808887000003028242221300000301D
:102490000888884830000018202020110E00000015
:1024A000C02010F8000000070424243F240000F896
:1024B0000888880808000019212020110E0000E07B
:1024C000108888180000000F112020110E0000381D
:1024D0000808C83808000000003F00000000007035
:1024E000880808887000001C222121221C0000E0BE
:1024F00010080810E0000000312222110F00000037
:1025000000C0C000000000000030300000000000EB
:10251000008000000000000080600000000000005B
:1025200080402010080000010204081020004040F4
:102530004040404040000404040404040400000837
:1025400010204080000000201008040201000070EC
:1025500048080808F0000000003036010000C030D4
:10256000C828E810E0000718272423140B000000F7
:10257000C038E0000000203C23020227382008F881
:10258000888888700000203F202020110E00C03075
:10259000080808083800071820202010080008F84C
:1025A00008080810E000203F202020100F0008F845
:1025B0008888E8081000203F20202320180008F811
:1025C0008888E8081000203F200003000000C03089
:1025D00008080838000007182020221E020008F80A
:1025E00008000008F808203F210101213F200008D1
:1025F00008F8080800000020203F2020000000000C
:102600000808F8080800C08080807F00000008F8F3
:1026100088C028180800203F20012638200008F82C
:10262000080000000000203F20202020300008F893
:10263000F800F8F80800203F003F003F200008F8AD
:1026400030C00008F808203F200007183F00E010C5
:1026500008080810E0000F10202020100F0008F8D4
:1026600008080808F000203F210101010000E010E7
:1026700008080810E0000F18242438504F0008F80C
:10268000888888887000203F2000030C302000706C
:102690008808080838000038202121221C0018086A
:1026A00008F8080818000000203F2000000008F883
:1026B00008000008F808001F202020201F000878CC
:1026C000880000C83808000007380E010000F8082C
:1026D00000F80008F800033C0700073C0300081856
:1026E00068808068180820302C03032C30200838BC
:1026F000C800C83808000000203F20000000100873
:102700000808C838080020382621202018000000BA
:1027100000FE020202000000007F40404000000C6A
:1027200030C000000000000000010638C0000002B8
:102730000202FE000000004040407F000000000058
:10274000040202020400000000000000000000007B
:102750000000000000008080808080808080000277
:102760000204000000000000000000000000000063
:102770008080808000000019242222223F2008F857
:10278000008080000000003F112020110E0000009A
:10279000008080800000000E112020201100000029
:1027A00000808088F800000E112020103F200000DB
:1027B000808080800000001F2222222213000080DF
:1027C00080F0888888180020203F2020000000002A
:1027D000808080808000006B94949493600008F85F
:1027E000008080800000203F210000203F200080EA
:1027F0009898000000000020203F202000000000EA
:1028000000809898000000C08080807F000008F859
:10281000000080808000203F24022D30200000082E
:1028200008F8000000000020203F202000008080E9
:10283000808080808000203F20003F20003F8080FB
:10284000008080800000203F210000203F20000009
:10285000808080800000001F202020201F008080BA
:1028600000808000000080FFA12020110E000000E9
:10287000008080808000000E112020A0FF808080DA
:1028800080008080800020203F2120000100000087
:10289000808080808000003324242424190000805C
:1028A00080E0808000000000001F20200000808069
:1028B000000000808000001F202020103F2080802A
:1028C00080000080808000010E30080601008080BA
:1028D0000080008080800F300C030C300F000080DF
:1028E0008000808080000020312E0E31200080800A
:1028F00080000080808080818E701806010000803A
:102900008080808080000021302C22213000000057
:102910000000807C020200000000003F40400000F8
:102920000000FF00000000000000FF0000000002A7
:10293000027C800000000040403F000000000006D4
:102940000101020204040000000000000000F0F099
:10295000F0F0F0F0F0F0F0F078290008000000202E
:102960000C00000028010008842900080C00002049
:10297000D406000044010008000000000000000030
:042980000000000053
:04000005080000ED02
:00000001FF
