:020000040800F2
:100000000807002089010008B51A0008290900081E
:1000100075140008B90500087925000800000000E3
:100020000000000000000000000000006720000841
:10003000F106000800000000211E000885230008CA
:10004000A3010008A3010008A3010008A301000800
:10005000A3010008A3010008A30100082D07000860
:10006000A3010008A3010008A3010008A3010008E0
:10007000A3010008A3010008A3010008A3010008D0
:10008000A3010008A3010008A3010008A3010008C0
:10009000A3010008A3010008A3010008A3010008B0
:1000A000A3010008A3010008A3010008A3010008A0
:1000B000A3010008E523000800000000A3010008D8
:1000C000A30100080000000000000000A3010008D8
:1000D00000000000A3010008A301000800000000C8
:1000E000A3010008A3010008A301000800F002F822
:1000F00000F03AF80AA090E8000C82448344AAF188
:100100000107DA4501D100F02FF8AFF2090EBAE885
:100110000F0013F0010F18BFFB1A43F0010318473B
:10012000E87B0000087C0000103A24BF78C878C142
:10013000FAD8520724BF30C830C144BF04680C60ED
:10014000704700000023002400250026103A28BF35
:1001500078C1FBD8520728BF30C148BF0B60704739
:100160001FB51FBD10B510BD00F031F81146FFF7E7
:10017000F7FF02F039FA00F04FF803B4FFF7F2FF8F
:1001800003BC00F057F800000948804709480047C1
:10019000FEE7FEE7FEE7FEE7FEE7FEE7FEE7FEE737
:1001A000FEE7FEE704480549054A064B7047000094
:1001B00089230008ED00000808010020080700203E
:1001C00008030020080300207047704770477546F9
:1001D00000F02CF8AE4605006946534620F00700B3
:1001E000854618B020B5FFF7DDFFBDE820404FF091
:1001F00000064FF000074FF000084FF0000B21F011
:100200000701AC46ACE8C009ACE8C009ACE8C009DD
:10021000ACE8C0098D46704710B50446AFF30080C6
:100220002046BDE81040FFF7A8BF00000048704717
:10023000A400002001491820ABBEFEE72600020002
:100240007047000070B5124E304600F047F90024A8
:100250004FF47A75304600F0DCF838B1AC4201D189
:10026000012070BD641CA4B2AC42F3D3304600F050
:1002700046F90024304600F0C5F838B1AC4201D14F
:10028000012070BD641CA4B2AC42F3D3002070BD49
:100290000024014010B586B000F09EF8012148020C
:1002A00001F0E6FD4FF4004001F0BCFD1B4C0623BD
:1002B00001220021204600F0D7F806230222012166
:1002C000204600F0D1F8062303220221204600F048
:1002D000CBF8062304220321204600F0C5F80623AC
:1002E00005220421204600F0BFF8002101914FF4BF
:1002F00060220392049101218DF809108DF80810F5
:1003000005218DF8141001A9204600F089F801217B
:10031000204600F017F806B010BD00000024014090
:1003200010B500F059F8FFF7B5FF00F017F8BDE879
:100330001040FFF787BF00000121014800F0D3B84B
:1003400000240140002904D0816841F0010181604E
:100350007047816821F001018160704710B58CB051
:100360000121084601F068FD1248019080150790B0
:1003700000200590104902914FF48061089180217E
:1003800006910390322104910B9020200990C00126
:100390000A900A4C01A9204600F087F9054801217E
:1003A0004C3800F00DF80121204600F071F90CB036
:1003B00010BD00004C240140100000200800024045
:1003C000002904D0816841F48071816070478168A0
:1003D00021F480718160704708B50121042001F08B
:1003E00047FD00208DF803001F20ADF8000003201A
:1003F0008DF802006946024800F01CFA08BD0000B2
:1004000000080140014600208968490700D5012005
:100410007047014600208968090700D50120704710
:1004200010B542680E4B1A400C790B6842EA042260
:100430001343436082680B4B1A40D1E902432343C4
:100440004C7942EA440213438360C26A22F4700288
:10045000097C491EC9B242EA0151C16210BD0000C7
:10046000FFFEF0FFFDF7F1FF70B5072609290AD955
:10047000C568A1F10A0404EB4404A640B543A340B7
:100480001D43C56007E0056901EB4104A640B54383
:10049000A3401D4305611F23072A09D2446B521E46
:1004A00002EB820293409C4391400C43446370BD35
:1004B0000D2A09D2046BD21F02EB820293409C43A7
:1004C00091400C43046370BDC46A0D3A02EB820292
:1004D00093409C4391400C43C46270BD816841F0DD
:1004E000080181607047002904D0816841F4A001AF
:1004F00081607047816821F4A00181607047816844
:1005000041F004018160704710B500F0F7F9064929
:10051000012802D00020087510BD01200875BDE833
:10052000104001F039B800007E00002070B500F0E6
:10053000F5F9164C012802D02078012804D10020BA
:100540006070012001F0A2FC00F0E8F9104D38B90C
:100550002889142804D801206070002001F096FC3E
:100560006078012803D000200A49488270BD28899C
:1005700002F00EFD6FF00B0102F09BFE064902F047
:100580001BFD02F0E5FC80B2EEE700000200002057
:10059000740000207E00002000007A4410B504485A
:1005A00000244470012001F071FC0248448210BD17
:1005B000020000207E000020FEE7000070B5144E0F
:1005C000052233460A21134801F0D7FF114C643449
:1005D0002080104D334605220A21A81C01F0CDFFD2
:1005E0006080334605220A21281D01F0C6FFA08045
:1005F000334605220A21A81D01F0BFFFE0803346E3
:1006000005220A21A4F15C0001F0B7FF208170BD32
:100610006666663F1000002010B5FFF7CFFF01F0BF
:10062000DBFE0F49087010B1012815D10AE000F077
:1006300023FFFFF77BFF002000F00CFF012000F0FC
:10064000F9FE09E001F024FEFFF7A8FF012000F009
:1006500001FF002000F0EEFEBDE81040FFF754BFA0
:100660000200002008B50121082001F001FC48200B
:100670008DF803004FF49270ADF8000003208DF860
:1006800002006946014800F0D5F808BD000C0140A1
:10069000002904D0016841F0010101607047016840
:1006A0004FF6FE7211400160704730B5026847F6A0
:1006B000F0739A430C6A8B682343D1E904452C43B9
:1006C00023438C692343CC6923434C6A23438C6ABC
:1006D000234313430360CA6842600A688260496822
:1006E000C16030BD4FF47A71884200D3084670472C
:1006F000704700B502464FF47A7302E0184600F0E6
:1007000004F8521E501CF9D100BD00EBC000C1001E
:100710004FF0E02041610021816105210161016903
:10072000C903FCD5042101617047000070B50220A7
:1007300000F02CF801F08AFA04462146272001F047
:10074000F3FA1149FF2C06D02CB1600605D501251E
:100750000120087008E0002506E0A00601D502256A
:1007600002E0E00600D503253DB1022D08D0032D9F
:1007700005D1BDE8704001F09FBA0820087070BD37
:10078000BDE8704001F0B4BA0000002001490860E3
:10079000704700001404014030B51B4A837901689A
:1007A000002B2AD013688B431360111D0B6804685B
:1007B000A3430B60017911440B68046823430B6069
:1007C000114C08342168036899432160231D19687E
:1007D0000568A94319604179102905D011440A68B8
:1007E000006802430A6030BD21680268114321603D
:1007F000196800680143196030BD0079104402682F
:100800008A43026030BD00000004014010B58A0731
:10081000120F0F23934021F00304054921448C68F3
:100820009C438C608B68904003438B6010BD00003C
:10083000000001402DE9F0410022CC7804F00F03C4
:10084000E40601D58C7823430C784FF00F0714F0A1
:10085000FF0F4FF0010C1CD005680CFA02F40E8853
:100860002640A64211D1960007FA06F825EA0805A7
:1008700003FA06F848EA0505CE78282E02D0482E5D
:1008800002D002E0446100E00461521C082AE4D373
:1008900005600A88FF2A1ED94568002202F1080671
:1008A0000CFA06F40E882640A64210D1960007FAEC
:1008B00006F825EA080503FA06F848EA0505CE78A1
:1008C000282E00D14461CE78482E00D10461521CFC
:1008D000082AE3D34560BDE8F08102460020926813
:1008E0000A4200D0012070474161704701617047A2
:1008F000002A01D0016170474161704700B500F0E6
:1009000023F80549012802D1C878401CC870C8786E
:1009100000F00100C87000BD0C000020202101483B
:10092000FFF7DBBF000C0140FEE710B54FF4A060FD
:1009300001F06CFA0121084601F048F90121BDE8F7
:100940001040002001F0FABD0249087800220A7028
:10095000704700000C00002010B5064C6078A070B5
:1009600000F00AF86070A178002902D0002800D1B8
:10097000217010BD0C00002010B500244FF48071D0
:100980000348FFF7AAFF00B90124204610BD00006C
:10099000000C01402DE9F04105460F4614461E4665
:1009A0002A2000F01BFD6D1CA8B200F00BFD641C9A
:1009B000A0B200F007FD2B2000F010FDBF1CB8B264
:1009C00000F000FDB61CB0B200F0FCFCBDE8F04148
:1009D0002C2000F003BD08B54FF6FF7000210090F9
:1009E0008023A022084600F00CF808BD10B514467C
:1009F0000B460246FFF7CEFF2046BDE8104000F050
:100A0000E1BC2DE9F0478046DDF820900D46164602
:100A10001F46781E83B2701E82B229464046FFF7F9
:100A2000B9FF0AE0444604E0484600F0CBFC641CF1
:100A3000A4B2B442F8D36D1CADB2BD42F2D3BDE84E
:100A4000F0870000F8B50121042001F011FA01211E
:100A5000082001F00DFA4FF4C054ADF8004010200A
:100A60008DF8030003208DF802000B4E69463046D6
:100A7000FFF7E0FEF514ADF80050084F6946384620
:100A8000FFF7D8FE21463046FFF730FF29463846AB
:100A9000FFF72CFFF8BD000000080140000C0140EA
:100AA00070B5FFF7CFFF7B4D4FF400640022214665
:100AB0002846FFF71DFF6420FFF71BFE0122214699
:100AC0002846FFF715FF6420FFF713FE112000F002
:100AD00085FC7820FFF70DFEB12000F07FFC05209B
:100AE00000F07AFC3C2000F077FC3C2000F074FC25
:100AF000B22000F073FC052000F06EFC3C2000F0FA
:100B00006BFC3C2000F068FCB32000F067FC052083
:100B100000F062FC3C2000F05FFC3C2000F05CFC3C
:100B2000052000F059FC3C2000F056FC3C2000F071
:100B300053FCB42000F052FC032000F04DFCC02018
:100B400000F04CFC282000F047FC082000F044FC9A
:100B5000042000F041FCC12000F040FCC02000F067
:100B60003BFCC22000F03AFC0D2000F035FC0020D8
:100B700000F032FCC32000F031FC8D2000F02CFC92
:100B80002A2000F029FCC42000F028FC8D2000F071
:100B900023FCEE2000F020FCC52000F01FFC1A20F2
:100BA00000F01AFC362000F019FCA02000F014FC24
:100BB000E02000F013FC042000F00EFC222000F0E6
:100BC0000BFC072000F008FC0A2000F005FC2E209A
:100BD00000F002FC302000F0FFFB252000F0FCFBC1
:100BE0002A2000F0F9FB282000F0F6FB262000F078
:100BF000F3FB2E2000F0F0FB3A2000F0EDFB00208C
:100C000000F0EAFB012000F0E7FB032000F0E4FB2A
:100C1000132000F0E1FBE12000F0E0FB042000F0F5
:100C2000DBFB162000F0D8FB062000F0D5FB0D20E2
:100C300000F0D2FB2D2000F0CFFB262000F0CCFBF3
:100C4000232000F0C9FB272000F0C6FB272000F07E
:100C5000C3FB252000F0C0FB2D2000F0BDFB3B2096
:100C600000F0BAFB002000F0B7FB012000F0B4FB5D
:100C7000042000F0B1FB132000F0AEFB3A2000F09E
:100C8000ADFB052000F0A8FBBDE87040292000F076
:100C9000A5BB0000000801402DE9FF4F83B00746C7
:100CA000DDF844904FF0000801974FEA590A5FEAD7
:100CB0004A7001D0012000E0002000EBDA0000FBC8
:100CC00009F00290203A02F0FF0B0498049948447E
:100CD000401E83B207EB0A00401E82B23846FFF77F
:100CE00059FE002554E0B9F10C0F24D0B9F1100FD2
:100CF00028D0B9F1180F2AD0B9F1200F4BD12948CB
:100D000000EB8B10465D0024129838B30120A04000
:100D1000304204D03846069A0499FFF767FE7F1CDC
:100D2000BFB20198381A50452CD1019F0498401C3D
:100D300080B204902AE01C490BEB4B0001EB8000D1
:100D4000465DE0E7194800EB0B10465DDBE718490C
:100D50000BEB4B0001EB0010465DD4E70120A040F7
:100D6000304203D0069800F02DFB02E0109800F00E
:100D700029FB08F1010808F0FF08B8FBFAF00AFBAC
:100D8000108058B1641CE4B2082CBDD36D1CADB208
:100D900002988542A7D307B0BDE8F08F4FF0000856
:100DA000F4E70000F4620008C0460008344B000875
:100DB000245100082DE9FF4F83B08146DDE911A6DB
:100DC0001D4600274FEA56080024A34622E0281BB0
:100DD000401EC1B20A2001F071FC0599B1FBF0F090
:100DE0000A21B0FBF1F201FB120027B9691E8C4207
:100DF00001DAA0B10127CDE9016B3030C2B204FBAA
:100E0000089080B2CDF800A0109B0499FFF744FF32
:100E1000641CE4B2AC42DAD307B0BDE8F08FCDE990
:100E2000016B04FB089080B2CDF800A02022109B3B
:100E30000499FFF731FFEBE72DE9F0479146089F52
:100E40009846002401EB0802521E93B200EB0902FF
:100E5000521E92B2FFF79EFD002611E000250BE026
:100E600017F8140000F0B8FA07EB4400407800F0DF
:100E7000B3FA641C6D1CADB24545F1D3761CB6B215
:100E80004E45EBD3BDE8F0872DE9FE4F0546DDE981
:100E90000D68894614469A460C9F0BE0CDE901681F
:100EA0005346494628460097FFF7F6FE05EB5600E5
:100EB00085B2641C2278002AF0D1BDE8FE8F0000C4
:100EC0003EB50E4800224FF6FF71047D0C2040F223
:100ED000CF13012C08D0CDE90102009108A23721DF
:100EE0005F20FFF7D1FF3EBDCDE90102009107A2CF
:100EF00037215F20FFF7C8FF3EBD00007E000020C5
:100F000042756D705F4F46460000000042756D707F
:100F10005F4F4E20000000002DE9FE4F00260C25FB
:100F20004FF6FF748DE870003346A9A21E215F20A2
:100F3000FFF7AAFF8DE870000023A7A228215F20F9
:100F4000FFF7A2FF10258DE870000023A4A208215E
:100F50000620FFF799FF8DE870000023A2A2202150
:100F60000620FFF791FF8DE870000023A0A2382132
:100F70000620FFF789FF8DE8700000239EA2502114
:100F80000620FFF781FF8DE870004BF640439CA2DE
:100F900066210620FFF778FFDFF86CB240F2FF7899
:100FA0004FF4487ABBF802204FF01F094FF47847FE
:100FB000B2F5C87F08D8CDE9008404230821322087
:100FC0000295FFF7F7FE12E0524508D3CDE9007411
:100FD0000423082132200295FFF7ECFE07E0CDE95B
:100FE00000940423082132200295FFF7E3FEBBF8AA
:100FF0000420B2F5C87F08D8CDE90084042320215D
:1010000032200295FFF7D6FE12E0524508D3CDE913
:1010100000740423202132200295FFF7CBFE07E065
:10102000CDE900940423202132200295FFF7C2FE6F
:10103000BBF80620B2F5C87F08D8CDE900840423A8
:10104000382132200295FFF7B5FE12E0524508D351
:10105000CDE900740423382132200295FFF7AAFE5F
:1010600007E0CDE900940423382132200295FFF7F0
:10107000A1FEBBF80820B2F5C87F08D8CDE90084EE
:101080000423502132200295FFF794FE12E05245CE
:1010900008D3CDE900740423502132200295FFF7D4
:1010A00089FE07E0CDE90094042350213220029507
:1010B000FFF780FEBBF81220B2F5C87F08D8CDE953
:1010C0000084042366213A200295FFF773FE12E0A4
:1010D000524508D3CDE90074042366213A200295D5
:1010E000FFF768FE07E0CDE90094042366213A206B
:1010F0000295FFF75FFE9BF801004FF60748C00717
:1011000008D08DE870004346422208212820FFF7CE
:10111000C3FD07E08DE870004346412208212820E6
:10112000FFF7BAFD9BF80100800708D58DE8700035
:101130004346422220212820FFF7AEFD07E08DE83C
:1011400070004346412220212820FFF7A5FD9BF88F
:101150000100400708D58DE870004346422238213F
:101160002820FFF799FD07E08DE8700043464122F3
:1011700038212820FFF790FD9BF80100000708D5D3
:101180008DE870004346422250212820FFF784FD5D
:1011900007E08DE870004346412250212820FFF7E8
:1011A0007BFD1A48007850B18DE870004FF4FC6365
:1011B00017A266212820FFF767FEBDE8FE8F8DE8A5
:1011C00070003B4613A266212820FFF75DFEF4E77E
:1011D0004D6F746F72000000436F6E74726F6C001D
:1011E0004D5F313A000000004D5F323A00000000D0
:1011F0004D5F333A000000004D5F343A00000000BC
:10120000425F4D3A000000007E00002003000020F5
:101210004F4E00004F460000FEB500260C254FF64D
:10122000FF748DE8700033462EA21E215F20FFF769
:101230002BFE8DE8700000232CA228215F20FFF7F1
:1012400023FE10258DE8700000232AA20821062025
:10125000FFF71AFE8DE87000002328A22021062047
:10126000FFF712FE8DE87000002326A23821062029
:10127000FFF70AFE8DE87000002324A2502106200B
:10128000FFF702FE8DE87000234622A266210620A9
:10129000FFF7FAFD1F26234FCDE9006402957A89F6
:1012A000042308213220FFF785FDCDE90064029573
:1012B000BA89042320213220FFF77CFDCDE90064A8
:1012C0000295FA89042338213220FFF773FDCDE916
:1012D000006402953A8A042350213220FFF76AFD08
:1012E000FEBD0000536572766F000000436F6E74A0
:1012F000726F6C00535F313A00000000535F323A66
:1013000000000000535F333A00000000535F343A9E
:10131000000000002020202020202020202020204D
:10132000000000007E0000202DE9FE434FF6FF7410
:1013300048F23041CDE9001418201B4F02900123E0
:101340003A7802218C20FFF735FD387800260C25ED
:10135000062811D18DE870004FF4FC68434613A2B3
:1013600006215F20FFF790FD8DE87000434611A233
:1013700010215F20FFF788FD3878072811D18DE80C
:1013800070004FF478473B4608A206215F20FFF724
:101390007BFD8DE870003B4608A210215F20FFF71F
:1013A00073FDBDE8FE83000000000020536C6176F1
:1013B000655F0000436F6E6E656374004C6F7373FE
:1013C0002020200010B50446200A00F01DF8E0B2ED
:1013D000BDE8104000F018B800F016B870B5064629
:1013E000084D4FF48054002221462846FFF780FA2A
:1013F000304600F009F821462846BDE87040012239
:10140000FFF776BA0008014070B50646084D4FF464
:101410000064002221462846FFF76AFA304600F0B1
:10142000D5FD21462846BDE870400122FFF760BA8D
:10143000000C0140064B4FF40041002803D001226C
:101440001846FFF755BA00221846FFF751BA0000B8
:10145000000C0140064B4FF48041002803D00122CC
:101460001846FFF745BA00221846FFF741BA0000B8
:10147000000C0140FEE7000070B5444C00252570CB
:101480004FF46170608100F0E1F800F01BFA00F0A9
:10149000A1FA3F4806210F22837809200D2B17D28D
:1014A000DFE803F007171C21262B343D464F586117
:1014B0006A003848808800F063FA00203449091D2A
:1014C000898804EB40025180401CC0B20428F8D344
:1014D00070BD6570BDE8704000F0C0BA6170BDE8D5
:1014E000704000F08FBA6270BDE8704000F0B6BA8C
:1014F0006070BDE8704000F085BA6570012000F0B2
:1015000055F8BDE87040012000F016B96570022062
:1015100000F04CF8BDE87040022000F00DB9617099
:10152000032000F043F8BDE87040032000F004B948
:101530006170042000F03AF8BDE87040042000F02B
:10154000FBB86270052000F031F8BDE8704005205E
:1015500000F0F2B86270062000F028F8BDE8704094
:10156000062000F0E9B86070072000F01FF8BDE821
:101570007040072000F0E0B86070082000F016F816
:10158000BDE87040082000F0D7B800007E000020C1
:101590000200002074000020034800214180818067
:1015A000C1800181704700007E00002030B5254CCD
:1015B000254D01286388228817D0042815D00528D6
:1015C00013D0082811D002282DD006282BD06A80ED
:1015D0001946104600F0ACF8A8806188208800F019
:1015E000A7F8E8802088288130BD012810D0052880
:1015F0000ED0042801D00828F6D11946104600F074
:1016000097F868806188208800F092F8288130BDC2
:101610001146184600F08CF868802188608800F038
:1016200087F8288130BD6B801146184600F080F89D
:10163000A8802188608800F07BF8E8806088288195
:1016400030BD0000060000207E00002070B5364846
:101650004FF4FA76354A01884088A1F5E1634FF4EA
:10166000E16540F6FC04B34206D8A84204D3A04288
:1016700002D80020907070BDB34204D8A04202D3BB
:101680000120907070BDB34204D8A84202D8032054
:10169000907070BDA14206D3A84204D3A04202D8E4
:1016A0000220907070BDA94206D8A84204D3A0427F
:1016B00002D80420907070BDA14209D3A04207D384
:1016C000814202D80620907070BD0720907070BDD6
:1016D000A94209D8A84207D8814202D80B209070AD
:1016E00070BD0A20907070BDA9420DD8A0420BD3E6
:1016F000C1F5E161A0F6FC00814202DC052090709A
:1017000070BD0C20907070BDA142FCD3A842FAD8E5
:10171000A1F6FC01C0F5E160814202DB0820907077
:1017200070BD0920907070BD740000200200002080
:10173000401A80B27047000070B56049604C0D1DC2
:10174000CE782A88A9886B88012E10D0022E5AD014
:1017500001286FD002286DD005286BD0062869D0EB
:10176000042868D0082866D06280228170BD0128D4
:1017700013D0022811D005280FD006280DD0032839
:101780002DD0042831D0072836D00828EED1A280E9
:10179000104600F005F9E08070BD01280CD0022849
:1017A00010D0052814D00628F6D1184600F0F8F815
:1017B00060806888208170BDA380184600F0F0F832
:1017C000E08070BD6380184600F0EAF8208170BDAB
:1017D000184600F0E5F8A0806888E08070BD62805F
:1017E000104600F0DDF8208170BD104600F0D8F8FA
:1017F000A0802888E08070BD104600F0D1F860809D
:101800002888208170BD012816D0022814D0052810
:1018100012D0062810D0032830D0042835D007284D
:1018200039D00828EED1104600F0BAF8A0802888F8
:10183000E08070BD35E03EE001280BD0022810D0DA
:10184000052815D00628F4D16380184600F0A8F8C2
:101850002081EEE7184600F0A3F8A0806888E080B9
:10186000E7E7184600F09CF8608068882081E0E790
:10187000A380184600F094F8E080DAE7104600F004
:101880008FF8608028882081D3E7A280104600F07E
:1018900087F8E080CDE76280104600F081F8208173
:1018A000C7E7012804D0052802D063802381C0E760
:1018B000A380E380BDE7A280E280BAE702000020B7
:1018C0007E0000202DE9F0470024294FDFF8A49086
:1018D000DFF8A4A0294D40F6FC08002637F81400D4
:1018E00025F81400404514D3A0F6FC0080B201F0A6
:1018F0004FFB494601F04EFA514601F05DFB01F005
:1019000027FB80B225F81400FEF7ECFE25F8140042
:1019100028E0B0F5E16F23D8A0F5967080B225F8E5
:10192000140042F21071884201D325F8146035F892
:10193000140001F02DFB494601F02CFA01464FF04E
:101940007E5001F00FFC514601F036FB01F000FB28
:1019500080B225F81400FEF7C5FE25F8140001E05A
:1019600025F81460641CE4B2032CB7D3BDE8F087FB
:10197000740000200080BB4400007A440600002070
:1019800040F6FC020549904202D30C204870704793
:10199000B0F5E16FFBD80320487070477E0000204F
:1019A00070B50546084601F0F3FA094901F0F2F96D
:1019B0000446284601F0ECFA0546214601F0FCFAFF
:1019C0000146284601F0CEFB01F0C2FA80B270BD9C
:1019D00000007A44094840F6FC0209498088904298
:1019E00002D30120C8707047B0F5E16F02D8022021
:1019F000C87070470020C870704700007400002055
:101A00000200002070B51348134C051DC2782888C9
:101A1000A988012A06D0022A10D06080A080E08028
:101A2000208170BDFFF7BCFF60802888A080A98856
:101A3000FFF7B6FFE0802888208170BD6080FFF747
:101A4000AFFFA0802888E080A988FFF7A9FF208148
:101A500070BD0000020000207E00002070B5134819
:101A6000134C051DC278A9886888012A06D0022A6D
:101A70000FD06080A080E080208170BD6080A08059
:101A8000FFF78EFFE080A9886888FFF789FF208133
:101A900070BDFFF785FF6080A9886888FFF780FF29
:101AA000A0806888E080208170BD000002000020D6
:101AB0007E00002070470000F8B50121042000F0EE
:101AC000D7F90121082000F0D3F910258DF8035033
:101AD0002C01ADF8004003208DF80200114E69463C
:101AE0003046FEF7A7FE48228DF803200222ADF80B
:101AF00000200D4F69463846FEF79CFE8DF80350D6
:101B00000122ADF8002069463846FEF793FE012217
:101B100021463046FEF7ECFE012211463846FEF71C
:101B2000E7FEF8BD00080140000C014010B5FFF7CA
:101B3000C3FF00F08BF80146272000F0F5F8214C98
:101B4000002201212046FEF7D3FE0021252000F0CF
:101B5000EBF805221C49302000F002F91A49052251
:101B6000491D2A2000F0FCF80F21202000F0DCF8AD
:101B70000121212000F0D8F82021312000F0D4F8F4
:101B80000121222000F0D0F81A21242000F0CCF806
:101B90000721262000F0C8F8FF21E22000F0C4F859
:101BA000FF21E12000F0C0F8012211462046FEF797
:101BB0009FFE052000F030F808B1012010BD002084
:101BC00010BD0000000C0140B6460008FEB50446FA
:101BD0000D460121084600F04BF901210846FEF7A9
:101BE00015FE0222019201268DF80A6000228DF86E
:101BF00008200C228DF8092001A8FEF7CDFD072250
:101C00008DF800208DF803608DF801408DF80250AA
:101C1000684600F0C9F8FEBD70B506460A4D4FF49F
:101C20008074002221462846FEF762FE304600F00E
:101C3000CDF9FF2000F0CAF90646012221462846C8
:101C4000FEF756FE304670BD0008014070B5094DE4
:101C50004FF48074002221462846FEF749FEFF20FB
:101C600000F0B4F90646012221462846FEF740FE60
:101C7000304670BD0008014070B50D4C0422227042
:101C800001462022A02000F06BF80A4D002201211D
:101C90002846FEF72DFE0E21202000F045F80122F7
:101CA00011462846FEF724FE0520207070BD000076
:101CB00000000020000C014010B5FF21E12000F0E1
:101CC00033F8094C002201212046FEF711FE0F21B6
:101CD000202000F029F8012211462046FEF708FED8
:101CE00002490720087010BD000C014000000020D0
:101CF00010B5FF21E12000F017F8094C0022012166
:101D00002046FEF7F5FD0F21202000F00DF80122FE
:101D100011462046FEF7ECFD02490620087010BD72
:101D2000000C0140000000202DE9F04107460E465E
:101D30000A4D4FF48074002221462846FEF7D8FD54
:101D4000384600F043F9304600F040F92146284675
:101D5000BDE8F0410122FEF7CBBD000000080140C4
:101D60002DE9F04104460D461646DFF838804FF461
:101D70008077002239464046FEF7BAFD204600F043
:101D800025F9002404E0285D00F020F9641CE4B289
:101D9000B442F8D339464046BDE8F0410122FEF78F
:101DA000A7BD00000008014070B50F23C2780126CE
:101DB0000178002A1ED0144A126802F4E062C2F5CB
:101DC000E062120AC2F10404D3404578A54082784B
:101DD0001A402A43120101F1E02181F80024007821
:101DE00000F01F018E404009800000F1E020C0F8A3
:101DF000006170BD01F01F0086404809800000F1BD
:101E0000E020C0F8806170BD0CED00E0024908439D
:101E100002490860704700000000FA050CED00E080
:101E200070470000034A516821F44041014351606A
:101E30007047000000100240054A002903D0516994
:101E400001435161704751698143516170470000FE
:101E500000100240054A002903D0D1690143D16135
:101E60007047D1698143D161704700000010024082
:101E7000054A002903D09169014391617047916936
:101E8000814391617047000000100240064B4FF4FF
:101E90008051002803D001221846FEF729BD0022F8
:101EA0001846FEF725BD0000000C0140F8B50121E1
:101EB0001020FFF7DDFF01210820FFF7D9FF1024D4
:101EC0008DF803406602ADF8006003258DF80250DE
:101ED0000D4F69463846FEF7ADFC8DF803404FF4D0
:101EE0005044ADF800408DF80250084D6946284630
:101EF000FEF7A0FC31463846FEF7F6FC21462846A0
:101F0000FEF7F4FCF8BD000000100140000C014099
:101F1000064B4FF40051002803D000221846FEF76C
:101F2000E7BC01221846FEF7E3BC000000100140A8
:101F300038B501210420FFF79BFF18208DF803001E
:101F4000A020ADF8000003208DF80200074C694680
:101F50002046FEF76FFC04218DF803104021ADF8F8
:101F6000001069462046FEF765FC38BD00080140B8
:101F700010B586B0FFF7DCFF01210803FFF778FFFB
:101F80004FF48270ADF806000020ADF80400ADF803
:101F90000800ADF812000821ADF81010ADF80A00E5
:101FA000ADF80C008801ADF80E000720ADF8140064
:101FB000054C01A9204600F03AF80121204600F026
:101FC0001FF806B010BD00000030014070B5054696
:101FD0000A4C0221204600F01FF80128F9D12946B9
:101FE000204600F022F80121204600F015F80128D3
:101FF000F9D1204600F017F8C0B270BD00300140A2
:10200000002904D0018841F0400101807047018817
:1020100021F04001018070470246002012890A42E7
:1020200000D001207047808970478181704730B5AA
:10203000028802F441530A884C88CD8822438C8858
:102040002C4322430C8922434C8922438C8922430E
:10205000CC8922431A430280828B22F4006282835D
:10206000098A018230BD704770B540F6FC01184EF8
:10207000184D194C884211D3A0F6FC0080B200F034
:1020800087FF314600F086FE294600F095FF214685
:1020900001F05EF800F05CFF80B270BDB0F5E16F5A
:1020A00013D800F075FF314600F074FE01464FF082
:1020B0007E5001F057F8294600F07EFF214600F0DF
:1020C00001FE00F045FF80B270BD4FF4617070BD3D
:1020D0000000E144000016430000614470B5002197
:1020E00040F6FC021E4E1F4D4FF4E164904212D3A5
:1020F000A0F6FC0080B200F04BFF314600F04AFE33
:10210000294600F059FF0146002000F0DBFD00F0F9
:1021100003FF41B215E0A04213D800F039FF314669
:1021200000F038FE01464FF07E5001F01BF82946C2
:1021300000F042FF0146002001F014F800F0ECFE30
:1021400041B2094A9089084480B29081642801D83C
:10215000642090819089A04200D3948170BD0000DA
:102160000000E144000048427E00002070B50021DC
:1021700040F6FC021E4E1F4D4FF4E164904212D314
:10218000A0F6FC0080B200F003FF314600F002FE32
:10219000294600F011FF0146002000F0E3FF00F0A7
:1021A000BBFE41B215E0A04213D800F0F1FE31466B
:1021B00000F0F0FD01464FF07E5000F0D3FF2946BD
:1021C00000F0FAFE0146002000F07CFD00F0A4FEC5
:1021D00041B2094AD089084480B2D0814FF4C87115
:1021E000884200D8D181D089A04200D3D48170BD6B
:1021F0000000E144000048427E00002070B500214C
:1022000040F6FC021F4D204C904212D3A0F6FC0079
:1022100080B200F0BDFE294600F0BCFD214600F072
:10222000CBFE0146002000F04DFD00F075FE41B2EE
:1022300016E0B0F5E16F13D800F0AAFE294600F0D1
:10224000A9FD01464FF07E5000F08CFF214600F0C2
:10225000B3FE0146002000F085FF00F05DFE41B2B4
:102260000A4A108A084480B2108242F210718842F1
:1022700001D300201082118A4FF49670814200D35E
:10228000108270BD0000E144000048427E00002042
:1022900010B5074C0120207000206080A080E080F5
:1022A0002081608203480088FFF7DEFE608110BD58
:1022B0007E0000207400002004484FF461714181C9
:1022C0008181C181C8210182704700007E00002009
:1022D000AFF300800CB500220192009227480168FC
:1022E00041F4803101604FF4A063016801F40031D2
:1022F00000910199491C0191009911B901999942E4
:10230000F3D10168890302D50121009100E0009218
:102310000099012930D11A490A6842F010020A6076
:102320000A6822F003020A600A6842F002020A60A8
:102330004168416041684160416841F480614160A9
:10234000416821F47C114160416841F4E811416029
:10235000016841F08071016001688901FCD5416824
:1023600021F003014160416841F002014160416890
:10237000C1F381010229FAD10CBD00000010024016
:10238000002002407047000010B50F48016841F07E
:102390000101016041680D4A1140416001680C4A29
:1023A00011400160016821F480210160416821F43D
:1023B000FE0141604FF41F018160FFF789FF05496D
:1023C0004FF00060086010BD001002400000FFF8F0
:1023D000FFFFF6FE08ED00E004210148FEF77DBA9C
:1023E000000C014010B501210A4800F019F8FEF771
:1023F000B3FA0948007801280BD1084C6088FFF730
:102400006DFEE088FFF7B2FEA088BDE81040FFF740
:10241000F5BE10BD00040040020000207400002042
:10242000C94301827047002904D0018841F00101AD
:1024300001807047018821F0010101807047002A66
:1024400003D082890A438281704782898A438281CC
:102450007047018921F007010181704730B502887A
:102460001B4C1C4DA0420DD0A8420BD0B0F1804FA8
:1024700008D0194B984205D0184B984202D0184BFF
:10248000984203D122F070034A881A43154B9842B0
:1024900006D0154B984203D022F44073CA881A43E1
:1024A00002808A8882850A880285A0420AD0A842D2
:1024B00008D00E4A904205D00D4A904202D00D4AF3
:1024C000904201D1097A01860121818230BD00004C
:1024D000002C01400034014000040040000800408E
:1024E000000C00400010004000140040004001407B
:1024F00000440140004801403EB501210220FFF7A1
:10250000A9FC0D4C2046FFF7A4FF0021ADF80610F2
:10251000ADF80210C722ADF8042041F61F42ADF815
:1025200000208DF8081069462046FFF797FF01212B
:102530002046FFF778FF3EBD00040040F8B5044692
:102540000D460C4E01213046FFF76AFF012211466D
:102550003046FFF774FF1D208DF8000001208DF834
:1025600003008DF801408DF802506846FFF71CFC0F
:10257000F8BD000000040040FEE72DE9F04780466A
:10258000894617469A46781E38F8100000F073F90D
:1025900004460D4601261EE051464FF07E5000F0E5
:1025A000E1FD00F063FB22462B4600F077F904467C
:1025B00006FB07F00D4638F8100000F0E9FC514624
:1025C00000F0FAFC00F052FB22462B4600F07EF8A9
:1025D00004460D46761C4E45DEDB2046294600F0BB
:1025E0001DF980B2BDE8F0870EB5FFF75FFC002053
:1025F000FFF78EFCFEF736F8FFF77EFFFDF790FE43
:10260000FDF79AFEFFF7B4FCFEF74AFAFEF7E3F98E
:10261000FFF78CFA78B1002414254FF6FF764FF4BB
:102620007847CDE900650A213B461DA20846029481
:10263000FEF72AFCF5E7FEF778F9FFF73DFE1C48A8
:10264000322300901A4649216920FEF7F5FB194C08
:10265000194D02E00120FEF758F820780528F9D03E
:10266000287810B1012803D004E0FEF755FC01E002
:10267000FEF7D2FDFEF758FEFEF722FCFDF7CCFF79
:10268000207828B1032803D0062801D0072802D1DA
:102690000948FFF7F1FA687D401C6875DDE7000026
:1026A0004E524632344C30315F4572726F720000C8
:1026B0002E330008000000207E0000200346012089
:1026C00000E05843491EC9B2FBD2704710B591EAE9
:1026D000030F48BF83F0004300F1E681841A71EBD9
:1026E000030C05D2121943EB0C03001B61EB0C0128
:1026F000DFF824E14FEA1154A4EB135C1EEA430F08
:1027000018BF9EEA445F73D023EA0E03DCF1200E6B
:1027100021EA045143F4801332D322FA0CFE10EB69
:102720000E0023FA0CFE41EB0E01CCF1200E03FA51
:102730000EFE10EB0E0051F10001B1F5801FCCF13F
:10274000200E32D201EB045112FA0EF2BDE8104015
:1027500058BF7047401C38BF5FEA420218BF70473D
:10276000002814BF20F0010041F100014FEA4103AD
:1027700013F5001F38BF7047A1F1C04100F086B9C2
:10278000012A43EB0302ACF1200CDCF11F0E32BF37
:102790004FF0000E23FA0CF310EB030041EB045151
:1027A000B4EB115FD0D0A1EB045101F580114908C1
:1027B0005FEA300001EB04510ED350F1000038BF46
:1027C00012FA0EFE08D1BDE81040C9E7401C38BF20
:1027D0005FEA4202CAD1C3E7BDE810404FEA4103B5
:1027E00013F5001F38BF7047A1F1C04100F04EB98A
:1027F0009EEA445F08D011EA5E0FBDE8104004BFB6
:1028000001F0004100207047BDE8104070B500F0B5
:10281000EFF800BF64FBBE3E0000E0FF4FEA11533B
:10282000A3F58063D3F11E03A8BFD3F1200C08DB0E
:102830004FF0004242EAC12252EA505232FA03F00B
:10284000704709420BD4102BC4BF0020704703F51A
:10285000787CBCF1FF3F05D04FF0FF3070474FF060
:102860000000704770B500F0C3F800BF49922480A3
:1028700000207047F0E7B0FA80F310FA03F10AD0B5
:10288000C3F11D0303F580634FEA41504FEA035241
:1028900002EBD12170474FF000007047DFF848C1CC
:1028A00070B51CEA111E1EBF1CEA13159EEA0C0F20
:1028B00095EA0C0F00F06F8081EA030423EA4C13C1
:1028C0004EEAD47E21EA4C1141F4801143F4801386
:1028D000AE44A1FB024CA0FB0365AEF17F7E36192E
:1028E00055EB0C05A1FB034C4CF10003A0FB021CB3
:1028F00016EB0C06654153F10003094218BF46F080
:10290000010613F4007F0BD14FEA03314FEA053083
:10291000340341EA155140EA16506FF003020AE011
:102920004FEAC3214FEAC520F40241EA555140EA7B
:1029300056506FF0020202EB2E4201EB025585EA7F
:10294000CE710AD05FEA440C18BF24F0004450F165
:10295000000041F1000120EAD47040F2FE7C6245A3
:1029600000D270BDA84214BF4FF080444FF04044E5
:10297000002E08BF0024BEF1806FA8BFA1F1C041A6
:10298000BDE8704080F282804FF0000001F1C0414C
:1029900001F0004170479EEA0C0F0CEA131518BFB6
:1029A00095EA0C0F06D04FF0000081EA030E0EF0FE
:1029B000004170BD00F01CF88900013E00F007B82E
:1029C00000F009B84FEA430C5FEA5C5C08D081EA8A
:1029D000030100F05BB84FEA410C5FEA5C5CF6D1A2
:1029E0004FF00000014970470000FF070000F87F2A
:1029F0000EF1020E2EF0030E5EF8046B364205D483
:102A0000012A43EB030515F5001F12D8012841EBFD
:102A1000010C1CF5001F0CD80ED14FEAD17C15F526
:102A2000001F0CEB4C0C0CF1020C08BF4CEBD37CE0
:102A300004E04FF0080C01E04FEAD37C0CEB4C05AE
:102A400026FA05F606F00706B6F1040C06D20EEBE0
:102A5000860CBDE870404CF0010C6047DFE80CF0DC
:102A6000090B02024FF000414FF00000A1F50021D8
:102A700070BD19461046012851EB010418BFD4F56A
:102A8000001484BF002001F0004170BD0808A0F5CB
:102A900000114FEA3101704710B591EA030F48BFAA
:102AA00083F000433FF51AAE841A71EB030C07D292
:102AB00012198CF0004C43EB0C03001B61EB0C0172
:102AC000DFF8A4E14FEA1154A4EB135C1EEA430FB4
:102AD00018BF9EEA445F00F0B08023EA6E035242C2
:102AE00021EA0451C3EB6E0338BF5B1EDCF1200EFC
:102AF00025D322FA0CFE10EB0E0043FA0CFE41EB3C
:102B00000E01CCF1200E03FA0EFE10EB0E0051F177
:102B10000001CCF1200E29D412FA0EF201EB04517F
:102B2000BDE8104058BF7047401C1CBFB2F1004FB9
:102B3000704700280CBF491C20F00100704712EBC1
:102B4000020E43EB030218BF4FF0010E4EEA4202A1
:102B5000ACF1200CDCF11E0E54D943FA0CFE10EB44
:102B60000E0051F1FF31CCF11E0ED5D50EF1010E44
:102B700012FA0EFE404141EB010101EB445C5FEAB9
:102B80005C5C10D910EBDE7001EB045138BFBEF174
:102B9000004FBDE8104018BF704700280CBF491C0B
:102BA00020F00100704730D24FEAD42C11F500110B
:102BB00024F400641BD0B1FA81F20B3AA41AA41ECB
:102BC000D2F12003914030FA03F31943904001EB16
:102BD000CC71002C01EB0451BDE81040A8BF704738
:102BE00001F1C0414FF0000001F000417047B0FA20
:102BF00080F310FA03F100D110BDE41A173C480528
:102C0000C90AE4E701EB045110BD491001EB04517E
:102C1000BDE810404FEA300002E04FF0000170477D
:102C20004A0008BF0042F8D0B2F5001F28BF704725
:102C300001F000414FF0000070479EEA445F07D06A
:102C400011EA5E0FBDE8104004BF0021002070476C
:102C5000BDE8104070B5FFF7CBFE00BF40DFF63E89
:102C600083F00041104670470000E0FF43004FEA48
:102C7000D30C4FEA3C0C43401FBF40070CF160519E
:102C800013F0FE4F70471CF0006F03D100200CF0D2
:102C9000004170470CF0004343EA507010B540EA21
:102CA000CC0000F00AFA00BF000000924FEA0001D9
:102CB000FFF7ECBE4FF000414FF00000A1F50021FE
:102CC0007047000090EA010F48BF81F0004100F119
:102CD0005082421A3CBF801A89184FEAD0524FF0F6
:102CE0007F4C1CEA410FA2EBD15318BF9CEA026F44
:102CF00000F03B804FF0004C4CEA00204CEA0121F0
:102D000021FA03FC10EB0C0C1ED202F1FF325FEA39
:102D10001C2040EBC25038BF70471CF07F0F4FEAB9
:102D2000400C18BFBCF17F4F38BF7047C3F1200380
:102D3000994008BF20F00100BCF17F4F38BF7047B9
:102D4000A0F1C04000F0FFB94FEA3C00000A40EBA0
:102D5000C25028BF1CF0FF0F4FEA400CE6D018BF4E
:102D6000BCF17F4F38BF7047EAE79CEA026F05D09D
:102D700010EA5C0F08BF00F00040704710B500F08B
:102D80009CF900BF64FBBE3E014800F060BA00BF82
:102D90000000C07F4FF47F0C1CEAD0121EBF1CEA5B
:102DA000D11392EA0C0F93EA0C0F00F0858090EAA1
:102DB000010F48BF42F4807240F4000C41F400005F
:102DC0002CF07F4120F07F4000B58142A2EB03024E
:102DD0000FF2081CACEB504EC0F100009EF800E072
:102DE0004FEA4E0E00FB0EFC38BF49004FEA2C1C88
:102DF00002F5FA020CFB0EF34FEACE1E4FEA112C3D
:102E00004FEAC1210EEB635E42EB22420EFB0CFC4B
:102E10004FEA1C5300FB03114FEA112C4FEA01311A
:102E20000EFB0CFC4FEADC4C00FB0C11C14228BF2E
:102E300009184CEB03335DF804EB10EB410143EB55
:102E4000C250B2F57C0F38BF704729D512F0F00F91
:102E50001CBF00F1C04000F0004070470081828339
:102E60008485868788898B8C8D8E8F919293959699
:102E700097999A9C9D9FA0A2A3A5A7A8AAACAEB023
:102E8000B2B3B5B7B9BCBEC0C2C5C7C9CCCED1D428
:102E9000D7D9DCDFE2E6E9ECF0F3F7FAFE00000058
:102EA0004FEA400C0CF1807CBCF17E4F28BF70478C
:102EB000B0F1C04000F047B990EA010F0CEAD1131D
:102EC00048BF42F48072624538BF634507D213F4AD
:102ED0007F0F16D080EA010000F00040704710B567
:102EE00000F0EBF8097EFC3E00F005B880EA010036
:102EF00000F00040704780EA010000F0004000F060
:102F000022B912F47F0F04BF0248704780EA010023
:102F100000F019B90000C07F41000B0ED3F19E02F2
:102F200008D950F400034FEA032323FA02F048BF04
:102F30004042704710B500F0C0F800BF49922480AD
:102F4000002070476FF0004282EA200070470000C6
:102F5000C10DD1F19E0206DB4FEA002343F000438E
:102F600023FA02F07047004207D54FEA4001B1F161
:102F7000FE4F02D24FF00000704710B500F09DF8F0
:102F800049922480002070476FEA200070470000BB
:102F9000B0FA80F310FA03F2C3F19D030AD0D90509
:102FA00001EB1220530638BF704700F1010008BF43
:102FB00020F00100704700004FF47F0C1CEAD01293
:102FC0001EBF1CEAD11392EA0C0F93EA0C0F00F01B
:102FD000478090EA010F48BF42F480724FF0004CE6
:102FE0004CEA00204CEA012102EB0302A0FB011392
:102FF000A2F50002002918BF43F001035B0028BFBF
:103000004FEA330342EB22425FEA132C4CEBC250EF
:103010002EBFBCEB436FB2F57C0F70474FEA036CD9
:10302000BCF1004F08BF20F00100B2F57C0F38BFA3
:1030300070470BD582F0FF0212F5803FC8BF704782
:1030400000F1C040D8BF00F00040704700F5000C10
:103050005FEA4C0C48BF7047B0F1C04000F073B855
:1030600090EA010F0CEAD11348BF42F48072624526
:1030700038BF634504D280EA010000F00040704789
:1030800010B500F01AF800BF8900013E00F007B843
:1030900000F009B85FEA410C5FEA1C6C08D080EAD6
:1030A000010000F050B85FEA400C5FEA1C6CF6D1FA
:1030B0004FF00040A0F5800070470EF1020E2EF098
:1030C000030E5EF8044B244204D44FEA4102B2F1ED
:1030D0007F4F11D84FEA4003B3F17F4F0CD80ED188
:1030E0004FEAD07CB2F17F4F0CEB4C0C0CF1020C90
:1030F00008BF4CEBD17C04E04FF0080C01E04FEA34
:10310000D17C0CEB4C0324FA03F404F00704B4F173
:10311000040C06D20EEB840CBDE810404CF0010C00
:103120006047DFE80CF0070802024FF00040A0F50E
:10313000800010BD0846420018BFD2F1807288BFDF
:1031400000F0004010BDFF2141EAD050C00570479B
:1031500080F0004090EA010F7FF5BBAD81F00041A7
:1031600000F007B890EA010F48BF81F000413FF539
:10317000B0AD421A04D882F00042A0EB0200114424
:103180004FEAD0524FF07F4C1CEA410FA2EBD153D3
:1031900018BF9CEA026F4AD04FF0004C4CEA002066
:1031A0004CEA012121FA03FCB0EB0C0C0FD412F015
:1031B000FE0F36D05FEA4C001DD5001240EBC25026
:1031C00038BF70471CF03F0F18BF70470BE0A2F1EB
:1031D00001025FEA1C2040EBC25038BF70471CF070
:1031E0007F0F18BF7047C3F12003994014BF401EE2
:1031F00020F00100704780084FEA122308BF704793
:10320000B0FA80FCA2EB0C02CCF1280C60FA0CF0B6
:1032100093EA122F04BF00EBC25070474FEAC3700D
:103220007047130A5FEADC1008BF7047F6E79CEAB4
:10323000026F04D010EA5C0F08BF0020704710B581
:10324000FFF73BFF40DFF63E81F0004070470CF097
:103250000F03092B08BF082000F051800A2B0BD068
:10326000082B18BF704708BF1CF0400F0AD04FF062
:1032700000004FF0000170471CF0400F18BF4FF0E6
:10328000004070471CF0100F08D020F0704300F091
:103290007F4242EAD3014FEA4370704700F060403A
:1032A00021F07F4242EA000201F07F4040EA727062
:1032B00070474FF0FF0212EAD0521CBF92F0FF039A
:1032C0008B42C2BFD14200EBC1507047002A0AD0E6
:1032D000002B0BD0002900F00040A4BF40F0FE40BE
:1032E00040F40000704700F00040704743024FF088
:1032F0000B0C18BF4CF0806C7FF446AD70471CF48B
:10330000801F11D01CF4E02F03D06FEACC314900AC
:1033100070474FF04050EFF3008222F0704242EAD3
:10332000000282F3008870474FF000007047D69A81
:10333000F73DD5B8DDF9D5FAF75DFFFFEE7BF6DC9A
:10334000FF5EE61ACD16E69BEF3E6B30524B5A6C91
:103350008B705A4C628CB515B4946A8C8B2EB45316
:103360005A6B628C628C628C628C628C628D62CDD4
:1033700062EE6B305B109CD4FFFFFFFFFFFFF79EF8
:10338000EF7DFFFFFFFFFFFFFFFFFFFFFFFFFFFFDF
:10339000FFFFE73CF71DD578CD17C517EEFCFFFF03
:1033A000F75DEEDBEF1CC5BACD79DE1AEF5E841354
:1033B0004A0B522C7B0E6ACDAD3594735A2B5A6B47
:1033C00072CCB453626C626B626B5A6B5A6C5A6CFF
:1033D0005A8C5AAD5ACE630F63304ACEDEFBFFFFE4
:1033E000F7BEE71CFFFFFFFFFFFFFFFFFFFFFFFF31
:1033F000FFFFFFFFFFFFADB7FFFFF73DE69BDDFAE5
:10340000EEFCFF9EE619F71CE6DCACF8C5BAE67CDC
:10341000CDFA949549EB522B6ACDBDB8737049EA49
:103420005A6C5A4B728CB4335A4B5A4B5A4B5A4BB8
:103430005A4B5A4C5A6C5A8D5AAD5AEF6350428EC1
:10344000A536FFFFE73DFFDFFFFFFFFFFFFFFFFFA9
:10345000FFFFFFFFFFFFFFFFFFFFF79EFFFFFFBF25
:10346000FFBEFFDFFFFFF75DDDF9EE7BDE1AB5592A
:10347000B518EF1DE67BA53741EB41CA83F19CB43B
:1034800041A95A4C522B520B72ACAC94522B5A4B52
:10349000522B522B522B522B524C526C528D52AEFD
:1034A0005B0F4A8E6B90EF7CF7BEFFFFFFFFFFFFC5
:1034B000FFFFFFFFFFFFFFFFFFFFFFFFFFFFEF3DEE
:1034C000F71DE61AF71CFF5DFF1CFF7EFFFFEEBC39
:1034D000E63AC5DAA4B8EF1DDE3BA4D6420C41CAD9
:1034E000947394934A2B4A0B398941A97B6FAD168B
:1034F00041CA522B520B4A0B4A0B4A0B4A2B4A4CDD
:103500004A6D422C4A8D4A8E5B0FCE5AE73DFFDF53
:10351000FFFFFFFFFFFFFFFFFFFFFFFFFFFFFFFFBB
:10352000FFFFDE3AE67BEF1DF77DE65ABD18B44F8C
:10353000D593FF9FEEFDAD189434D69AF75ECE3B3F
:10354000422D522B6B2F736F6B4F41A9316931287C
:103550008C119CD439894A2B4A0A4A0A41EA41EA29
:1035600041EB420C420C31AA4A8D52AE8C5363B2ED
:103570008CB6E73DFFFFFFFFFFFFFFFFFFFFFFFFF1
:10358000FFFFFFFFFFFFDE5BBCF7E69BF79EC599E1
:103590009BF2A2A6A307B42DA38B8B2A93EDDEB9D1
:1035A000FFDFFFFF73D239A9739031698C1139891C
:1035B000318929079C5283F2398941CA398939896D
:1035C00041CA41EA39AA39CA39CA31AA4A6D739146
:1035D0006371531042CFB5D8FFFFFFFFFFFFFFFF1E
:1035E000FFFFFFFFFFFFFFFFFFFFCDB8B4B6BC95A5
:1035F000DDFAA4D8ABCCDD09CC69AB26A3669AE68C
:10360000AC2DFFBEFFFFFF7EB57818C7738F31AAC0
:103610005A2B62AD210721079BD0628D210720E63E
:1036200020C620E62928318921082108212818E709
:10363000528D6B91322C531042CF8494FFFFFFFFC9
:10364000FFFFFFFFFFFFFFFFFFFFF7DFF7DFDE3AC0
:10365000CD78C536CD95DE33F750FFB0FF0DFF2C8A
:10366000C3E5A284E697F77EDE1AEE9BCDDA420B25
:1036700021078C3131A972AC398918A69BD039A9A0
:1036800018A518C51044084429475AAD6B2F7BD1A3
:1036900073B0632E8C7273914A8D42AE53306BF2CD
:1036A000FFDEFFFFFFFFF7DFEFBEE7BFE7BFE7BFCC
:1036B000DFBFF77EDE59DE15E612F68DFF2CFEED3C
:1036C000FECCF66DE52EC385EE98E67CE67BFF9E8C
:1036D000FF9E73910844318884115A4B626B18A580
:1036E0007B0D398808441085526B9492AD359494C3
:1036F0007BD15B0E52AC8C52634F528DBD16633042
:10370000322C7413E77EEFDFDF9ED77EDF9EDF9ED5
:10371000E7BFE7BFDF9EE69BCD76EEBAD619EE6F28
:10372000FF2CE548DC49DCD2F673DC85DD71F73E21
:10373000E67BD5D9F75DC5B92969106520E66A8CA5
:10374000830D61E9A36E626B3988A4F4A4F5632F3D
:1037500039AA18C6210710A639A8CE79BDF9C639ED
:10376000C5578453ADD8D73DD75DD73DC6FDB6BC50
:10377000C6FDFFDFFFFFFFFFFFFFDE5ADE19D61A8F
:10378000D5B5FF0DFEABE549ED4E7A4B93AAFE6B26
:10379000D467EE98DE5BAB2BB40BFFBE84530844BA
:1037A00018A51064396792ACEC93C4B3838F4A4B6D
:1037B00018A520E729282107294818E7526BFFBEE2
:1037C000FFFFD5D9B5B9CF5E9DB95370C659FFFF7C
:1037D000FFFFFFFFC71DBEDCEFBFFFFFFFFFDE39AE
:1037E000DE7ABD17D570FECBF66CF689FEB27B0D86
:1037F0008AC7F62FE56ADCCAD48ADCE7C448D573E9
:10380000EEFD3189108418C610644147AB0EAB4FF2
:1038100018A5000318C52947296921072107210791
:103820007BD0F79DD5D8DE59AE5B7CF99D162A0B6F
:10383000B5D7FFFFFFFFFFFFFFFFD75ED77EE7BFD4
:10384000EFBFE6FCD619CDD7DDEDF70FF6CEFEA81B
:10385000FF57C46EA262D530EDADEE10E58DFF14BA
:10386000FFDDDDF5D53294551064108541473948A8
:1038700028C5BB8F938F49E918C618A610A618C68D
:1038800018C639C952ACACB4BD16CE7ABE3A7CF873
:10389000D6FDADD8B5D8FFFFFFFFFFFFFFFFFFFF4D
:1038A000EF9EDF9EDF9EF7BDF714F68CF6EAFF8CE5
:1038B000F74BFFAFFEFAF6B3EDE5D4AEEDF0F6F759
:1038C000F6FAF6D8FFBCF6F7DD69D551526C1084D4
:1038D000520A18C5108451E9BC728B6F8B4E7B6FF6
:1038E0004A4B318931476B0D8B90C577B5B89CF643
:1038F00073D2532FA577FFFFFFFFFFFFFFFFFFFFEF
:10390000FFFFFFFFFFFFD73DDF5DEEB4E588F6491F
:10391000DDCBEEECF74DE58EFF5CF6B9FF57FF7B94
:10392000F6B8F696FEF9C42FB491FF3CFF13DD27DD
:10393000A3CC5A6C314710A518E61084726B93B073
:103940006AED62CC84318BF18BB0A411BC94A4F6E7
:103950009CD57C1352EF29AA3A0ABDF8FFFFFFFF5E
:10396000FFFFFFFFFFFFFFFFE75DF79EFFFFDE5258
:10397000E568CB86BB88EE8CCBA6E572FFBEFFBEAA
:10398000FF3CFF1AFF7DF6FAFF7C938E58E1A38D72
:10399000F6B8F64DBBC7B4F52127108420E618C64B
:1039A000310651EA7B8F8390396810848BD09390D5
:1039B0003168422B528D424C31AA29A9298931EA1A
:1039C000D6BAFFFFFFFFFFFFFFFFEF7DE75DFFFFC1
:1039D000FFFFEF15BC2CA9E4E567E4E7C368F6F543
:1039E000FFBEF6FAFEB8FEF9FF9DFF7CF77EE5AC60
:1039F000BB6360E279C7FE74DD0AC4F19C542948B8
:103A000018A5210720E6522A212749EA8B90AC729B
:103A10009BF1294810C618E7190721282148298851
:103A200031CA21697C31FFFFFFFFFFFFF7BEE71CB2
:103A3000FFFFFFFFFFFFDE18C4D4CCAFEDC8DD6B86
:103A4000DD8EFED2FF9EFF1BFED9FF3BFF9DFFBE1A
:103A5000FF7DFF51F667A327AB6DF5D4EDEECCAC3F
:103A6000C48DBDB739EA20E62928398952AC1086C1
:103A70004A2B4A2B18C72108210718E619062127C7
:103A800021482989298929A99575BEDBF79EFFFF61
:103A9000DF1CF79EFFFFFFFFFFFFDE19F79EEF3AE7
:103AA000D60FFF30FEABF66FFF5CFF5CFF9DFF9D06
:103AB000FF9DFF9DFF9DFEDAF6B6FEB8FF1BF69652
:103AC000F66CEE4FB3EABC2DBD9841EB18C618A6B4
:103AD0005AAC7BB0420A18E7212818E718C618E646
:103AE000190621272148190721488D14C6DBCF3C30
:103AF000DF7DDF1CE71CD658EEFBFFFFFFFFFFFF5B
:103B0000FFDFEF5CE68FF607FEABFFB3F6F9F73C9D
:103B1000FF9DFF9DFFBEFFBEFF9DFF9DFF3CF6BAD0
:103B2000EE77F6D4F66EE5AAC40BB44EC536C4F6ED
:103B30008BD1632E420A5A6B314820E7210718E6E1
:103B400018E618E6210618E710C64A4BC618C71C27
:103B5000D73CE77DE7BED73CD6BAE637F657EF3C11
:103B6000FFFFFFFFFFFFFFDCEE2DEDF1E655D61462
:103B7000D615FFBEFFDFFF7DF6B9FF7DFFBEFF9DBF
:103B8000FF9DFF3CF6FAEE74EE0BD446E4E6C42744
:103B9000BB8ACD13EEDBEF5D843239895A8B212845
:103BA00018A610A61085108510A531887BD0EF5C73
:103BB000EFBEB6BAF7BEFFDFBE79DF9DCE99F678CD
:103BC000FE77E6B9FFFFFFBEF79EDE36D596CD78CD
:103BD000A414C4F3E650F75CFF9EF79EEE38F73C62
:103BE000FFBEFF7DFF3CFF7DF73BEDEDF6CADCE756
:103BF000F5A7F5E8D425C3E5BBC8BBEBE639BD376F
:103C000093B183D1420A422B4A6C522B8370CDF977
:103C1000FFDFFFFFDF5DC6DBFFFFFFBECE39B699DA
:103C2000CE37FE98FE57B5D5DF7CF71CEEFCDDB82D
:103C3000C516832EAC8BF64A8369B4F4FFFEFFDE13
:103C4000FFFFFFFFFFBEFFBEEEB8F6F7F6B2E529B5
:103C5000F66ADCE7F687FEC9E5ECF687E4E5E546BB
:103C6000BCB2CD79C558D5D9E6DBEF3DD65BCD5892
:103C7000DE3AE71CFFFFFFBECF1CDEDBFFFFD6599D
:103C8000F77DEF9EDE78FEB8EDF6C636C71AD5B7DB
:103C9000EE9AFF7E83D183CBFFAE7B67000518C50C
:103CA0005AAB83B08C129432D575E634EE0EFECE4C
:103CB000F68CE549E4E4DD09EEB1FF09EE29CD8794
:103CC0005226C4E7D486A34AA3CEAC50730C9C7290
:103CD000A538C599E5B8F6FCFFFFF7BEBEBBEF5DA2
:103CE000EEDBDE7AFFFFEF3CEE99FEB8E5D5EF3C68
:103CF000FFFFE6DCCD56A49341EB5A6BBD09296763
:103D0000290639A720E618A608865A4CC516B49588
:103D1000B3B0EDB3E570EDE8F626E549DDB8BD30AA
:103D2000C526732618C64A0772E6C4869B66BCABD6
:103D3000628941C88C71CCF6ECD6FF3DFFDEDF3CDA
:103D40008DF9BDF9E619FFDFFFFFDEDAFEDAFE7757
:103D5000DDF6FFDFFFDFFFFFF79E7BB03989292803
:103D60003987398841E93189316939CB31AB837180
:103D7000E63AEF3DDE19E617EEDBDCCAF5E6E54B89
:103D80007AED20C5292349E839A931882107316511
:103D90005A675A6A5A68522B526E72B0D475F73C01
:103DA000E6FBE73C9D779CF5E71BFFFFF79EE6BA35
:103DB000FEB9FE37DE37F7DFEEFBFFFFF7DFAD16AC
:103DC000524D20E62928316931AA31AA39AA31ABEE
:103DD00031AB318A6B2FFFDEE6DBDE18E69CE613A3
:103DE000E525ED656A446B0D943239A939A939A9E5
:103DF0002948734F9476316B0864108420E7318B27
:103E00007B50DEBADE9BCDD9E6DBCE9ABD77D69A63
:103E1000DEFBF6DAFE98E5B5DE99E71BFED9FFFF7B
:103E2000EF7EB538318918A5294839AA31AA31AAB7
:103E300031AA31AA31AB294A084583F0FFDFFFFFE1
:103E4000C5589BCED485F5A7A327D638FF5D522B46
:103E500031882948732FB57831AA29285A4C7B70AC
:103E60007B7041AA5A8CF7BEC578BCD6DEDBDEBBC0
:103E7000AC14BD36D678FEFAFE57E616D69AEEDAC0
:103E8000FE98FFFFE73D9CB618C6294839AA39AA13
:103E900031AA31AA31AA31AA31AA31AA212810A601
:103EA00062ED8C3239A929689B0BD532CD57CCB441
:103EB000FFDEBD56316929278C3339EB524CC5974B
:103EC000E6DBFFBEFFDFCD99B4D5F7BECDF9D63A1C
:103ED000EF5CDEDBBD17D5F9FF3CFE78FE77D5B68B
:103EE000DE9AFEFAFE37FFFFE73D7391292841CBAA
:103EF00039CA39AA39AA31AA31AA31AA31AA31ABB1
:103F000031AB318A108508441065C596E6BCBC9576
:103F1000E56F932AA4339BD239AA4A2C18C77BB0E9
:103F2000FFDFFFDFEF3CEF7DD63AC557EF3DE6DC24
:103F3000C557C557CD97BD36BCB5EEBAFEB9FE988C
:103F4000E594C514FEFAFE57FE57F7BEE6FD7392E0
:103F500039AA41EB39CA39CA39AA39AA39AA318AE8
:103F600031AA29692128210818A5210721086A8C6E
:103F7000EEBBC576CBA49B0418A618A6734F83F39B
:103F8000524BF79EF79EEF3DEF5DE71DBD37AC95B9
:103F9000BCB4D597E5D7E5D6E5F6E594E595FE9969
:103FA000FE36FE98EE17FEFAFE98FE78FE789493A1
:103FB0008BD141EA3168318939AA39CA39AA3169C4
:103FC000294939CB294818E62108212818E720E794
:103FD000210810A6830E6ACEB407F5A8838821278E
:103FE00083B34A2CD618FFDFEF5DEF1DE6DBEF7DD4
:103FF000B517BC72EE37FF9CFFBEFFDEFEFAF65728
:10400000FEDAFE16FE36FE16FE98FE77F5B4F5F6DD
:10401000FE56290620C53146526B526B39C93168AC
:104020003189526C8C52DEDB5AEE10652949318A97
:10403000294821072107210720E720E79388EE0A76
:10404000FECDE62F526C736FFFDFEF5DEF5DFFDE9D
:10405000F77DEF5CBD35E573FF9DFF7DFF7DFF5C68
:10406000FEFAFF9DFE99FDF5FDB4FDD4FDB4F532D9
:10407000F552FDD4FDF55A288BCED699FFFFF7BE39
:10408000E71CD69ADEDBF7BEFFFFFFFF8C9418A675
:1040900039AA39CB294820E720E718C620E618C6F8
:1040A00029475A897B29AC0A72E7ACF5FFFFEF7DFF
:1040B000F79ED65ACDF9CDD8DCF2FE57FF7CFF7DB6
:1040C000FF7DFF7DFF9DFF3CFE36FE15FE36FE5751
:1040D000FE16FE36FE98FE98FED9B533FFBEFFFFF2
:1040E000FFFFFFFFFFFFFFFFFFFFFFFFFFDFFFFF00
:1040F000C65A318A39CB39CB212818C6108418A565
:104100002927210620E6108520E610853946B4D4FB
:10411000EF5DF77DEF7EBD37BD16AC34CC50FE575A
:10412000FF5CFF7CFF7CFF7DFF7DFEDAFE16FE5705
:10413000FE98FE98FE98FEB9FED9F6378B6DFFDF2C
:10414000FFFFFFFFFFFFFFFFFFFFFFFFFFFFFFFF7F
:10415000FFFFFFFFD6BB420C39CB39CA21071064E1
:1041600018A529482948210718C5290662AF20E764
:1041700018859391CDB8EF5CF7BEF7BEEF7DACB676
:10418000A390F616FEFAFF5CFF5CFF7CFF5CFE78F6
:10419000FE77FE77FE16FDF5FDD4F5B4AC1049C8E8
:1041A00020E6FFFFFFFFFFFFFFFFFFFFFFFFFFFF17
:1041B000FFFFFFFFFFFFFFFFD6DB422C39CA39AA02
:1041C00018C61084292729482948210718A5628E76
:1041D00049EC108420E662ADB454E6FCF79EF79EED
:1041E000DEBBDE9BBCF6EDB5FF1BFF5CFF5CFF5C3E
:1041F000FED9FE36F5D5FDB4FDB4EDB4E595C49316
:1042000041CA20E62927FFFFFFFFFFFFFFFFFFFF57
:10421000FFFFFFFFFFFFFFFFFFFFFFFFE73D5ACF5D
:1042200039CA31A9108418C529272928294818E630
:10423000520B6AAF10A518A5398839C96ACDDE3985
:10424000EF5DEF5DE71CCDF9C493FE77FF7CFF5C6B
:10425000FF1BFED9F636BC72BCB5B433CD57C5765C
:10426000E5D89390292720E52906FFFFFFFFFFFFF0
:10427000FFFFFFFFFFFFFFFFFFFFFFFFFFFFFFFF4E
:10428000F7BF73B239CA294718C521072107292763
:10429000210620E5520B292710A4292741CA39AA53
:1042A00039AA8370D5D9EF7DD63AA3B2DD96FF7CCB
:1042B000FF3BFED9FE98EDD5B432A3D3B4B5CDB74C
:1042C000CDD8DDF8D4D54A0A18E629063147FFFFD4
:1042D000FFFFFFFFFFFFFFFFFFFFFFFFFFFFFFFFEE
:1042E000FFFFFFFFFFFFA516294831682948210776
:1042F00020E6292762AD398918A518C520E539A916
:1043000039C939A9318931898B70D5D9D63ACD5679
:10431000FF5CFF1AF616DD75C4B4A3D1BCF6B4B6C3
:10432000BCF5FF3CF71CE5D8A3B12968292729274C
:104330003127FFFFFFFFFFFFFFFFFFFFFFFFFFFF33
:10434000FFFFFFFFFFFFFFFFFFFFCE7A83F262EE6A
:10435000210720E641A993F383B2292718C520E558
:10436000398839C939A939A92948210720E7730DA6
:10437000F6DAFF5BFEFAF637C4F5AC33AC54BCD6C4
:10438000E69BC577DDF8F6DBEEBBDD375A2C18E689
:10439000210721062907FFFFFFFFFFFFFFFFFFFFA8
:1043A000FFFFFFFFFFFFFFFFFFFFFFFFFFDFE73C18
:1043B000F77E941462CF18E6628D5A8D20E620E5D0
:1043C0002106398839A939A939A931682107210776
:1043D000526BCD95FEFAFEB8D513B474B495BC14E7
:1043E000D536E639E67AE639EE7AEE5AF69AAC1325
:1043F00020E720E6210729072906FFFFFFFFFFFF2F
:10440000FFFFFFFFFFDFFFDFFFFFFFFFFFFFFFFFFC
:10441000EF5DFFFF8C7441CA41EA2106210618E5D1
:1044200029263147398839893989398931682927D5
:1044300018C641E9EE78FE98F636D4F4A2F0A2F15F
:10444000B372BBD3D557E639E619E619E5F9E63973
:10445000E5D86A6D190718C6108510A52906FFFF53
:10446000FFFFFFFFF79EDEDBE73CEF5DFFFFFFFF97
:10447000FFFFDEFBE73CE71D8C5239C921062927E7
:1044800029263168398839893988398831893188CC
:104490002927210720E62928418841A73147720BA7
:1044A000D415C3F4CC75D557DDD8DDD8DDD8DDD82B
:1044B000DD77CCB5B35271ED216931A9628B93D010
:1044C000BCF4FFFFFFFFFFFFF7BEEF5DFFFFFFFF45
:1044D000FFFFFFFFFFFFFFDFFFDFFFDFFFFFF7DF74
:1044E000BDF84A0A10842927398839A931883188CA
:1044F00031882948210720E620E629280864088415
:10450000192818849AAECBF4C3F4CC95D557D59816
:10451000D537CCB6D475C3F39A6E920DAB71D596E0
:10452000EE19EE39EE18FFFFFFFFFFFFFFFFFFFF61
:10453000FFFFFFFFFFFFFFFFFFFFFFFFFFFFFFFF8B
:10454000FFFFFFFFFFFFB5B73188108418C52106B4
:10455000316831883148210620E620E620E721072E
:10456000106429AA31AB10A530C6AAF0C3F4C45414
:10457000CCF6CD17CC95C434C3F4CBF4AAAFA2CFFC
:10458000DD97E5B8DD97DD97DD97FFFFFFFFFFFFC4
:10459000FFFFFFFFFFFFFFFFFFFFFFFFFFFFDEDB70
:1045A000BD96BDD7E71CF7BED6BABDB8420A18A45F
:1045B00018C518C520C52947294820E620E620E669
:1045C000210718A510A529892148210810A641080E
:1045D000A2D0C414CCD6CCB5C434C3F4C3B3C3B3D3
:1045E000A2AFA2AFC434DD77DD77DD77DD97FFFFC3
:1045F000FFFFFFFFFFFFF79EF77DF77EFFDFE6FC83
:10460000ACD4836F72ED628C62CD94326B2F2948EB
:1046100021062106108420E518C5188421062927C3
:10462000210721062107106418C518C618C62128BD
:1046300021281907494A9290AB93B3D3BBD3BBD37C
:10464000C3B3B332924EA2B0BBB3D557DD77DD779B
:10465000DD77FFFFFFFFFFDFF77DFFBEF77EEEBBDD
:10466000CDB79C3193AF8BB0836F6AED520A398816
:104670003989292729472947210620E518A539A77F
:1046800039A718C520E618A518A5106418C6108407
:1046900010842108210821282108516B8A5092B1E9
:1046A00092B0A2D09AB08A2E922EAAF2C434D557D4
:1046B000D557D557D557F0F0F0F0F0F0F0F0F0F016
:1046C00000000000000000000000000000000404E2
:1046D000040404000004000014140A000000000098
:1046E0000000000000000A0A1F0A0A1F0A0A000050
:1046F00000040E1505060C14150E0400000012151A
:104700000D152E2C2A1200000000040A0A36151579
:104710002916000002020100000000000000000055
:104720001008080404040404080810000204040823
:10473000080808080404020000000004150E0E1505
:104740000400000000000008083E08080000000007
:104750000000000000000000020201000000000054
:10476000003F00000000000000000000000000000A
:1047700000020000002010100808040402020100DA
:1047800000000E1111111111110E0000000004069D
:1047900004040404040E000000000E1111080402B9
:1047A000011F000000000E11100C1010110E00006F
:1047B0000000080C0C0A091F081C000000001F0163
:1047C000010F1110110E000000000C12010D131149
:1047D000110E000000001E1008080404040400006C
:1047E00000000E11110E1111110E000000000E112B
:1047F0001119161009060000000000000400000056
:104800000004000000000000000400000004040098
:10481000000010080402020408100000000000005C
:104820003F003F00000000000000020408101008D4
:104830000402000000000E1111080404000400002E
:1048400000001C22292D2D1D221C00000000040444
:104850000C0A0A1E1233000000000F12120E121270
:10486000120F000000001E1101010101110E0000D5
:1048700000000F1212121212120F000000001F127D
:104880000A0E0A02121F000000001F120A0E0A027E
:104890000207000000001C1201013911120C000077
:1048A00000003312121E12121233000000001F0407
:1048B00004040404041F000000003E08080808085F
:1048C00008080907000037120A060A12123700000A
:1048D0000000070202020202223F000000003B1B10
:1048E0001B1B15151535000000003B1216161A1A71
:1048F0001217000000000E1111111111110E00000D
:1049000000000F12120E02020207000000000E113A
:1049100011111117190E180000000F12120E0A12B1
:104920001237000000001E1101060810110F0000D0
:1049300000001F1504040404040E000000003312DC
:1049400012121212120C000000003312120A0A0C8A
:10495000040400000000151515150E0A0A0A0000CF
:1049600000001B0A0A04040A0A1B000000001B0ABC
:104970000A0A0404040E000000001F0908040402CF
:10498000121F00001C0404040404040404041C009A
:104990000002020404040808081010000E080808A9
:1049A0000808080808080E00040A000000000000BB
:1049B0000000000000000000000000000000003FB8
:1049C00002040000000000000000000000000000E1
:1049D000000C121C123C000000030202020E121214
:1049E000120E000000000000001C1202120C000059
:1049F00000181010101C1212123C000000000000E1
:104A0000000C121E021C000000182404041E0404E2
:104A1000041E000000000000003C120C021C221CBE
:104A200000030202020E12121237000000040400FA
:104A300000060404040E000000080800000C08082A
:104A40000808080700030202021A0A060A130000F7
:104A50000007040404040404041F00000000000014
:104A6000000F15151515000000000000000F1212B0
:104A70001237000000000000000C1212120C00009F
:104A800000000000000F1212120E020700000000CA
:104A9000001C1212121C103800000000001B06023D
:104AA0000207000000000000001E020C101E0000A3
:104AB00000000004041E0404041C000000000000A8
:104AC000001B1212123C000000000000001B0A0A2A
:104AD00004040000000000000015150E0A0A000082
:104AE00000000000001B0A040A1B00000000000078
:104AF000003312120C08040300000000001E08041A
:104B0000041E000018080808080C08080808180007
:104B10000808080808080808080808080604040423
:104B20000408040404040600160900000000000044
:104B30000000000000000000000000000000000075
:104B4000000000000000000808080808080800002D
:104B50001818000000486C2412000000000000003B
:104B6000000000000000002424247F1212127F1293
:104B7000121200000000081C2A2A0A0C1828282AF1
:104B80002A1C080800000022251515152A5854541F
:104B9000542200000000000C1212120A762529117E
:104BA000916E0000000606040300000000000000F3
:104BB0000000000000402010100808080808081035
:104BC00010204000000204080810101010101008F7
:104BD000080402000000000008086B1C1C6B080899
:104BE0000000000000000000080808087F0808080E
:104BF00008000000000000000000000000000000AD
:104C0000060604030000000000000000FE00000093
:104C10000000000000000000000000000000000094
:104C20000606000000008040402020101008080404
:104C30000402020000000018244242424242424262
:104C400024180000000000080E08080808080808DA
:104C5000083E00000000003C4242422020100804B0
:104C6000427E00000000003C4242201820404042AA
:104C7000221C0000000000203028242422227E2054
:104C8000207800000000007E0202021A2640404206
:104C9000221C0000000000382402021A2642424270
:104CA000241800000000007E2222101008080808C6
:104CB000080800000000003C4242422418244242FE
:104CC000423C000000000018244242426458404028
:104CD000241C000000000000000018180000000064
:104CE000181800000000000000000008000000008C
:104CF0000008080400000040201008040204081006
:104D0000204000000000000000007F0000007F0045
:104D100000000000000000020408102040201008DD
:104D2000040200000000003C4242464020101000F7
:104D3000181800000000001C225A555555552D42E8
:104D4000221C00000000000808181414243C224211
:104D500042E700000000001F2222221E224242429F
:104D6000221F00000000007C4242010101010142BB
:104D7000221C00000000001F2242424242424242E6
:104D8000221F00000000003F4212121E12120242B7
:104D9000423F00000000003F4212121E12120202A7
:104DA000020700000000003C2222010101712122C3
:104DB000221C0000000000E7424242427E42424282
:104DC00042E700000000003E08080808080808083C
:104DD000083E00000000007C101010101010101091
:104DE0001010110F0000007722120A0E0A12122270
:104DF0002277000000000007020202020202020203
:104E0000427F000000000077363636362A2A2A2AEA
:104E10002A6B0000000000E346464A4A52525262A2
:104E2000624700000000001C2241414141414141D4
:104E3000221C00000000003F424242423E020202A9
:104E4000020700000000001C2241414141414D5336
:104E5000321C60000000003F4242423E12122222F9
:104E600042C700000000007C424202041820404279
:104E7000423E00000000007F4908080808080808B2
:104E8000081C0000000000E7424242424242424207
:104E9000423C0000000000E742422224241414187F
:104EA000080800000000006B494949495555362261
:104EB00022220000000000E74224241818182424AD
:104EC00042E70000000000772222141408080808B6
:104ED000081C00000000007E21201010080404427D
:104EE000423F000000780808080808080808080879
:104EF00008087800000002020404080808101020C6
:104F000020204040001E1010101010101010101023
:104F100010101E00003844000000000000000000D7
:104F20000000000000000000000000000000000081
:104F3000000000FF00060800000000000000000064
:104F400000000000000000000000003C42784442E5
:104F500042FC0000000000030202021A2642424204
:104F6000261A00000000000000000038440202027F
:104F70004438000000000060404040784442424213
:104F800064D80000000000000000003C427E0202E5
:104F9000423C0000000000F08808087E080808086D
:104FA000083E0000000000000000007C22221C02DD
:104FB0003C42423C000000030202023A46424242A6
:104FC00042E700000000000C0C00000E0808080872
:104FD000083E000000000030300000382020202073
:104FE0002020221E0000000302020272120A161282
:104FF000227700000000000E0808080808080808CA
:10500000083E0000000000000000007F9292929293
:1050100092B70000000000000000003B4642424200
:1050200042E70000000000000000003C4242424213
:10503000423C0000000000000000001B26424242EB
:10504000221E020700000000000000784442424295
:10505000447840E000000000000000774C040404A5
:10506000041F0000000000000000007C42023C40E1
:10507000423E0000000000000008083E0808080842
:10508000083000000000000000000063424242427D
:1050900062DC000000000000000000E7422424144D
:1050A0000808000000000000000000EB49495555C9
:1050B00022220000000000000000007624181818CA
:1050C000246E000000000000000000E742242414C9
:1050D00018080807000000000000007E22100808E1
:1050E000447E000000C0202020202010202020200E
:1050F0002020C000101010101010101010101010F0
:105100001010101000060808080808100808080801
:10511000080806000C32C200000000000000000079
:10512000000000000000000000000000000000007F
:10513000000000000000000000000000000000006F
:10514000000000000000000000000000000000005F
:10515000000000000000000000000000600060008F
:1051600060006000600060006000400020002000DF
:1051700020000000000000006000600060000000EF
:105180000000000000000000600660063003980187
:105190008800440000000000000000000000000043
:1051A00000000000000000000000000000000000FF
:1051B00000000000000000000000000010021002CB
:1051C00010021002FE07FE0708020801080108018C
:1051D0000801FE07FE0704010401040104010000A8
:1051E0000000000000000000000040004000F0014E
:1051F00058034C03CC034C0058007000E000C00181
:10520000C00140034C035C034C034801F000400024
:105210004000000000000000000000000E010A0134
:10522000910091009100510051003A00AE03A0029C
:1052300050045004480448044804840284030000D5
:1052400000000000000000000000000038006C00BA
:105250006C006C006C006C002C0098071C011A019B
:10526000330133016301E300C308C6093C070000B2
:1052700000000000000000000C001C0010001000E6
:105280000800040000000000000000000000000012
:10529000000000000000000000000000000000000E
:1052A0000000000000000000000400020001800077
:1052B000800040004000200020002000200020004E
:1052C000200020004000400080008000000100021B
:1052D00000040000000000000200040008001000AC
:1052E000100020002000400040004000400040002E
:1052F00040004000200020001000100008000400C2
:10530000020000000000000000000000000000009B
:105310004000C0004000460C4E0FD001F0015E0F6F
:10532000460C40004000400000000000000000006B
:10533000000000000000000000000000000000006D
:10534000000040004000400040004000FE0F4000D0
:10535000400040004000400000000000000000004D
:10536000000000000000000000000000000000003D
:10537000000000000000000000000000000000002D
:1053800000000000000000000C001C0010001000D5
:105390000800040000000000000000000000000001
:1053A000000000000000000000000000FE070000F8
:1053B00000000000000000000000000000000000ED
:1053C00000000000000000000000000000000000DD
:1053D00000000000000000000000000000000000CD
:1053E00000000000000000001C001C001C00000069
:1053F000000000000000000000040006000200039E
:10540000000100018000800040004000600020009A
:10541000200010001000080008000C000400060026
:105420000200000000000000000000000000F0008A
:1054300098010C030C030606060606060606060679
:105440000606060606060C030C039801F000000091
:10545000000000000000000000000000000040000C
:105460007C00600060006000600060006000600020
:10547000600060006000600060006000FC030000ED
:105480000000000000000000000000000000F80024
:105490008401020306030603000300018001C0002B
:1054A000600020001000080204020602FE03000053
:1054B0000000000000000000000000000000780074
:1054C000C6008601860180018001C0007000800155
:1054D000000100030003060306038601F800000034
:1054E000000000000000000000000000000080013B
:1054F0008001C001A001A001900188018801840100
:105500008201FE0F8001800180018001E007000020
:105510000000000000000000000000000000FC038C
:1055200004000400040004000400F4008C010403DF
:10553000000300030603060382018401F800000053
:105540000000000000000000000000000000E0017A
:1055500018030C030C0004000600E60116030E06F7
:1055600006060606060604060C021803F0000000F4
:105570000000000000000000000000000000F8072C
:105580000C060402040100010001800080004000BC
:1055900040004000600060006000600060000000AB
:1055A0000000000000000000000000000000F80102
:1055B0000C030606060606060C021C03F000C801D2
:1055C0000C0306060606060606060C03F00100009C
:1055D0000000000000000000000000000000F000DB
:1055E0000C010C03060206060606060606078C06D4
:1055F00078060006000300030C018C01780000000F
:10560000000000000000000000000000000000009A
:105610000000000000000000E000E000E0000000EA
:105620000000000000000000E000E000E0000000DA
:10563000000000000000000000000000000000006A
:10564000000000000000000060006000000000009A
:10565000000000000000000000006000600040004A
:1056600020002000000000000000000000040002F4
:105670000001800040002000100008000400080025
:105680001000200040008000000100020004000023
:10569000000000000000000000000000000000000A
:1056A0000000000000000000FE07000000000000F5
:1056B000FE070000000000000000000000000000E5
:1056C00000000000000000000000000004000800CE
:1056D00010002000400080000001000200040002D1
:1056E00000018000400020001000080004000000BD
:1056F0000000000000000000000000000000E003C7
:105700001806040C040C0C0C0C0C00078001400063
:105710004000400000000000E000E000E000000069
:10572000000000000000000000000000E00018037E
:105730000C02CC0564056605A605B604B604B604DD
:10574000B604B602E4010C040C021803F0000000D9
:1057500000000000000000000000000000006000E9
:1057600060005000D000900090008800880108017F
:10577000F801040304030402020202060F0F0000F2
:105780000000000000000000000000000000FE001B
:105790008C030C030C030C030C038C01FC000C03A6
:1057A0000C020C060C060C060C060C03FE01000095
:1057B0000000000000000000000000000000E00306
:1057C00018030C060C04040406000600060006007C
:1057D0000600060006040C040C021803F00000008A
:1057E00000000000000000000000000000007F003A
:1057F0008C010C030C030C060C060C060C060C06A4
:105800000C060C060C060C030C038C017F00000038
:105810000000000000000000000000000000FF0386
:10582000060306040604060086008600FE008600C5
:10583000860086000600060406040602FF03000038
:105840000000000000000000000000000000FF0356
:10585000060306040604060086008600FE00860095
:105860008600860006000600060006001F000000F5
:105870000000000000000000000000000000F00038
:1058800018010C020C0204020600060006000600C5
:10589000C60F060306030C030C031803F0000000F8
:1058A00000000000000000000000000000000F0FDA
:1058B000060606060606060606060606FE0706068F
:1058C0000606060606060606060606060F0F000072
:1058D0000000000000000000000000000000FC03C9
:1058E00060006000600060006000600060006000B8
:1058F000600060006000600060006000FC03000069
:105900000000000000000000000000000000F80798
:10591000C000C000C000C000C000C000C000C00087
:10592000C000C000C000C000C000C000C000C60071
:1059300066003C0000000000000000000000CF03F3
:105940008601C60046002600160036002E006E00B6
:105950004600C60086008601060106038F07000088
:1059600000000000000000000000000000001F0018
:1059700006000600060006000600060006000600F7
:10598000060006000600060406040602FF030000E7
:1059900000000000000000000000000000000707F9
:1059A000860386038E038E034E034E034A035A0377
:1059B0005A033A033203320332031203870700000B
:1059C00000000000000000000000000000008E0F3A
:1059D0000C021C021C0234023402640264024402FF
:1059E000C402840284038403040304031F0200002E
:1059F0000000000000000000000000000000F000B7
:105A000098010C030C0206060606060606060606A4
:105A10000606060606060C020C039801F0000000BC
:105A20000000000000000000000000000000FF0077
:105A30000603060606060606060606068603FE009A
:105A40000600060006000600060006001F00000013
:105A50000000000000000000000000000000F00056
:105A600098010C030C020606060606060606060644
:105A70000606060676064C02CC039801F000800765
:105A80000003000000000000000000000000FF0113
:105A9000060306060606060606060603FE00460080
:105AA000C600860086010603060306060F0E0000E8
:105AB0000000000000000000000000000000F802EC
:105AC0000C030602060206000E003C00F800E0038C
:105AD000800300070206020606060C03F001000020
