:020000040800F2
:100000009806002089010008C90A0008C1070008F5
:100010004908000881050008191A000800000000BE
:1000200000000000000000000000000003150008B0
:10003000D705000800000000091300083118000867
:10004000A3010008A3010008A3010008A301000800
:10005000A3010008A3010008A3010008D9050008B6
:10006000A3010008A3010008A3010008A3010008E0
:10007000A3010008A3010008A3010008A3010008D0
:10008000A3010008A3010008A3010008A3010008C0
:10009000A3010008A3010008A3010008A3010008B0
:1000A000A3010008A3010008A3010008A3010008A0
:1000B000A30100088518000800000000A301000843
:1000C000A30100080000000000000000A3010008D8
:1000D00000000000A3010008A301000800000000C8
:1000E000A3010008A3010008A301000800F002F822
:1000F00000F03AF80AA090E8000C82448344AAF188
:100100000107DA4501D100F02FF8AFF2090EBAE885
:100110000F0013F0010F18BFFB1A43F0010318473B
:100120007026000090260000103A24BF78C878C1DD
:10013000FAD8520724BF30C830C144BF04680C60ED
:10014000704700000023002400250026103A28BF35
:1001500078C1FBD8520728BF30C148BF0B60704739
:100160001FB51FBD10B510BD00F031F81146FFF7E7
:10017000F7FF01F053FC00F04FF803B4FFF7F2FF74
:1001800003BC00F057F800000948804709480047C1
:10019000FEE7FEE7FEE7FEE7FEE7FEE7FEE7FEE737
:1001A000FEE7FEE704480549054A064B7047000094
:1001B00035180008ED00000898000020980600207F
:1001C00098020020980200207047704770477546DB
:1001D00000F02CF8AE4605006946534620F00700B3
:1001E000854618B020B5FFF7DDFFBDE820404FF091
:1001F00000064FF000074FF000084FF0000B21F011
:100200000701AC46ACE8C009ACE8C009ACE8C009DD
:10021000ACE8C0098D46704710B50446AFF30080C6
:100220002046BDE81040FFF7A8BF00000048704717
:100230003800002001491820ABBEFEE7260002006E
:100240007047000070B5124E304600F053F900249C
:100250004FF47A75304600F0E8F838B1AC4201D17D
:10026000012070BD641CA4B2AC42F3D3304600F050
:1002700052F90024304600F0D1F838B1AC4201D137
:10028000012070BD641CA4B2AC42F3D3002070BD49
:100290000024014010B586B000F09EF8012148020C
:1002A00001F05AF84FF4004001F030F81B4C0623DF
:1002B00001220021204600F0E3F80623022201215A
:1002C000204600F0DDF8062303220221204600F03C
:1002D000D7F8062304220321204600F0D1F8062394
:1002E00005220821204600F0CBF8002101914FF4AF
:1002F00060220392049101218DF809108DF80810F5
:1003000005218DF8141001A9204600F095F801216F
:10031000204600F017F806B010BD00000024014090
:1003200010B500F059F8FFF7B5FF00F017F8BDE879
:100330001040FFF787BF00000121014800F0DFB83F
:1003400000240140002904D0816841F0010181604E
:100350007047816821F001018160704710B58CB051
:100360000121084600F0DCFF12480190801507903B
:1003700000200590104902914FF48061089180217E
:1003800006910390052104910B9020200990C00153
:100390000A900A4C01A9204600F000F90548012105
:1003A0004C3800F00DF80121204600F0EAF80CB0BE
:1003B00010BD00004C24014008000020080002404D
:1003C000002904D0816841F48071816070478168A0
:1003D00021F480718160704708B50121042000F08C
:1003E000BBFF0121082000F0B7FF00208DF80300BB
:1003F0000F20ADF8000003208DF802006946054883
:1004000000F06EF90120ADF800006946024800F0E6
:1004100067F908BD00080140000C014001460020BA
:100420008968490700D50120704701460020896886
:10043000090700D50120704710B542680E4B1A40DD
:100440000C790B6842EA04221343436082680B4B29
:100450001A40D1E9024323434C7942EA4402134350
:100460008360C26A22F47002097C491EC9B242EA62
:100470000151C16210BD0000FFFEF0FFFDF7F1FF6A
:1004800070B5072609290AD9C568A1F10A0404EB49
:100490004404A640B543A3401D43C56007E0056979
:1004A00001EB4104A640B543A3401D4305611F2352
:1004B000072A09D2446B521E02EB820293409C43EE
:1004C00091400C43446370BD0D2A09D2046BD21FC6
:1004D00002EB820293409C4391400C43046370BD45
:1004E000C46A0D3A02EB820293409C4391400C4354
:1004F000C46270BD816841F00801816070470029C5
:1005000004D0816841F4A00181607047816821F4C2
:10051000A00181607047816841F0040181607047EB
:1005200008B50121082000F017FF48208DF80300CE
:100530004FF48040ADF8000003208DF802006946BA
:10054000014800F0CDF808BD000C014010B500F0E6
:1005500027F901280ED00848008901F04DFC6FF002
:100560000B0101F0DAFD054901F05AFC01F024FC11
:1005700080B210BD002010BD0800002000007A44A9
:10058000FEE7002904D0016841F0010101607047D5
:1005900001684FF6FE7211400160704730B5026885
:1005A00047F6F0739A430C6A8B682343D1E90445FC
:1005B0002C4323438C692343CC6923434C6A234354
:1005C0008C6A234313430360CA6842600A688260EE
:1005D0004968C16030BD704770B5022000F02CF84A
:1005E00000F040FB04462146272000F0A9FB1149FA
:1005F000FF2C06D02CB1600605D50125012008701E
:1006000008E0002506E0A00601D5022502E0E0068C
:1006100000D503253DB1022D08D0032D05D1BDE83D
:10062000704000F055BB0820087070BDBDE87040F8
:1006300000F06ABB0100002001490860704700001B
:100640001404014030B51B4A83790168002B2AD07D
:1006500013688B431360111D0B680468A3430B6080
:10066000017911440B68046823430B60114C083472
:100670002168036899432160231D19680568A9430F
:1006800019604179102905D011440A6800680243B5
:100690000A6030BD21680268114321601968006852
:1006A0000143196030BD0079104402688A4302603A
:1006B00030BD00000004014010B58A07120F0F235F
:1006C000934021F00304054921448C689C438C60CD
:1006D0008B68904003438B6010BD00000000014018
:1006E0002DE9F0410022CC7804F00F03E40601D597
:1006F0008C7823430C784FF00F0714F0FF0F4FF066
:10070000010C1CD005680CFA02F40E882640A642A3
:1007100011D1960007FA06F825EA080503FA06F84B
:1007200048EA0505CE78282E02D0482E02D002E0F5
:10073000446100E00461521C082AE4D305600A8881
:10074000FF2A1ED94568002202F108060CFA06F4B9
:100750000E882640A64210D1960007FA06F825EA30
:10076000080503FA06F848EA0505CE78282E00D1D8
:100770004461CE78482E00D10461521C082AE3D38C
:100780004560BDE8F0810246002092680A4200D030
:1007900001207047002A01D0016170474161704714
:1007A0004FF480410148FFF7EEBF0000000C01400C
:1007B0000249887800228A707047000002000020F9
:1007C000FEE710B54FF4A06000F02CFB01210846B5
:1007D00000F008FA0121BDE81040002001F0FEB849
:1007E00010B54FF400410448FFF7CDFF08B10120D8
:1007F00010BD002010BD0000000C014008B5012113
:10080000082000F0A9FD48208DF803004FF4404077
:10081000ADF8000003208DF8020069460148FFF79B
:100820005FFF08BD000C014010B5064C60782070D9
:10083000FFF7D6FF60702178002902D0002800D190
:10084000A17010BD02000020FEE7000070B5264E2A
:10085000002030704FF46171718124494D888C887B
:1008600040F6C4118D4203D240F2DC5295421BD8AF
:10087000284600F017F901222146284600F038F8F2
:10088000708001222146284600F032F8B080022212
:100890002146284600F02CF8F08002222146284606
:1008A00000F026F830811AE07080B080F08030814E
:1008B0008C4201D2944212D8204600F0E1F8204642
:1008C00000F0ACF87080204600F0A8F8B080204618
:1008D00000F0A4F8F080204600F0A0F83081FFF787
:1008E00035FE708270BD000012000020080000205C
:1008F00070B5044640F6C413994201D3012306E0C3
:1009000040F2DC53994201D8022300E000234FF467
:100910007A7563B1224E012B0FD0022B3ED1012AF2
:100920002BD029462046BDE8704000F03FB829464C
:100930002046BDE8704000F039B8012A17D0A1F672
:10094000C41188B201F058FA164901F057F901466E
:100950004FF07E5001F03AFB314601F061FA01F0B0
:100960002BFA81B22046BDE8704000F01FB829463E
:100970002046BDE8704000F019B8084601F03CFA86
:10098000094901F03BF9314601F04AFA01F014FA45
:1009900081B22046BDE8704000F008B870BD00008C
:1009A00000007A440000C8440080BB4470B50D4686
:1009B00040F6C411884212D3A0F6C41080B201F0F0
:1009C0001BFA144901F01AF90446284601F014FAFA
:1009D000214601F025FA01F0EFF980B270BD40F236
:1009E000DC51884214D801F007FA0B4901F006F9EE
:1009F00001464FF07E5001F0E9FA0446284601F026
:100A0000FBF9214601F00CFA01F0D6F980B270BD75
:100A1000002070BD0000C8440080BB4410B540F603
:100A2000C411144C88420ED3A0F6C41080B201F059
:100A3000E3F9114901F0E2F8214601F0F1F901F082
:100A4000BBF980B210BD40F2DC51884210D801F0F1
:100A5000D3F90A4901F0D2F801464FF07E5001F077
:100A6000B5FA214601F0DCF901F0A6F980B210BD1B
:100A7000002010BD00007A440000C8440080BB4440
:100A800040F6C4120649904202D30C2048707047C9
:100A900040F2DC529042FAD80320487070470000C0
:100AA0001200002040F6C4120649904202D30020F2
:100AB0004870704740F2DC529042FAD80F204870DC
:100AC000704700001200002070470000F8B50121B7
:100AD000042000F041FC0121082000F03DFC10251D
:100AE0008DF803502C01ADF8004003208DF8020072
:100AF000114E69463046FFF7F3FD48228DF803207A
:100B00000222ADF800200D4F69463846FFF7E8FD98
:100B10008DF803502022ADF8002069463846FFF7D3
:100B2000DFFD012221463046FFF734FE012220215D
:100B30003846FFF72FFEF8BD00080140000C0140C9
:100B400010B5FFF7C3FF00F08DF80146272000F035
:100B5000F7F8224C002220212046FFF71BFE00213F
:100B6000252000F0EDF805221D49302000F004F9A1
:100B70001B490522491D2A2000F0FEF80F212020E4
:100B800000F0DEF80121212000F0DAF820213120E8
:100B900000F0D6F80121222000F0D2F81A212420FA
:100BA00000F0CEF80721262000F0CAF8FF21E2204D
:100BB00000F0C6F8FF21E12000F0C2F80122202158
:100BC0002046FFF7E7FD052000F032F810F08F0F08
:100BD00001D0012010BD002010BD0000000C01401C
:100BE00086270008FEB504460D460121084600F0A0
:100BF000B3FB01210846FFF75FFD022201920126A7
:100C00008DF80A6000228DF808200C228DF809204A
:100C100001A8FFF717FD07228DF800208DF803606B
:100C20008DF801408DF80250684600F0C9F8FEBD0D
:100C300070B506460A4D4FF48074002221462846BE
:100C4000FFF7A8FD304600F00FFCFF2000F00CFC81
:100C50000646012221462846FFF79CFD304670BD1E
:100C60000008014070B5094D4FF480740022214600
:100C70002846FFF78FFDFF2000F0F6FB0646012215
:100C800021462846FFF786FD304670BD000801402A
:100C900070B50D4C0422227001462022A02000F0E5
:100CA0006BF80A4D002220212846FFF773FD0E2124
:100CB000202000F045F8012220212846FFF76AFD98
:100CC0000520207070BD000001000020000C0140D4
:100CD00010B5FF21E12000F033F8094C002220215B
:100CE0002046FFF757FD0F21202000F029F80122B0
:100CF00020212046FFF74EFD02490720087010BD55
:100D0000000C01400100002010B5FF21E12000F09F
:100D100017F8094C002220212046FFF73BFD0F2148
:100D2000202000F00DF8012220212046FFF732FD9F
:100D300002490620087010BD000C0140010000208F
:100D40002DE9F04107460E460A4D4FF4807400220B
:100D500021462846FFF71EFD384600F085FB304649
:100D600000F082FB21462846BDE8F0410122FFF752
:100D700011BD0000000801402DE9F04104460D4678
:100D80001646DFF838804FF4807700223946404617
:100D9000FFF700FD204600F067FB002404E0285D1B
:100DA00000F062FB641CE4B2B442F8D3394640461A
:100DB000BDE8F0410122FFF7EDBC00000008014052
:100DC00070B50F23C27801260178002A1ED0144A7C
:100DD000126802F4E062C2F5E062120AC2F1040491
:100DE000D3404578A54082781A402A43120101F188
:100DF000E02181F80024007800F01F018E404009B6
:100E0000800000F1E020C0F8006170BD01F01F001B
:100E100086404809800000F1E020C0F8806170BD84
:100E20000CED00E0024908430249086070470000E9
:100E30000000FA050CED00E070B500250021284601
:100E400000F0EEF80024002000F04DFA641CE4B23B
:100E5000802CF8D36D1CEDB2082DEFD370BD0000CF
:100E600038B50121082000F077FA14208DF803002E
:100E700003208DF802000002ADF80000074C69461F
:100E80002046FFF72DFC012211022046FFF782FCCD
:100E9000012251022046FFF77DFC38BD000C0140C5
:100EA0002DE9F04707460024134D4FF080094FF419
:100EB0000078AE1529FA04F23A4041462846FFF779
:100EC00069FC012231462846FFF764FC00223146C6
:100ED0002846FFF75FFC641CE4B2082CEAD3012229
:100EE00031462846FFF756FC31462846BDE8F04714
:100EF0000022FFF74FBC0000000C014070B501223A
:100F00000B4D540221462846FFF744FC01221602ED
:100F100031462846FFF73EFC002221462846FFF7CF
:100F200039FC31462846BDE870400022FFF732BC4C
:100F3000000C014070B50A4D4FF4007400222146A8
:100F40002846FFF727FC012211022846FFF722FC62
:100F500021462846BDE870400122FFF71BBC000077
:100F6000000C014010B500214FF47A720020401CA3
:100F70009042FCD3491C9142F8D3FFF771FFAE2099
:100F800000F0A0F9D52000F09DF9802000F09AF93A
:100F9000A82000F097F93F2000F094F9D32000F04A
:100FA00091F9002000F08EF9402000F08BF9A1208B
:100FB00000F088F9C82000F085F9DA2000F082F905
:100FC000122000F07FF9812000F07CF9CF2000F0A2
:100FD00079F9D92000F076F9F12000F073F9DB20DF
:100FE00000F070F9302000F06DF9A42000F06AF9EB
:100FF000A62000F067F98D2000F064F9142000F0BD
:1010000061F9AF2000F05EF9BDE81040FFF714BFB2
:101010000346012000E05843491E4A1CFBD170479B
:1010200010B50C4640F0B00000F04CF9102040EA3A
:10103000141000F047F904F00F00BDE8104000F074
:1010400041B900002DE9F0411546491E461ECF006A
:101050007006F9B2000EFFF7E3FF00240E48203DB2
:1010600000EB0515285D00F03EF9641CE4B2082C85
:10107000F8D3012000EB4600F9B2C0B2FFF7D0FF71
:1010800000242819007A00F02EF9641CE4B2082C20
:10109000F7D3BDE8F0810000962100082DE9F04764
:1010A00081460F4690461E4600240A2512E0311B59
:1010B000491E0A20FFF7ACFFB8FBF0F2B2FBF5F0D7
:1010C00005FB10223819C1B230324846FFF7BAFF8B
:1010D000641CE4B2B442EAD3BDE8F0872DE9F041E4
:1010E00007460D461646002406E02819C1B23846C8
:1010F000FFF7A8FF641CE4B2325D002AF5D1BDE819
:10110000F081000010B5012126A20846FFF7E6FF96
:1011100026A201210220FFF7E1FF26A201210320E0
:10112000FFF7DCFF254C6078C00705D024A2092119
:101130000120FFF7D3FF04E022A209210120FFF7DD
:10114000CDFF6078400705D51DA209210220FFF7D9
:10115000C5FF04E01BA209210220FFF7BFFF628840
:10116000042305210120FFF799FFE28804230521CC
:101170000220FFF793FFFFF713FB60B112A20921D2
:101180000320FFF7ABFF628A04230521BDE810406E
:101190000320FFF783BF0EA209210320FFF79EFF64
:1011A000F1E700004D5F4C3A000000004D5F523AFD
:1011B00000000000425F4D3A0000000012000020D5
:1011C0002042000020410000204F46460000000061
:1011D000204F4E20000000002DE9F0412C4C0A2049
:1011E0006189B1FBF0F1CDB2A189B1FBF0F1CEB2D2
:1011F000E189B1FBF0F1CFB2218AB1FBF0F000F050
:10120000FF08012123A20846FFF768FF24A2092155
:101210000120FFF763FF25A201210220FFF75EFFF7
:1012200025A209210220FFF759FF03232A460421A2
:101230000120FFF733FF032332460C210120FFF783
:101240002DFF03233A4604210220FFF727FF032343
:1012500042460C210220FFF721FF01236289082169
:101260001846FFF71BFF0123A28910211846FFF73C
:1012700015FFE289012308210220FFF70FFF228AD0
:10128000BDE8F041012310210220FFF707BF000055
:101290001200002053313A2020202E2000000000B0
:1012A00053323A2020202E200000000053333A20F1
:1012B00020202E200000000053343A2020202E2031
:1012C0000000000010B50446FFF718FE7820FFF775
:1012D000E7FD0020FFF7E4FD2046FFF7E1FDBDE854
:1012E0001040FFF727BE10B50446FFF707FE782031
:1012F000FFF7D6FD4020FFF7D3FD2046FFF7D0FDD6
:10130000BDE81040FFF716BE70470000034A516861
:1013100021F4404101435160704700000010024039
:10132000054A002903D05169014351617047516951
:10133000814351617047000000100240054A0029B6
:1013400003D0D1690143D1617047D1698143D16133
:101350007047000000100240054A002903D091693F
:101360000143916170479169814391617047000029
:101370000010024038B501211020FFF7EDFF1020CA
:101380008DF803004402ADF8004003208DF8020000
:10139000054D69462846FFF7A3F901222146284654
:1013A000FFF7F8F938BD000000100140064B4FF47C
:1013B0000051002803D000221846FFF7EBB90122A4
:1013C0001846FFF7E7B900000010014038B50121C9
:1013D0000420FFF7C1FF18208DF80300A020ADF80E
:1013E000000003208DF80200074C69462046FFF7F5
:1013F00077F904218DF803104021ADF800106946FB
:101400002046FFF76DF938BD0008014010B586B0E1
:10141000FFF7DCFF01210803FFF79EFF4FF4827006
:10142000ADF806000020ADF80400ADF80800ADF8F6
:1014300012002821ADF81010ADF80A00ADF80C002C
:101440004FF40070ADF80E000720ADF81400054C05
:1014500001A9204600F039F80121204600F01EF8CD
:1014600006B010BD0030014070B505460A4C02219F
:10147000204600F01FF80128F9D12946204600F047
:1014800022F80121204600F015F80128F9D1204664
:1014900000F017F8C0B270BD00300140002904D040
:1014A000018841F0400101807047018821F040012E
:1014B000018070470246002012890A4200D00120B4
:1014C0007047808970478181704730B5028802F487
:1014D00041530A884C88CD8822438C882C43224370
:1014E0000C8922434C8922438C892243CC89224394
:1014F0001A430280828B22F400628283098A01826D
:1015000030BD704770B540F6C411184D184C884274
:1015100011D3A0F6C41080B200F06EFC154900F0A3
:101520006DFB294600F07CFC214600F045FD00F0F3
:1015300043FC80B270BD40F2DC51884213D800F009
:101540005BFC0D4900F05AFB01464FF07E5000F065
:101550003DFD294600F064FC214600F0E7FA00F06A
:101560002BFC80B270BD4FF4617070BD000016435B
:10157000000061440000C8440080BB4470B50021F5
:1015800040F6C4121F4D204C904212D3A0F6C41056
:1015900080B200F031FC294600F030FB214600F01B
:1015A0003FFC0146002000F0C1FA00F0E9FB41B227
:1015B00017E040F2DC52904213D800F01DFC29469F
:1015C00000F01CFB01464FF07E5000F0FFFC21466E
:1015D00000F026FC0146002000F0F8FC00F0D0FBF3
:1015E00041B20A4A9089084480B29081642801D8A7
:1015F0006420908191894FF4E160814200D3908111
:1016000070BD00000000C8440000484212000020E5
:1016100070B5002140F6C4121F4D204C904212D3E9
:10162000A0F6C41080B200F0E7FB294600F0E6FA0D
:10163000214600F0F5FB0146002000F0C7FC00F059
:101640009FFB41B217E040F2DC52904213D800F009
:10165000D3FB294600F0D2FA01464FF07E5000F04D
:10166000B5FC214600F0DCFB0146002000F05EFAEC
:1016700000F086FB41B20A4AD089084480B2D0818A
:101680004FF4C871884200D8D181D1894FF4E1600C
:10169000814200D3D08170BD0000C84400004842A0
:1016A0001200002070B5002140F6C412204D214CDC
:1016B000904212D3A0F6C41080B200F09DFB2946E0
:1016C00000F09CFA214600F0ABFB0146002000F040
:1016D0002DFA00F055FB41B217E040F2DC52904287
:1016E00013D800F089FB294600F088FA01464FF034
:1016F0007E5000F06BFC214600F092FB014600207A
:1017000000F064FC00F03CFB41B20B4A108A084434
:1017100080B2108242F21071884201D30020108200
:10172000118A4FF49670814200D3108270BD000080
:101730000000C844000048421200002010B5074CC9
:101740000120207000206080A080E08020816082E5
:1017500003480088FFF7D6FE608110BD120000200C
:101760000800002004484FF4617141818181C181EA
:10177000C82101827047000012000020AFF30080F2
:101780000CB50022019200922748016841F4803193
:1017900001604FF4A063016801F4003100910199E8
:1017A000491C0191009911B901999942F3D101683D
:1017B000890302D50121009100E0009200990129DE
:1017C00030D11A490A6842F010020A600A6822F011
:1017D00003020A600A6842F002020A60416841603E
:1017E00041684160416841F480614160416821F491
:1017F0007C114160416841F4E8114160016841F0A9
:101800008071016001688901FCD5416821F0030104
:101810004160416841F0020141604168C1F38101CA
:101820000229FAD10CBD0000001002400020024045
:101830007047000010B50F48016841F001010160D8
:1018400041680D4A1140416001680C4A1140016035
:10185000016821F480210160416821F4FE014160AA
:101860004FF41F018160FFF789FF05494FF00060C9
:10187000086010BD001002400000FFF8FFFFF6FEF8
:1018800008ED00E010B501210A4800F019F8FEF754
:10189000CBFF0948007801280BD1084C6088FFF77E
:1018A0006DFEE088FFF7B4FEA088BDE81040FFF7AA
:1018B000F9BE10BD00040040000000200800002018
:1018C000C94301827047002904D0018841F0010119
:1018D00001807047018821F0010101807047002AD2
:1018E00003D082890A438281704782898A43828138
:1018F0007047018921F007010181704730B50288E6
:101900001B4C1C4DA0420DD0A8420BD0B0F1804F13
:1019100008D0194B984205D0184B984202D0184B6A
:10192000984203D122F070034A881A43154B98421B
:1019300006D0154B984203D022F44073CA881A434C
:1019400002808A8882850A880285A0420AD0A8423D
:1019500008D00E4A904205D00D4A904202D00D4A5E
:10196000904201D1097A01860121818230BD0000B7
:10197000002C0140003401400004004000080040F9
:10198000000C0040001000400014004000400140E6
:1019900000440140004801403EB501210220FFF70C
:1019A000CDFC0D4C2046FFF7A4FF0021ADF806103A
:1019B000ADF80210C722ADF8042041F61F42ADF881
:1019C00000208DF8081069462046FFF797FF012197
:1019D0002046FFF778FF3EBD00040040F8B50446FE
:1019E0000D460C4E01213046FFF76AFF01221146D9
:1019F0003046FFF774FF1D208DF8000001208DF8A0
:101A000003008DF801408DF802506846FFF7D8F9C1
:101A1000F8BD000000040040FEE70000FFF7AAFC4C
:101A20000120FFF7C3FCFEF7E9FEFEF779FDFFF7A3
:101A300099FAFFF7B1FFFEF773FC28B101212BA241
:101A40000846FFF74BFBF9E7FEF776FCFFF7DEFCF5
:101A5000FFF776F828B1012127A20846FFF73EFBE1
:101A6000F9E7FEF7AEFEFFF77DFE274C274D284E27
:101A7000FEF79EFE10B12078401C2070207800F008
:101A80000100207010B1012809D104E0FEF7DEFE4C
:101A9000FFF738FB03E0FFF751FEFFF79DFB022342
:101AA0002A780F210120FFF7F9FA2878072801D0BA
:101AB000082804D117A201210420FFF70FFB287882
:101AC000062804D116A201210420FFF707FB28787D
:101AD00028B1032803D0062801D0072802D10C48DA
:101AE000FFF7D6F8307D401C3075C1E74144435FB5
:101AF0004572726F720000004E524632344C3031E3
:101B00005F4572726F72000000000020010000202B
:101B10001200002053656E645F4572726F720000A0
:101B200053656E645F4F4B202020000090EA010F48
:101B300048BF81F0004100F15082421A3CBF801A38
:101B400089184FEAD0524FF07F4C1CEA410FA2EBAC
:101B5000D15318BF9CEA026F00F03B804FF0004C5D
:101B60004CEA00204CEA012121FA03FC10EB0C0C9A
:101B70001ED202F1FF325FEA1C2040EBC25038BF98
:101B800070471CF07F0F4FEA400C18BFBCF17F4F2D
:101B900038BF7047C3F12003994008BF20F001000F
:101BA000BCF17F4F38BF7047A0F1C04000F0FFB9D3
:101BB0004FEA3C00000A40EBC25028BF1CF0FF0F68
:101BC0004FEA400CE6D018BFBCF17F4F38BF7047DA
:101BD000EAE79CEA026F05D010EA5C0F08BF00F04C
:101BE0000040704710B500F09CF900BF64FBBE3E9A
:101BF000014800F060BA00BF0000C07F4FF47F0CC6
:101C00001CEAD0121EBF1CEAD11392EA0C0F93EA11
:101C10000C0F00F0858090EA010F48BF42F48072FB
:101C200040F4000C41F400002CF07F4120F07F4094
:101C300000B58142A2EB03020FF2081CACEB504E40
:101C4000C0F100009EF800E04FEA4E0E00FB0EFCD3
:101C500038BF49004FEA2C1C02F5FA020CFB0EF3C8
:101C60004FEACE1E4FEA112C4FEAC1210EEB635E04
:101C700042EB22420EFB0CFC4FEA1C5300FB03110B
:101C80004FEA112C4FEA01310EFB0CFC4FEADC4C01
:101C900000FB0C11C14228BF09184CEB03335DF85F
:101CA00004EB10EB410143EBC250B2F57C0F38BF9F
:101CB000704729D512F0F00F1CBF00F1C04000F0B2
:101CC00000407047008182838485868788898B8C59
:101CD0008D8E8F919293959697999A9C9D9FA0A295
:101CE000A3A5A7A8AAACAEB0B2B3B5B7B9BCBEC0E5
:101CF000C2C5C7C9CCCED1D4D7D9DCDFE2E6E9EC86
:101D0000F0F3F7FAFE0000004FEA400C0CF1807C83
:101D1000BCF17E4F28BF7047B0F1C04000F047B91A
:101D200090EA010F0CEAD11348BF42F48072624579
:101D300038BF634507D213F47F0F16D080EA010045
:101D400000F00040704710B500F0EBF8097EFC3E53
:101D500000F005B880EA010000F00040704780EA1A
:101D6000010000F0004000F022B912F47F0F04BF20
:101D70000248704780EA010000F019B90000C07FF6
:101D800041000B0ED3F19E0208D950F400034FEA34
:101D9000032323FA02F048BF4042704710B500F019
:101DA000C0F800BF49922480002070476FF00042C5
:101DB00082EA200070470000C10DD1F19E0206DBCF
:101DC0004FEA002343F0004323FA02F07047004239
:101DD00007D54FEA4001B1F1FE4F02D24FF00000AB
:101DE000704710B500F09DF849922480002070479C
:101DF0006FEA200070470000B0FA80F310FA03F297
:101E0000C3F19D030AD0D90501EB1220530638BF58
:101E1000704700F1010008BF20F00100704700008A
:101E20004FF47F0C1CEAD0121EBF1CEAD11392EAB9
:101E30000C0F93EA0C0F00F0478090EA010F48BFA7
:101E400042F480724FF0004C4CEA00204CEA012131
:101E500002EB0302A0FB0113A2F50002002918BF48
:101E600043F001035B0028BF4FEA330342EB2242F9
:101E70005FEA132C4CEBC2502EBFBCEB436FB2F5A4
:101E80007C0F70474FEA036CBCF1004F08BF20F095
:101E90000100B2F57C0F38BF70470BD582F0FF020E
:101EA00012F5803FC8BF704700F1C040D8BF00F0B6
:101EB0000040704700F5000C5FEA4C0C48BF7047CB
:101EC000B0F1C04000F073B890EA010F0CEAD113F2
:101ED00048BF42F48072624538BF634504D280EA4D
:101EE000010000F00040704710B500F01AF800BF84
:101EF0008900013E00F007B800F009B85FEA410C24
:101F00005FEA1C6C08D080EA010000F050B85FEA7C
:101F1000400C5FEA1C6CF6D14FF00040A0F5800049
:101F200070470EF1020E2EF0030E5EF8044B2442B1
:101F300004D44FEA4102B2F17F4F11D84FEA400377
:101F4000B3F17F4F0CD80ED14FEAD07CB2F17F4F66
:101F50000CEB4C0C0CF1020C08BF4CEBD17C04E0F8
:101F60004FF0080C01E04FEAD17C0CEB4C0324FA53
:101F700003F404F00704B4F1040C06D20EEB840C55
:101F8000BDE810404CF0010C6047DFE80CF007089A
:101F900002024FF00040A0F5800010BD084642004C
:101FA00018BFD2F1807288BF00F0004010BDFF2141
:101FB00041EAD050C005704780F0004090EA010F20
:101FC0007FF5BBAD81F0004100F007B890EA010F4A
:101FD00048BF81F000413FF5B0AD421A04D882F00D
:101FE0000042A0EB020011444FEAD0524FF07F4C68
:101FF0001CEA410FA2EBD15318BF9CEA026F4AD0F2
:102000004FF0004C4CEA00204CEA012121FA03FC7D
:10201000B0EB0C0C0FD412F0FE0F36D05FEA4C0080
:102020001DD5001240EBC25038BF70471CF03F0F67
:1020300018BF70470BE0A2F101025FEA1C2040EBE1
:10204000C25038BF70471CF07F0F18BF7047C3F1F4
:102050002003994014BF401E20F001007047800803
:102060004FEA122308BF7047B0FA80FCA2EB0C02C3
:10207000CCF1280C60FA0CF093EA122F04BF00EBAD
:10208000C25070474FEAC3707047130A5FEADC1012
:1020900008BF7047F6E79CEA026F04D010EA5C0FB5
:1020A00008BF0020704710B5FFF73BFF40DFF63E4A
:1020B00081F0004070470CF00F03092B08BF082087
:1020C00000F051800A2B0BD0082B18BF704708BFB7
:1020D0001CF0400F0AD04FF000004FF00001704795
:1020E0001CF0400F18BF4FF0004070471CF0100F5D
:1020F00008D020F0704300F07F4242EAD3014FEA5B
:102100004370704700F0604021F07F4242EA0002D5
:1021100001F07F4040EA727070474FF0FF0212EA10
:10212000D0521CBF92F0FF038B42C2BFD14200EBE2
:10213000C1507047002A0AD0002B0BD0002900F0B4
:102140000040A4BF40F0FE4040F40000704700F0A3
:102150000040704743024FF00B0C18BF4CF0806CEE
:102160007FF446AD70471CF4801F11D01CF4E02FA3
:1021700003D06FEACC31490070474FF04050EFF385
:10218000008222F0704242EA000282F30088704727
:102190004FF0000070470000000000000000000049
:1021A000000000000000000000F800000000000037
:1021B00000333000000000100C06100C0600000078
:1021C00000000000000040C07840C0784000043F9C
:1021D00004043F040400007088FC0830000000186C
:1021E00020FF211E0000F008F000E0180000002190
:1021F0001C031E211E0000F00888700000001E2134
:1022000023241927211010160E00000000000000E2
:10221000000000000000000000E0180402000000C0
:1022200000071820400000020418E00000000040F1
:10223000201807000000404080F08040400002026B
:10224000010F01020200000000F000000000010187
:10225000011F01010100000000000000000080B02B
:1022600070000000000000000000000000000001FD
:102270000101010101010000000000000000003028
:1022800030000000000000000000806018040060C2
:1022900018060100000000E010080810E000000F20
:1022A000102020100F00001010F800000000002087
:1022B000203F2020000000700808088870000030CF
:1022C0002824222130000030088888483000001877
:1022D000202020110E000000C02010F80000000790
:1022E0000424243F240000F8088888080800001906
:1022F000212020110E0000E0108888180000000F37
:10230000112020110E0000380808C838080000000D
:10231000003F000000000070880808887000001C62
:10232000222121221C0000E010080810E00000001B
:10233000312222110F00000000C0C0000000000088
:1023400000303000000000000080000000000000AD
:1023500080600000000000008040201008000001A4
:102360000204081020004040404040404000040467
:102370000404040404000008102040800000002031
:10238000100804020100007048080808F00000006E
:10239000003036010000C030C828E810E0000718FF
:1023A000272423140B000000C038E0000000203C6C
:1023B00023020227382008F8888888700000203F10
:1023C000202020110E00C030080808083800071827
:1023D00020202010080008F808080810E000203F1E
:1023E000202020100F0008F88888E8081000203FFF
:1023F00020202320180008F88888E8081000203FD3
:10240000200003000000C03008080838000007184A
:102410002020221E020008F808000008F808203FCB
:10242000210101213F20000808F8080800000020D1
:10243000203F2020000000000808F8080800C080A5
:1024400080807F00000008F888C028180800203F1E
:1024500020012638200008F8080000000000203F76
:1024600020202020300008F8F800F8F80800203F6D
:10247000003F003F200008F830C00008F808203F67
:10248000200007183F00E01008080810E0000F10B7
:10249000202020100F0008F808080808F000203F4E
:1024A000210101010000E01008080810E0000F18E9
:1024B000242438504F0008F8888888887000203F0E
:1024C0002000030C3020007088080808380000380D
:1024D000202121221C00180808F808081800000014
:1024E000203F2000000008F808000008F808001F3E
:1024F000202020201F000878880000C8380800002D
:1025000007380E010000F80800F80008F800033C46
:102510000700073C0300081868808068180820300E
:102520002C03032C30200838C800C83808000000ED
:10253000203F2000000010080808C8380800203894
:10254000262120201800000000FE020202000000E8
:10255000007F40404000000C30C000000000000040
:1025600000010638C00000020202FE000000004028
:1025700040407F000000000004020202040000004E
:10258000000000000000000000000000000080804B
:102590008080808080800002020400000000000033
:1025A0000000000000000000808080800000001912
:1025B000242222223F2008F8008080000000003FF3
:1025C000112020110E000000008080800000000E0D
:1025D000112020201100000000808088F800000EEB
:1025E000112020103F200000808080800000001F0C
:1025F000222222221300008080F088888818002080
:10260000203F202000000000808080808000006B40
:1026100094949493600008F8008080800000203F2C
:10262000210000203F20008098980000000000203A
:10263000203F20200000000000809898000000C08B
:102640008080807F000008F8000080808000203FAC
:1026500024022D302000000808F8000000000020AF
:10266000203F202000008080808080808000203FEC
:1026700020003F20003F8080008080800000203FBD
:10268000210000203F200000808080800000001F8B
:10269000202020201F00808000808000000080FF1C
:1026A000A12020110E000000008080808000000E1C
:1026B000112020A0FF80808080008080800020206A
:1026C0003F212000010000008080808080000033D6
:1026D000242424241900008080E080800000000071
:1026E000001F202000008080000000808000001F6C
:1026F000202020103F20808080000080808000010A
:102700000E300806010080800080008080800F303D
:102710000C030C300F0000808000808080000020BF
:10272000312E0E31200080808000008080808081EA
:102730008E7018060100008080808080800000215B
:10274000302C2221300000000000807C02020000BA
:102750000000003F404000000000FF0000000000BB
:102760000000FF0000000002027C8000000000402A
:10277000403F0000000000060101020204040000C6
:10278000000000000000F0F0F0F0F0F0F0F0F0F0E9
:10279000B027000800000020080000002801000801
:1027A000B827000808000020900600004401000837
:0827B000000000000000000021
:04000005080000ED02
:00000001FF
