:020000040800F2
:1000000090060020890100085D07000879050008B6
:10001000C3050008F50200083115000800000000C3
:10002000000000000000000000000000FB0C0008C1
:1000300059030008000000000D0B0008B50F000870
:10004000A3010008A3010008A3010008A301000800
:10005000A3010008A3010008A3010008A3010008F0
:10006000A3010008A3010008A3010008A3010008E0
:10007000A3010008A3010008A3010008A3010008D0
:10008000A3010008A3010008A3010008A3010008C0
:10009000A3010008A3010008A3010008A3010008B0
:1000A000A301000809100008A3010008A30100082B
:1000B000A30100089110000800000000A30100083F
:1000C000A30100080000000000000000A3010008D8
:1000D00000000000A3010008A301000800000000C8
:1000E0005D030008A3010008A301000800F002F866
:1000F00000F03AF80AA090E8000C82448344AAF188
:100100000107DA4501D100F02FF8AFF2090EBAE885
:100110000F0013F0010F18BFFB1A43F0010318473B
:10012000041A0000241A0000103A24BF78C878C1CD
:10013000FAD8520724BF30C830C144BF04680C60ED
:10014000704700000023002400250026103A28BF35
:1001500078C1FBD8520728BF30C148BF0B60704739
:100160001FB51FBD10B510BD00F031F81146FFF7E7
:10017000F7FF01F0DEF900F04FF803B4FFF7F2FFEC
:1001800003BC00F057F800000948804709480047C1
:10019000FEE7FEE7FEE7FEE7FEE7FEE7FEE7FEE737
:1001A000FEE7FEE704480549054A064B7047000094
:1001B000B90F0008ED000008900000209006002014
:1001C00090020020900200207047704770477546EB
:1001D00000F02CF8AE4605006946534620F00700B3
:1001E000854618B020B5FFF7DDFFBDE820404FF091
:1001F00000064FF000074FF000084FF0000B21F011
:100200000701AC46ACE8C009ACE8C009ACE8C009DD
:10021000ACE8C0098D46704710B50446AFF30080C6
:100220002046BDE81040FFF7A8BF00000048704717
:100230003000002001491820ABBEFEE72600020076
:100240007047000038B50121082000F06FFC102035
:100250008DF803008402ADF8004003208DF8020001
:10026000054D6946284600F007F901222146284637
:1002700000F055F938BD0000000C0140064B4FF46A
:100280008041002803D00022184600F048B901221E
:10029000184600F044B90000000C0140064B4FF432
:1002A0000051002803D00122184600F038B900227E
:1002B000184600F034B90000000C014038B50121A7
:1002C000082000F033FC14208DF803004FF4005494
:1002D000ADF8004003208DF80200054D6946284620
:1002E00000F0CAF800222146284600F018F938BD6F
:1002F000000C0140FEE7000010B50F4C607800F0E4
:1003000001FA608800F05EF9A08800F067F9E088E3
:1003100000F070F9208900F079F9608900F0EEFCB6
:10032000A08900F005FDE08900F01CFD208ABDE8F1
:10033000104000F031BD00000C00002005480021F5
:10034000017041808180C18001814FF461724281DE
:10035000418270470C0000207047000070B54FF4D8
:10036000805000F035F800F0E9FA044621462720D5
:1003700000F042FB1449FF2C06D02CB1600605D5D5
:1003800001250120087008E0002506E0A00601D53F
:10039000022502E0E00600D503254DB1012D0AD06B
:1003A000022D0DD0032D05D1BDE8704000F0ECBA50
:1003B0000820087070BDBDE87040044800F0D2BA53
:1003C000BDE8704000F0FCBA0A0000200C000020DC
:1003D00001490860704700001404014030B51B4A11
:1003E00083790168002B2AD013688B431360111D99
:1003F0000B680468A3430B60017911440B6804681F
:1004000023430B60114C0834216803689943216031
:10041000231D19680568A94319604179102905D081
:1004200011440A68006802430A6030BD216802680E
:1004300011432160196800680143196030BD0079DB
:10044000104402688A43026030BD0000000401408D
:1004500010B58A07120F0F23934021F003040549BA
:1004600021448C689C438C608B68904003438B6074
:1004700010BD0000000001402DE9F0410022CC78C1
:1004800004F00F03E40601D58C7823430C784FF079
:100490000F0714F0FF0F4FF0010C1CD005680CFA89
:1004A00002F40E882640A64211D1960007FA06F8FB
:1004B00025EA080503FA06F848EA0505CE78282E4D
:1004C00002D0482E02D002E0446100E00461521CD8
:1004D000082AE4D305600A88FF2A1ED9456800224D
:1004E00002F108060CFA06F40E882640A64210D146
:1004F000960007FA06F825EA080503FA06F848EA1E
:100500000505CE78282E00D14461CE78482E00D142
:100510000461521C082AE3D34560BDE8F081002A3B
:1005200001D00161704741617047000038B5012179
:10053000082000F0FBFA10208DF803004FF4E06073
:10054000ADF8000001208DF802000A4C69462046F3
:10055000FFF792FF0022A1152046FFF7E0FF0022DF
:1005600061152046FFF7DBFF002221152046FFF72B
:10057000D6FF38BD000C0140FEE70000064B4FF4EB
:100580000041002803D000221846FFF7C8BF01220F
:100590001846FFF7C4BF0000000C014010B54FF42F
:1005A000A06000F093FA0121084600F065F90021EF
:1005B000084600F045FF0121BDE81040002000F092
:1005C00099BFFEE700EB80004FF6FF7101EA4001A2
:1005D000014800F0BBBE0000002C014000EB800091
:1005E0004FF6FF7101EA4001014800F0B1BE000082
:1005F000002C014000EB80004FF6FF7101EA400142
:10060000014800F0A7BE0000002C014000EB800074
:100610004FF6FF7101EA4001014800F09DBE000065
:10062000002C01402DE9F04706461B4D4FF40078A1
:10063000002241462846FFF772FF00244FF4004A8B
:100640004FF480792F152AFA04F2324205D00122A4
:1006500049462846FFF763FF04E000224946284642
:10066000FFF75DFF012239462846FFF758FF0022B9
:1006700039462846FFF753FF641CE4B2102CE2D33E
:10068000012241462846FFF74AFF41462846BDE879
:10069000F0470022FFF743BF000C014010B500F007
:1006A0001FFAFFF743FF00F0A9FEBDE8104000F07D
:1006B00001B800001FB5684600F03EFE6020ADF8AE
:1006C00000000020ADF808000121ADF80210ADF8DF
:1006D00006000B4C6946204600F030FD6946204676
:1006E00000F070FD6946204600F0B0FD69462046E6
:1006F00000F0EEFD0121204600F003FD1FBD0000CB
:10070000002C014001460020134A1378002B1BD116
:10071000C80702D040F2023001E040F201308B07FE
:1007200002D540F4847001E040F482704B0702D59A
:1007300040F4087001E040F40470090702D540F469
:10074000207001E040F41070117D012901D140F4C6
:10075000A050FFF767BF00000C00002070470000AA
:1007600038B50121042000F0E1F90121082000F052
:10077000DDF910248DF80340ADF8004003208DF81A
:100780000200124D69462846FFF776FE48218DF893
:1007900003102102ADF8001069462846FFF76CFEF1
:1007A0008DF803400421ADF80010094C694620463D
:1007B000FFF762FE012210212846FFF7B0FE01225A
:1007C00004212046FFF7ABFE38BD000000080140C1
:1007D000000C014010B5FFF7C3FF00F0AFF8014671
:1007E000272000F009F9224C002204212046FFF7BF
:1007F00096FE0021252000F0FFF805221D4930203B
:1008000000F012F91B490522491D2A2000F00CF9BD
:100810000F21202000F0F0F80121212000F0ECF859
:100820002021312000F0E8F80121222000F0E4F836
:100830001A21242000F0E0F80721262000F0DCF83F
:10084000FF21E22000F0D8F8FF21E12000F0D4F8E9
:10085000012204212046FFF762FE052000F034F853
:1008600010F08F0F01D0012010BD002010BD00003E
:10087000000C0140181B0008FEB504460D4601217E
:10088000084600F053F90C210020FFF7E1FD4FF47A
:100890008052019201268DF80A6000228DF808200E
:1008A0000C228DF8092001A8FFF798FD28228DF869
:1008B00000208DF803608DF801408DF802506846E5
:1008C00000F0D2F8FEBD000070B50546094C0022CC
:1008D00010212046FFF723FE284600F0C1F9FF2033
:1008E00000F0BEF90546012210212046FFF717FE51
:1008F000284670BD000801402DE9F04104460D4630
:1009000016460D4F002210213846FFF708FE2046FC
:1009100000F0A6F9002405E0FF2000F0A1F9285519
:10092000641CE4B2B442F7D33846BDE8F04101227A
:100930001021FFF7F4BD00000008014070B5084C1D
:10094000002210212046FFF7EAFDFF2000F088F981
:100950000546012210212046FFF7E1FD284670BD23
:100960000008014010B5074C0222227001462022E7
:100970006120FFF7C1FFFF21E22000F03DF80320D6
:10098000207010BD0A00002010B5FF21E12000F00A
:1009900033F8094C002204212046FFF7C0FD0F2147
:1009A000202000F029F8012204212046FFF7B7FD9E
:1009B00002490720087010BD000C01400A00002009
:1009C00010B5FF21E12000F017F8094C00220421A6
:1009D0002046FFF7A4FD0F21202000F00DF8012292
:1009E00004212046FFF79BFD02490620087010BD38
:1009F000000C01400A00002070B506460D46094C67
:100A0000002210212046FFF78AFD304600F028F929
:100A1000284600F025F92046BDE87040012210214B
:100A2000FFF77DBD000801402DE9F04104460D4669
:100A300016460C4F002210213846FFF770FD204665
:100A400000F00EF9002404E0285D00F009F9641CB0
:100A5000E4B2B442F8D33846BDE8F0410122102197
:100A6000FFF75DBD0008014070B50F23C278012675
:100A70000178002A1ED0144A126802F4E062C2F51E
:100A8000E062120AC2F10404D3404578A54082789E
:100A90001A402A43120101F1E02181F80024007874
:100AA00000F01F018E404009800000F1E020C0F8F6
:100AB000006170BD01F01F0086404809800000F110
:100AC000E020C0F8806170BD0CED00E002490843F1
:100AD00002490860704700000000FA050CED00E0D4
:100AE00008B50121042000F021F818208DF803003A
:100AF0004FF47060ADF8000003208DF802006946E5
:100B00000148FFF7B9FC08BD00080140704700002C
:100B1000054A002903D0D1690143D1617047D169E9
:100B20008143D1617047000000100240054A00294E
:100B300003D091690143916170479169814391614B
:100B40007047000000100240F8B501211020FFF7A7
:100B5000EDFF01210820FFF7E9FF10208DF80300C9
:100B60004402ADF8004003208DF802000B4E6946A8
:100B70003046FFF781FCA500ADF80050084F6946EC
:100B80003846FFF779FC012221463046FFF7C7FCC3
:100B9000012229463846FFF7C2FCF8BD001001408B
:100BA000000C0140064B4FF40051002803D00022F6
:100BB0001846FFF7B4BC01221846FFF7B0BC00008E
:100BC0000010014038B501210420FFF7AFFF1820C5
:100BD0008DF80300A020ADF8000003208DF802007E
:100BE000074C69462046FFF747FC04218DF80310A7
:100BF0004021ADF8001069462046FFF73DFC38BDA6
:100C00000008014010B586B0FFF7DCFF01210803A2
:100C1000FFF78CFF4FF48270ADF806000020ADF8AE
:100C20000400ADF80800ADF812002821ADF810104E
:100C3000ADF80A00ADF80C004FF40070ADF80E00EE
:100C40000720ADF81400054C01A9204600F039F842
:100C50000121204600F01EF806B010BD0030014012
:100C600070B505460A4C0221204600F01FF8012805
:100C7000F9D12946204600F022F80121204600F053
:100C800015F80128F9D1204600F017F8C0B270BD60
:100C900000300140002904D0018841F0400101806A
:100CA0007047018821F04001018070470246002012
:100CB00012890A4200D001207047808970478181E3
:100CC000704730B5028802F441530A884C88CD88B9
:100CD00022438C882C4322430C8922434C89224393
:100CE0008C892243CC8922431A430280828B22F4CE
:100CF00000628283098A018230BD704710B500F01E
:100D000010FD084A084B00F01FFD0022074B00F0C1
:100D100033FC00F0D9FC81B2BDE810404FF08040B8
:100D200000F014BB2DB29DEFA7C6F13F00407F40FD
:100D300010B500F0F6FC084A084B00F005FD002253
:100D4000074B00F019FC00F0BFFC81B2BDE8104079
:100D50004FF0804000F0FCBA2DB29DEFA7C6F13FE6
:100D600000407F4010B500F0DCFC084A084B00F062
:100D7000EBFC0022074B00F0FFFB00F0A5FC81B26A
:100D8000BDE810404FF0804000F0E4BA2DB29DEF76
:100D9000A7C6F13F00407F4010B500F0C2FC084AF2
:100DA000084B00F0D1FC0022074B00F0E5FB00F0FF
:100DB0008BFC81B2BDE810404FF0804000F0CCBA0F
:100DC0002DB29DEFA7C6F13F00407F4004484FF48D
:100DD000617141818181C181C82101827047000018
:100DE0000C00002008B501210420FFF79FFE182009
:100DF0008DF803000F20ADF8000003208DF80200ED
:100E000069460248FFF738FB08BD000000080140B2
:100E10002DE9FF4704460D4691469A46FFF7E2FF4B
:100E200000F02CFB204600F07CFC324E324F324664
:100E30003B4600F089FCDFF8C4800022434600F006
:100E40009BFB00F041FC0446284600F06AFC324659
:100E50003B4600F079FC0022434600F08DFB00F099
:100E600033FC0546484600F05CFC32463B4600F049
:100E70006BFC0022434600F07FFB00F025FC81461E
:100E8000504600F04EFC32463B4600F05DFC00222E
:100E9000434600F071FB00F017FC0646684600F080
:100EA0004BFA6020ADF800000020ADF808000120EA
:100EB000ADF80200ADF8064084076946204600F010
:100EC0003DF9ADF806506946204600F07BF9ADF8D3
:100ED00006906946204600F0B9F9ADF8066069460B
:100EE000204600F0F5F90121204600F0FEF8BDE8AB
:100EF000FF8700002DB29DEFA7C6F13F00407F4065
:100F0000AFF300800CB500220192009227480168DF
:100F100041F4803101604FF4A063016801F40031B5
:100F200000910199491C0191009911B901999942C7
:100F3000F3D10168890302D50121009100E00092FC
:100F40000099012930D11A490A6842F010020A605A
:100F50000A6822F003020A600A6842F002020A608C
:100F60004168416041684160416841F4806141608D
:100F7000416821F47C114160416841F4E81141600D
:100F8000016841F08071016001688901FCD5416808
:100F900021F003014160416841F002014160416874
:100FA000C1F381010229FAD10CBD000000100240FA
:100FB000002002407047000010B50F48016841F062
:100FC0000101016041680D4A1140416001680C4A0D
:100FD00011400160016821F480210160416821F421
:100FE000FE0141604FF41F018160FFF789FF054951
:100FF0004FF00060086010BD001002400000FFF8D4
:10100000FFFFF6FE08ED00E070B501211D4800F07D
:1010100069F81D4C207860701C49497D21700025BD
:10102000814203D1E078401CE07000E0E570E07898
:10103000142801D30120A070A078012820D1FFF747
:101040007DF92079401CC0B22921B0FBF1F201FBEF
:1010500012002071142802D10120FFF70FF9207926
:10106000282802D10020FFF709F92078617888420A
:1010700006D0A5702571BDE870400020FFF7FEB8CE
:1010800070BD0000002C0140000000200C0000207A
:1010900010B50121104800F025F81048104C408A86
:1010A000C0085730E0802089401C80B24FF4FA61BC
:1010B000B0FBF1F201FB1200208110B90120FFF713
:1010C000EDF8E0882189884204D1BDE81040002075
:1010D000FFF7E4B810BD0000000400400C00002041
:1010E00000000020C94301827047002904D0018814
:1010F00041F0010101807047018821F00101018068
:101100007047002905D030F8441F41F400410180A8
:10111000704730F8441FC1F30E0101807047002A68
:1011200003D082890A438281704782898A438281FF
:101130007047018921F007010181704730B5028CA9
:1011400022F001020284028C8388048B24F0700454
:1011500024F003050C882C4322F002020D8915436C
:101160004A882A43124DA8420BD0124DA84208D0FB
:10117000114DA84205D0114DA84202D0104DA842F1
:101180000FD122F008054A892A4322F004058A88F3
:101190002A4323F4807323F400738D891D43CB8984
:1011A0002B4383800483C9888186028430BD00007C
:1011B000002C014000340140004001400044014047
:1011C0000048014070B5028C22F010020284028CAB
:1011D0008388048B24F4E04424F440760D884FF691
:1011E000FF7404EA0525354322F020020E8904EA43
:1011F000061616434A8804EA02123243114EB042E0
:1012000002D0114EB04217D122F080024E8904EA7A
:101210000616164326F040068A8804EA0212324374
:1012200023F4806323F400638E8904EA86061E4358
:10123000CB8904EA8303334383800583C98801870C
:10124000028470BD002C01400034014070B5028C56
:1012500022F480720284028C8388848B24F07004D0
:1012600024F003040D88254322F400720E894FF602
:10127000FF7404EA062616434A8804EA022232432F
:10128000114EB04202D0114EB04217D122F4006686
:101290004A8904EA0222324322F480668A8804EAF8
:1012A0000222324323F4805323F400538E8904EA4C
:1012B00006161E43CB8904EA0313334383808583D8
:1012C000C9888187028470BD002C01400034014030
:1012D00070B5028C22F480520284058C8288838B44
:1012E00023F4E04323F440760C884FF6FF7303EABF
:1012F0000424344325F400550E8903EA06362E43B0
:101300004D8803EA05353543094EB04202D0094EF7
:10131000B04205D122F480468A8903EA8212324320
:1013200082808483C988A0F84010058470BD0000C5
:10133000002C014000340140002101804180818067
:10134000C180018141818181C1817047818670475F
:101350000187704781877047A0F8401070470000F0
:1013600030B502881B4C1C4DA0420DD0A8420BD0BA
:10137000B0F1804F08D0194B984205D0184B9842D5
:1013800002D0184B984203D122F070034A881A43C6
:10139000154B984206D0154B984203D022F4407367
:1013A000CA881A4302808A8882850A880285A042F8
:1013B0000AD0A84208D00E4A904205D00D4A904269
:1013C00002D00D4A904201D1097A01860121818221
:1013D00030BD0000002C01400034014000040040FA
:1013E00000080040000C00400010004000140040C5
:1013F0000040014000440140004801403EB5012149
:10140000C802FFF793FB0D4C2046FFF792FE002128
:10141000ADF80610ADF8021042F20F72ADF80420DC
:101420004722ADF800208DF8081069462046FFF7E6
:1014300097FF01212046FFF758FE3EBD002C0140DA
:10144000F8B504460D460C4E01213046FFF74AFE22
:10145000012211463046FFF762FE19208DF8000088
:1014600001208DF803008DF801408DF80250684688
:10147000FFF7FAFAF8BD0000002C01400EB501217B
:101480000846FFF745FB0020ADF80600ADF8020066
:1014900042F21071ADF804104721ADF800108DF83C
:1014A000080069464FF08040FFF75AFF0EBD00006C
:1014B0003EB501210220FFF72BFB0D4C2046FFF724
:1014C00038FE0021ADF80610ADF802100922ADF883
:1014D00004204722ADF800208DF808106946204608
:1014E000FFF73EFF01212046FFF7FFFD3EBD000054
:1014F00000040040F8B504460D460C4E012130466C
:10150000FFF7F0FD012211463046FFF708FE1D20CF
:101510008DF8000001208DF803008DF801408DF852
:1015200002506846FFF7A0FAF8BD00000004004032
:10153000FEE7FFF709FB0120FFF734FBFEF782FE11
:10154000FEF7BCFEFFF7B4FFFFF75CFBFFF7A6F862
:101550004FF46170C82302460146FFF759FCFFF7BC
:1015600039F910B90120FFF709F8FFF717F8FFF76D
:101570002DFCFEF7C1FEFCE710B591EA030F48BF52
:1015800083F0004300F1E681841A71EB030C05D26D
:10159000121943EB0C03001B61EB0C01DFF824E193
:1015A0004FEA1154A4EB135C1EEA430F18BF9EEAE6
:1015B000445F73D023EA0E03DCF1200E21EA0451CC
:1015C00043F4801332D322FA0CFE10EB0E0023FA00
:1015D0000CFE41EB0E01CCF1200E03FA0EFE10EBD7
:1015E0000E0051F10001B1F5801FCCF1200E32D276
:1015F00001EB045112FA0EF2BDE8104058BF7047DB
:10160000401C38BF5FEA420218BF7047002814BF71
:1016100020F0010041F100014FEA410313F5001FE2
:1016200038BF7047A1F1C04100F086B9012A43EBF1
:101630000302ACF1200CDCF11F0E32BF4FF0000EA4
:1016400023FA0CF310EB030041EB0451B4EB115FF0
:10165000D0D0A1EB045101F5801149085FEA3000B8
:1016600001EB04510ED350F1000038BF12FA0EFE08
:1016700008D1BDE81040C9E7401C38BF5FEA42020C
:10168000CAD1C3E7BDE810404FEA410313F5001F7C
:1016900038BF7047A1F1C04100F04EB99EEA445FE7
:1016A00008D011EA5E0FBDE8104004BF01F0004110
:1016B00000207047BDE8104070B500F0EFF800BFA3
:1016C00064FBBE3E0000E0FF4FEA1153A3F58063C8
:1016D000D3F11E03A8BFD3F1200C08DB4FF000426A
:1016E00042EAC12252EA505232FA03F070470942EC
:1016F0000BD4102BC4BF0020704703F5787CBCF1DD
:10170000FF3F05D04FF0FF3070474FF000007047AB
:1017100070B500F0C3F800BF4992248000207047E4
:10172000F0E7B0FA80F310FA03F10AD0C3F11D0319
:1017300003F580634FEA41504FEA035202EBD12197
:1017400070474FF000007047DFF848C170B51CEAE1
:10175000111E1EBF1CEA13159EEA0C0F95EA0C0F12
:1017600000F06F8081EA030423EA4C134EEAD47E32
:1017700021EA4C1141F4801143F48013AE44A1FBE3
:10178000024CA0FB0365AEF17F7E361955EB0C05CC
:10179000A1FB034C4CF10003A0FB021C16EB0C0652
:1017A000654153F10003094218BF46F0010613F4E6
:1017B000007F0BD14FEA03314FEA0530340341EA91
:1017C000155140EA16506FF003020AE04FEAC321B8
:1017D0004FEAC520F40241EA555140EA56506FF0F5
:1017E000020202EB2E4201EB025585EACE710AD0CD
:1017F0005FEA440C18BF24F0004450F1000041F1AE
:10180000000120EAD47040F2FE7C624500D270BD37
:10181000A84214BF4FF080444FF04044002E08BF50
:101820000024BEF1806FA8BFA1F1C041BDE87040A7
:1018300080F282804FF0000001F1C04101F00041D0
:1018400070479EEA0C0F0CEA131518BF95EA0C0FAF
:1018500006D04FF0000081EA030E0EF0004170BD8B
:1018600000F01CF88900013E00F007B800F009B84C
:101870004FEA430C5FEA5C5C08D081EA030100F0A8
:101880005BB84FEA410C5FEA5C5CF6D14FF00000B8
:10189000014970470000FF070000F87F0EF1020EBB
:1018A0002EF0030E5EF8046B364205D4012A43EB9A
:1018B000030515F5001F12D8012841EB010C1CF59A
:1018C000001F0CD80ED14FEAD17C15F5001F0CEB90
:1018D0004C0C0CF1020C08BF4CEBD37C04E04FF035
:1018E000080C01E04FEAD37C0CEB4C0526FA05F618
:1018F00006F00706B6F1040C06D20EEB860CBDE826
:1019000070404CF0010C6047DFE80CF0090B02025C
:101910004FF000414FF00000A1F5002170BD1946C5
:101920001046012851EB010418BFD4F5001484BF00
:10193000002001F0004170BD0808A0F500114FEA39
:101940003101704710B591EA030F48BF83F000439F
:101950003FF51AAE841A71EB030C07D212198CF002
:10196000004C43EB0C03001B61EB0C01DFF8A4E11E
:101970004FEA1154A4EB135C1EEA430F18BF9EEA12
:10198000445F00F0B08023EA6E03524221EA045122
:10199000C3EB6E0338BF5B1EDCF1200E25D322FAA9
:1019A0000CFE10EB0E0043FA0CFE41EB0E01CCF1E5
:1019B000200E03FA0EFE10EB0E0051F10001CCF1E7
:1019C000200E29D412FA0EF201EB0451BDE81040AA
:1019D00058BF7047401C1CBFB2F1004F7047002831
:1019E0000CBF491C20F00100704712EB020E43EBC4
:1019F000030218BF4FF0010E4EEA4202ACF1200C78
:101A0000DCF11E0E54D943FA0CFE10EB0E0051F11E
:101A1000FF31CCF11E0ED5D50EF1010E12FA0EFEDD
:101A2000404141EB010101EB445C5FEA5C5C10D991
:101A300010EBDE7001EB045138BFBEF1004FBDE882
:101A4000104018BF704700280CBF491C20F001004F
:101A5000704730D24FEAD42C11F5001124F4006401
:101A60001BD0B1FA81F20B3AA41AA41ED2F12003C2
:101A7000914030FA03F31943904001EBCC71002CF4
:101A800001EB0451BDE81040A8BF704701F1C0410F
:101A90004FF0000001F000417047B0FA80F310FAF7
:101AA00003F100D110BDE41A173C4805C90AE4E768
:101AB00001EB045110BD491001EB0451BDE8104089
:101AC0004FEA300002E04FF0000170474A0008BFC3
:101AD0000042F8D0B2F5001F28BF704701F0004166
:101AE0004FF0000070479EEA445F07D011EA5E0F96
:101AF000BDE8104004BF002100207047BDE8104041
:101B000070B5FFF7CBFE00BF40DFF63E83F000412B
:101B1000104670470000E0FFF0F0F0F0F0F0F0F059
:101B2000F0F00000441B0008000000200C00000042
:101B300028010008501B00080C000020840600004B
:101B40004401000800000000000000000000000048
:04000005080000ED02
:00000001FF
